:1000000000800020BD010000ED180000B9180000BC
:10001000B9180000B9180000B9180000B91800009C
:10002000B9180000B9180000B9180000ED18000058
:10003000ED180000B9180000ED180000A918000024
:10004000ED180000ED180000ED180000ED1800009C
:10005000ED180000ED180000ED180000ED1800008C
:10006000ED180000ED180000ED180000ED1800007C
:10007000ED180000ED180000ED180000ED1800006C
:10008000ED180000ED180000ED180000ED1800005C
:10009000ED180000ED180000ED180000ED1800004C
:1000A000C14A0000ED180000ED180000ED18000036
:1000B000ED180000ED180000ED180000ED1800002C
:1000C000ED180000ED180000ED180000ED1800001C
:1000D000ED180000ED180000ED180000ED1800000C
:1000E000ED180000ED180000ED180000ED180000FC
:1000F000ED180000A5230000ED180000A138000055
:10010000ED180000A13D0000ED180000ED18000002
:10011000ED180000ED180000ED180000ED180000CB
:10012000ED180000ED180000ED180000ED180000BB
:10013000ED180000ED180000ED180000ED180000AB
:10014000ED180000ED180000ED180000ED1800009B
:10015000ED180000ED180000ED180000ED1800008B
:10016000ED18000041260000ED180000ED18000019
:10017000ED180000ED180000ED180000ED1800006B
:10018000ED180000ED180000ED180000ED1800005B
:10019000ED180000ED180000ED180000ED1800004B
:1001A000ED180000ED180000ED180000ED1800003B
:1001B000ED180000ED180000ED180000564B4CF251
:1001C000205210B51A804DF628121A8000BF00BFC9
:1001D00001F090FB514B4FF010621A60504A9A6048
:1001E000504ADA60A3F53043203B1A6812F480725B
:1001F00004D14D490A604FF4A8521A604B4B1A784B
:10020000110703D51A7842F008021A70484B2A22C7
:100210001A700023474A48499818884204D247492F
:10022000595899500433F5E7454A464B9A424FF0E6
:10023000000302D242F8043BF7E74349434A5958C6
:1002400099500433B3F5DE7FF7D1414B802103F899
:10025000011B40498B42F9D13F4B1A603F4B8A2228
:100260001A70A3F5805324225A70A0221A709A792A
:100270009207FCD59A79D406FCD4394B9A7902F0CE
:100280000C02082AF9D105221A7143225A719A796F
:100290009006FCD5324B9A795106FBD5314A4FF086
:1002A000817111600521516020221A702C4B9B79BD
:1002B00003F00C030C2BF9D12B4B2C4A1A602C4B5E
:1002C0002C4A1A6000225A60072243F8042C2A4A5A
:1002D000C3F80C2D62B601F059FD134B1B68DA0709
:1002E00005D5264801F0CAFB254B264A1A60264B45
:1002F0001B785B0609D5224C224A2368934204D11D
:100300001E4801F0BBFB0023236004F0CDFD01F08B
:10031000F7FA01F027FAFEE70E200540308004408E
:10032000823F04000100002B14D0034002D007409C
:1003300000E007406087FF1F488AFF1F64570000E6
:10034000488AFF1FB894FF1F000000000082FF1FB3
:1003500000E400E05FE400E008ED00E0005006404B
:10036000004006404480044004800440C010050062
:1003700014E000E03F190100000020201C186E5816
:100380001CE00340A5C3945A00F00740FFFFFFFFA5
:10039000FFFFFFFFFFFFFFFFFFFFFFFFFFFFFFFF6D
:1003A000FFFFFFFFFFFFFFFFFFFFFFFFFFFFFFFF5D
:1003B000FFFFFFFFFFFFFFFFFFFFFFFFFFFFFFFF4D
:1003C000FFFFFFFFFFFFFFFFFFFFFFFFFFFFFFFF3D
:1003D000FFFFFFFFFFFFFFFFFFFFFFFFFFFFFFFF2D
:1003E000FFFFFFFFFFFFFFFFFFFFFFFFFFFFFFFF1D
:1003F000FFFFFFFFFFFFFFFFFFFFFFFFFFFFFFFF0D
:10040000FFFFFFFFFFFFFFFFFFFFFFFFDEF9FFFF23
:1004100010B5054C237833B9044B13B10448AFF33E
:1004200000800123237010BD488AFF1F00000000D8
:100430006457000008B5064B1BB106480649AFF3E8
:1004400000800648036813B1054B03B1984708BD07
:1004500000000000645700004C8AFF1F488AFF1FFD
:100460000000000043680B7043681B0A4B70C38890
:100470008B70C379CB7083680B7183681B0A4B71D7
:1004800043898B71C37ACB71082070470B78436026
:100490004A7843EA022343608A7843EA024343608E
:1004A000CA7843EA026343600B7983604A7943EA7E
:1004B000022383608A7943EA02438360CA7943EA6C
:1004C000026383600820704700487047D0510000E5
:1004D00000487047DE51000000487047FF5100009F
:1004E0000048704718520000004870473952000019
:1004F000004870474C52000000487047E753000026
:10050000004870476D52000043680B701A0A4A7029
:100510001A0C1B0E8A70CB7083680B711A0A4A7111
:100520001A0C1B0E8A71CB71C3680B721A0A4A72BD
:100530001A0C1B0E8A72CB720C2070478B784A788B
:100540001B0443EA02230A781343CA7843EA02638E
:1005500043608B794A791B0443EA02230A791343E7
:10056000CA7943EA026383608B7A4A7A1B0443EABE
:1005700002230A7A1343CA7A43EA0263C3600C2057
:100580007047FFFF004870478E52000000487047D8
:10059000A35200002DE9F74F8C460190D0E90201EB
:1005A000040E44EA01244FEA1028060C8CF803409C
:1005B00048EA01684FEA112946EA01460F0C0D0E80
:1005C000019C8CF801808CF802608CF805908CF806
:1005D00006708CF807508CF800008CF80410D4E9F1
:1005E0000401040E44EA01244FEA1028060C48EAEC
:1005F00001684FEA112946EA01460F0C0D0E8CF8EE
:100600000B40019C8CF809808CF80A608CF80D90E6
:100610008CF80E708CF80F508CF808008CF80C10C9
:10062000D4E906014FEA1028060C040E8CF81000DD
:1006300048EA01684FEA112946EA01460F0C44EAEC
:1006400001240D0E18208CF811808CF812608CF8A3
:1006500013408CF814108CF815908CF816708CF8E8
:10066000175003B0BDE8F08F2DE9F0434A788E783B
:1006700091F805800025002314022B433204002743
:100680000E7822431F43CC7800231F430B794FEA97
:100690000825164391F80680220616431F430022C0
:1006A00016432F434FEA084591F807801643164337
:1006B0002F434FEA086542EA06043D43C0E902457C
:1006C0004C7A91F80A8026024FEA084491F8088093
:1006D000264346EA080691F80B804FEA0864344343
:1006E000144342EA02074FF000094E7B47EA09072C
:1006F00042EA040891F80C908C7B42EA070545EA2F
:10070000090527044FEA0629CC7B49EA050948EA8E
:10071000020849EA0709270642EA080647EA0907E4
:10072000C0E904674C7C91F8128026024FEA084425
:1007300091F81080264346EA080691F813804FEAA4
:1007400008643443144342EA02074FF000094E7D27
:1007500047EA090742EA040891F814908C7D42EABE
:10076000070545EA090527044FEA0629CC7D49EA31
:10077000050949EA070948EA0208270642EA080685
:1007800047EA0907C0E906671820BDE8F083FFFFC4
:1007900000487047C452000000487047DA52000019
:1007A00070B5054608300E46FFF7F4FE04463119D1
:1007B00005F12800FFF7EEFE204470BD70B5054638
:1007C00008300E46FFF750FF0446311905F12800A6
:1007D000FFF74AFF204470BD00487047FB520000FD
:1007E000004870470F53000043680B701A0A4A70A4
:1007F0001A0C1B0E8A70CB7083680B711A0A4A712F
:100800001A0C1B0E8A71CB71C3680B721A0A4A72DA
:100810001A0C1B0E8A72CB720C2070478B784A78A8
:100820001B0443EA02230A781343CA7843EA0263AB
:1008300043608B794A791B0443EA02230A79134304
:10084000CA7943EA026383608B7A4A7A1B0443EADB
:1008500002230A7A1343CA7A43EA0263C3600C2074
:100860007047FFFF00487047305300000048704752
:1008700041530000044B42681A60044B82681A60BE
:10088000034BC2681A6070474488FF1F4088FF1FEF
:100890004888FF1FD0E904230849C1E90023D0E9B3
:1008A00010230749C1E90023064B82B01B6801935E
:1008B000019A054B1A6002B0704700BF6090FF1F9D
:1008C000D08AFF1F7C91FF1F288BFF1F90F8F40434
:1008D000704738B5054600F10C042046FFF79EFF2F
:1008E000EB692046984738BD006A7047004870475A
:1008F00030530000004870474153000038B50546AA
:1009000000F110042046FFF759FFAB6D20469847D1
:1009100038BDC06D7047FFFF00487047FB520000B4
:10092000004870470F5300002DE9FF4183880B708A
:1009300083881B0A4B70054680680C4604F08CFBCC
:1009400004AB064643F80C0D1868C4F80200A96809
:100950003246A01D00F00EFFE86804F07DFB04ABFA
:1009600006F1060843F8080D0746186844F8080021
:100970000A36E9683A46A01900F0FCFE286904F03E
:100980006BFB04AB3E4443F8040D07461868A051C6
:100990000436A0193A46296900F0ECFEF0196B699B
:1009A000235404441A0A627004301A0C1B0EA270FD
:1009B000E37004B0BDE8F0817FB50A788280034619
:1009C000487842EA00229A80D1F80200019001980A
:1009D0008A1D841D551AA54204D212F8015B02F843
:1009E000025CF7E70844002242714A1D9A600859E8
:1009F0000290201D029C02460444A24205D28D189A
:100A00008E5C05F8016C0132F7E70A1901380844D9
:100A1000002502F8015CD860106803900398043444
:100A200020442246824205D28D188E5C05F8016C66
:100A30000132F7E70A18013C0C44002502F8015C7A
:100A40001C6195785478D2782D0445EA04250C5C15
:100A500045EA040141EA026204305A6104B070BD03
:100A600073B503790B70054680680E4604F0F4FAFE
:100A700002AB044643F8040D1868C6F80100A968E3
:100A8000701D224600F076FE601D02B070BD37B5C5
:100A90000B46024613F8010B107118680190019C77
:100AA0004B1D601D5D1A854204D213F8015B03F8EB
:100AB000025CF7E70C44002304312371916003B01A
:100AC00030BD2DE9F74303790B70002305460C4632
:100AD0004B708B70CB700A1D28795E1CDBB298427C
:100AE000C4EB020102F104020FD9E96851F8233086
:100AF00002F8043C190A02F8031C190C1B0E02F838
:100B0000013C02F8021C3346E6E72B7C6354631871
:100B100000225A709A70DA700B1D2344297C501CF5
:100B2000D2B29142C4EB030603F104030FD9A969C1
:100B300051F8222003F8042C110A03F8031C110CAD
:100B4000120E03F8012C03F8021C0246E6E72B7F85
:100B5000A355A2190023537093700436D3702A7FD3
:100B60005FFA83F8424503F1010915D96B6A53F81E
:100B7000280004F071FA02AB074643F8040D186828
:100B8000A0516B6A0436A01953F828103A4600F0B9
:100B9000F1FD3E444B46E2E7304603B0BDE8F0834A
:100BA000F7B50E780379B34204460D4604D2C06807
:100BB000B10004F037FAE06026712A1D0021237984
:100BC000481CC9B28B42C5EB020702F1040214D9DA
:100BD00012F8023C12F8036C1B0443EA062312F8D5
:100BE000046C334312F8016C43EA0663A360E368C4
:100BF000A66843F821600146E1E7EE5D237CB3423D
:100C000004D2A069B10004F00DFAA0613B1D267466
:100C10002B440022217C501CD2B29142C5EB030729
:100C200003F1040314D913F8021C13F8036C09042C
:100C300041EA062113F8046C314313F8016C41EAD0
:100C400006616161A169666941F822600246E1E7D7
:100C5000EE5D237FB34204D2606AB10004F0E2F992
:100C600060623B1D26770022217FD6B2B1421CD99B
:100C7000E85801900199181D014403468B4206D2A1
:100C8000EF1815F803C007F801CC0133F6E76B182D
:100C90000027013803F8017C284420620B46616A72
:100CA000206A41F826000132DEE7184603B0F0BDA5
:100CB00038B50D4BD3E904450022204629460023D0
:100CC00003F094FD18B1094B1A68013209E020467F
:100CD00029460022002303F06BFD18B1034B1A686C
:100CE000013A1A6038BD00BFD88AFF1FF890FF1F75
:100CF00038B50D4BD3E90445002220462946002390
:100D000003F074FD18B1094B1A68013209E020465E
:100D100029460022002303F04BFD18B1034B1A684B
:100D2000013A1A6038BD00BFA890FF1FC88AFF1F94
:100D3000054B036000220023C0E90223C0E904231D
:100D4000C0E90623704700BF48510000FFFFFFFFC6
:100D5000F8B5234B0022D3E90001224B03F0B6FA89
:100D600019A3D3E9002303F0DBFB1F4B04460D4618
:100D70000022D3E900011B4B03F0A8FA14A3D3E926
:100D8000002303F0A3FA10A3D3E9002303F0C8FB68
:100D900006460F4632463B462046294603F0E2F817
:100DA000124B3246C3E902013B462046294603F076
:100DB000DBF809A3D3E9002303F088FA0C4BC3E95D
:100DC0000201F8BDAFF30080000000802F1BC43F7C
:100DD000000000400AD7C33F000000606666F23F93
:100DE0006090FF1F00004E40D08AFF1FD88AFF1F6F
:100DF000A890FF1FAFF3008038B50D4D0D4B0E4C82
:100E00001968284603F008FF0C4B2046196803F0C8
:100E100003FF284603F03CFF204603F039FF284635
:100E200003F0DAFF2046BDE8384003F0D5BF00BF2D
:100E3000D88AFF1FF890FF1FA890FF1FC88AFF1FC6
:100E40000B490C480022002310B5C1E900230A49D0
:100E50000A4CC1E90023002101600948A161016039
:100E60000848C4E908238161C0E9082310BD00BF18
:100E70006090FF1FF890FF1FD08AFF1FD88AFF1FC6
:100E8000C88AFF1FA890FF1F274B2DE9F041D3E927
:100E90000045264BDFF8A480D3E9006720463246A0
:100EA0003B46294603F060F80022214B03F00EFA7E
:100EB0000022204B03F034FB17A3D3E9002303F0F7
:100EC00005FA03F09DFC2246C8F804002B46304684
:100ED000394603F047F80022154B03F0F7F90022DA
:100EE000144B03F01DFB0CA3D3E9002303F0EEF930
:100EF0000BA3D3E9002303F013FB03F081FC0E4B9B
:100F0000C8F80C00D8689968026814684246A0477F
:100F1000BDE8F081AFF30080000000802F1BC43FCC
:100F2000000000400AD7C33FD88AFF1FA890FF1FC8
:100F30000000E03F00004E402091FF1F5C91FF1F2A
:100F40001FB5094B019300230293039303680A2101
:100F50001B6801AA04469847044B1B680093009B3A
:100F6000E36004B010BD00BFD05000007C91FF1FB3
:100F7000F0B587B02C4B009300222C4BADF8042029
:100F80000446029303930493059200F16406054618
:100F9000D5F81834DBB158689A68ADF804201A689F
:100FA000036802929B689847D5F8183403905868F4
:100FB0000368DB6898474FF4007322680593D5F8FF
:100FC000183404901768196920466A46B8470435F2
:100FD000B542DDD12546D5F87C04E0B14368ADF8D3
:100FE00004308368029303689B6898470390D5F8A0
:100FF0007C040368DB6898474FF400730490059302
:10100000D5F87C0423681F6803685B6898476A46C4
:1010100001462046B8470435B542DCD1012384F8A7
:10102000F43407B0F0BD00BFE85000009A53000050
:10103000F0B587B01C4D1D4B03930023049305931B
:101040002B680093009EC368044603A8F61AFFF7B6
:101050001DFA4FF47A73049F0599B6FBF3F2174417
:1010600003FB1266124A049702FB061629680191D7
:1010700001980596B0FBF3F103FB11036FEA010E33
:101080000C4902FB1312774416442761666104F190
:10109000100004F1140103F09BFD2B680293029BE6
:1010A000C4F8FC3407B0F0BD7C91FF1FD0500000A5
:1010B00040420F0000CA9A3B73B5794E33680093E3
:1010C000009DD0F8FC3442F6F822EB1A934284BF1C
:1010D000002380F8F434D0F8E034044633B1D0F87B
:1010E00000359D4202D90023C4F8E03460680368EB
:1010F000DB6898470028C0F2C180D4F8F024D4F807
:10110000E0340244072BC4F8F0240CD1D4F8EC34BA
:101110005A1C2344C4F8EC241876D4F8E434013B78
:10112000C4F8E4345EE0A3B9FF2807D10123C4F872
:10113000E03405F11403C4F80035D7E732680192B2
:10114000019A521B052AD1D984F8F4346FF00100BA
:10115000A4E0012B0ED1FE2801D10223C4E7002315
:10116000C4F8E03494F8F434002BBFD12046FFF7E4
:10117000E7FEBBE7022B06D10023C4F8EC34C4F829
:10118000E40403231CE0032B07D1D4F8E43403EB7D
:101190000020C4F8E4040423A6E7042B0BD1414B40
:1011A0001340002B03DA013B63F0FF030133FF2BF5
:1011B00099D1052398E7052B07D1C4F8E804062345
:1011C000C4F8E034C4F8F00490E7062B0ED1D4F84C
:1011D000E83403EB00200723C4F8E034D4F8E43407
:1011E000C4F8E804002B81D108237DE7082B7FF4A5
:1011F0007DAF0023C4F8E0342A4B1340002B03DA00
:10120000013B63F0FF030133FF2B7FF46FAFD4F892
:10121000E83463B92046FFF793FE2046FFF7A8FEA7
:10122000C4F8F854C4F8FC544FF0FF3036E00A2BF1
:1012300005D1204604F11801FFF7FAFE56E7062B08
:1012400009D104F5A16004F11801FFF7A9FC0123FD
:1012500084F804354AE70B2B03D1002384F8F434D7
:1012600044E704EB8303D3F8EC0200283FF43EAFDD
:10127000036804F118011B68984737E794F8F404F1
:1012800060B1D4F8F83440F6C412EB1A934204D992
:101290002046FFF755FEC4F8F854002002B070BD98
:1012A0007C91FF1FFF00008030B5184C184D23685B
:1012B00087B00193019A2B68D31AC72B07D9FFF780
:1012C00047FDFFF799FD23680293029B2B6023687B
:1012D0000393104B039A1B68D31AB3F5C87F01D34D
:1012E000FFF7AEFD23680C4C0493049A2368D31ACD
:1012F000632B06D9FFF7C8FD044B1B680593059BBC
:1013000023600648FFF7D8FE07B030BD7C91FF1F71
:101310005891FF1F288BFF1FCC8AFF1F2C8BFF1FAC
:101320001FB5064B019303688DF8081003921B68E4
:10133000072101AA984705B05DF804FB00510000A1
:1013400063292DE9F04104460D4603DD90F8F4646D
:10135000002E48D0136810461B6804F21F219847DE
:10136000FF2283B284F81822FE22C0B284F8192228
:101370001A0A84F81B220244D24384F81D5245F312
:10138000072584F81C2284F81A0284F81E520522CC
:101390000021981D904205DBA018013290F8180238
:1013A0000144F6E703F108070733BFB214FA83F3E9
:1013B000C943B7F5007F83F818120DD804F50678F5
:1013C0003E460025BD420EDA606818F80510036835
:1013D0001B6898470135F5E720460321034AFFF7CC
:1013E0009FFF4FF0FF363046BDE8F08162530000AA
:1013F00010B50C20002100F071FB0B20002100F043
:101400006DFB0C20022100F069FB0B200221334C04
:1014100000F064FB0C203249032200F0C7FA0322DB
:101420000B20304900F0C2FA6068A16803689B692C
:10143000984700234FF46142C4F8E034C4F8E43420
:10144000C4F8EC34C4F8E834A26004EB8302D2F8A8
:101450007C2442B92149244A01EB83016433C1F859
:101460007C24536002E00133192BEED1002304EBFE
:101470008302D2F87C2442B918491C4A01EB83014B
:101480006433C1F87C24536002E00133192BEED1A0
:10149000002304EB83021149D2F8182442B9144AFC
:1014A00003F583707D3341F820209360D16002E022
:1014B0000133192BEDD194F8F434084813B9FFF730
:1014C000FBFDF8E701210B4AFFF72AFF0A4803F06A
:1014D000B3FA0520BDE8104000F042BC2C8BFF1F82
:1014E000B10C0000F10C00003491FF1F688AFF1F4F
:1014F0002091FF1F9B5300008094FF1F38B53D488B
:10150000FFF716FC3C48FFF713FC3C48FFF710FCC4
:1015100017210E220F233A4803F068FB16211022F0
:101520001123384803F062FB374B384A1A60384AB7
:101530005A604FF461429A603649C3F80815002298
:1015400083F8F42483F80C25C3F8142583F81825B0
:10155000C3F8202583F82425C3F82C2598180432D5
:101560000021642AC0F81814F8D10A4698180432E9
:101570000021642AC0F87C14F8D1581801310022E7
:10158000B1F5007F0276F8D1991801320025B2F545
:10159000007F81F81852F7D11F4C204B2360204B5D
:1015A000236104F11800FFF7C3FB04F13800FFF7D3
:1015B000BFFB1C4BA3651C4BA3601C4B1C4A1A6051
:1015C00001211C4ADA6019620022E1651A481B49B0
:1015D00099601A615A619A61D861194B1949196069
:1015E0005A609A60DA601849184A82E80A00156160
:1015F00038BD00BF0091FF1F6890FF1F8890FF1F3C
:10160000D88AFF1FA890FF1F2C8BFF1F905100004E
:101610006C91FF1F18510000688AFF1FA85100003D
:101620006051000095080000D35300003491FF1F63
:10163000C05100007851000075080000DB53000025
:101640005C91FF1F30510000DF5300002091FF1F0D
:1016500008B50368C9B21B68984708BD08B5036898
:10166000C9B21B68984708BD08B50368C9B21B68B2
:10167000984708BD08B50368C9B21B68984708BDFC
:10168000034800EB5100B0FBF1F000F0CFBB00BF0E
:101690000044950810B5064800EB51001446B0FB15
:1016A000F1F000F0C3FB2046BDE8104000F022BC82
:1016B0000044950800F048BC084600F079BC084694
:1016C00000F0C8BC0846114600F08EBC08B50846BC
:1016D00000F0E6FC003018BF012008BD08B5084640
:1016E00000F000FD003018BF012008BD00F0E4BD8F
:1016F00000F01CBE00F0F0BD00F0C2BD00F02EBE38
:1017000000F0C8BD08B5084600F012FD012008BD74
:1017100008B5084600F00CFD012008BD10B50846CC
:101720001446114600F04EFD204610BD38B508465F
:101730000D4603F091FC04462146284600F042FD88
:10174000204638BD7047FFFF044B00221A714FF44A
:101750007A711A73024A99601A6070476C91FF1F80
:101760001054000008B5FFF743FEFFF79DFD01F0A0
:1017700013FCFAE7844641EA000313F003036DD13A
:10178000403A41D351F8043B40F8043B51F8043B44
:1017900040F8043B51F8043B40F8043B51F8043B4B
:1017A00040F8043B51F8043B40F8043B51F8043B3B
:1017B00040F8043B51F8043B40F8043B51F8043B2B
:1017C00040F8043B51F8043B40F8043B51F8043B1B
:1017D00040F8043B51F8043B40F8043B51F8043B0B
:1017E00040F8043B51F8043B40F8043B51F8043BFB
:1017F00040F8043B51F8043B40F8043B51F8043BEB
:1018000040F8043B403ABDD2303211D351F8043B8A
:1018100040F8043B51F8043B40F8043B51F8043BCA
:1018200040F8043B51F8043B40F8043B103AEDD239
:101830000C3205D351F8043B40F8043B043AF9D28A
:10184000043208D0D2071CBF11F8013B00F8013B5D
:1018500001D30B8803806046704700BF082A13D36A
:101860008B078DD010F003038AD0C3F10403D21A82
:10187000DB071CBF11F8013B00F8013B80D331F8B6
:10188000023B20F8023B7BE7043AD9D3013A11F836
:10189000013B00F8013BF9D20B7803704B784370A1
:1018A0008B78837060467047024B1A6801321A6069
:1018B000704700BF7C91FF1F08B50B4C236858038D
:1018C00001D500F0BDFE2368590501D500F06AFD81
:1018D00023681A0501D501F0E3FF2368DB04ECD58A
:1018E00002F05EFAE9E700BF3480044008B5FFF774
:1018F000E3FFFFFF014B10221A80704700200540D4
:101900007047FFFF024A136818441060184670477A
:101910005088FF1FEFF313839BB9EFF3108098B942
:10192000EFF3058323B10F2B04D9084A985C01E03B
:101930004FF48070EFF311833BB1834238BF1846F8
:1019400070474FF0FF30704718467047F0E300E0F3
:101950007047FFFF00F14040A0F592237C2B14D983
:10196000A0F594237C2B12D9A0F596237C2B10D9BB
:10197000A0F598237C2B06D9A0F59A207D2806484F
:1019800028BF002070470548704705487047054844
:1019900070470548704700BF2C89FF1F0C89FF1F47
:1019A0005488FF1F8C88FF1FDC88FF1F212870B51B
:1019B0000D4636D8042A34D8DFE802F00709050BB3
:1019C00003000B2306E00A2304E0082302E00C23B3
:1019D00000E009231E04134B134A03EBC000134B12
:1019E0004468C3F89C21124AC3F8A021114AC3F8E5
:1019F000A421114AC3F8A8212046104AC3F8AC21FB
:101A0000FFF7A8FF68B172B6226822F47022226044
:101A1000C4F3840342F08072164340F823502660DA
:101A200062B670BD685400001188FF1F0082FF1F5E
:101A3000E587FF1FB987FF1F8D87FF1F6187FF1F86
:101A40000C4B03EBC00010B544682046FFF782FF43
:101A500070B172B6236823F0877323F4803343F0A8
:101A600080732360C4F38404034B40F8243062B6CF
:101A700010BD00BF6854000051190000044B054917
:101A800000221A600A60044A106010221A6070472F
:101A900014D0034004D0034000D00340212810B5E7
:101AA00018D80D4A52F8303093F880423CB10122E8
:101AB00011B183F8802010BD83F8002110BD02EB26
:101AC000C00043681A6811B142F0030201E022F03D
:101AD00002021A6010BD00BF68540000212810B532
:101AE00037D81C4A02EBC00301295B68144601D0B9
:101AF00004290FD154F83020012082F880024FF4DD
:101B0000A2721A601A6804290CBF42F0200222F067
:101B100020021DE052F83020002082F8800211B12E
:101B20008A1E012A12D84FF4807202291A6003D14A
:101B30001A6842F003020BE003290AD11A6842F046
:101B400002021A601A6822F0010201E040F2031258
:101B50001A6010BD68540000282838B5604A044651
:101B60000B4611D112780B2A04D8C2F10C0201FAEB
:101B700002F304E00C2A1CBF0C3A41FA02F31846A7
:101B8000BDE8384001F098BB11780125002B05FA1B
:101B900001F2D8BF002102DD934205D32946FFF7A9
:101BA0007DFF2046294697E00338C2B2012A01D8BA
:101BB0004C4A06E0202C01D0192C01D14A4A00E001
:101BC0004A4A126802FB0332CA401D287BD8DFE86C
:101BD00000F0575F4E337A7A212A7A7A7A7A7A7AC3
:101BE0007A7A7A3C450F187A707A7A7A7A7A7A67B2
:101BF0003F4B1A6003F5973340F2444203F5FA7302
:101C00005FE03C4B1A6003F5973340F2444203F522
:101C1000F87356E0384B1A6003F5973340F24442AC
:101C200003F5F6734DE0354B1A6003F5973340F238
:101C3000444203F5F47344E0314B1A6003F59F33DB
:101C400040F2444203F5F0733BE02E4B1A6003F57B
:101C50009F3340F2444203F5EE7332E02A4B1A60A0
:101C600003F59F3340F2444203F5EC7329E0274B20
:101C70001A6003F59F3340F2444203F5EA7320E013
:101C8000234B1A6003F580334FF45172203318E070
:101C9000204B1A6003F580334FF451721C3310E06F
:101CA0001D4B1A60A3F5DB234FF45172A3F5F963C2
:101CB00007E01A4B1A60A3F5DB234FF45172A3F22D
:101CC000CC731A6038BD7F2B2046D4BF0021012180
:101CD000FFF7E4FE20460121BDE83840FFF7FEBED5
:101CE0003489FF1F0890034008800B4008800340A0
:101CF0001080034018800340208003402880034068
:101D000030800340388003404080034048800340D7
:101D1000109003401890034010800B4018800B4037
:101D200072B60C4B0C491A680C4B1B68096862B6FA
:101D3000490102D5322A88BF0133C2F58C324821CD
:101D400002F23F12B2FBF1F24FF47A7000FB032073
:101D5000704700BF18E000E004ED00E07C91FF1F39
:101D600038B50446FFF7DCFF054624B938BD013C11
:101D70000AD005F57A75FFF7D3FF401BB0F57A7FDF
:101D8000F5D201F009F9F6E738BDFFFF204B4FF41B
:101D9000000210B51A604FF080721A604FF00072A6
:101DA0001A604FF080621A604FF000621A60194B9F
:101DB000194A1A4C002048F6FF7118605960282310
:101DC000136093601361936113629362136393636F
:101DD0000922226004F58054043420606160A3600D
:101DE000236144F8042C04F5FE2420600C480160B3
:101DF0000C490B608B600C4B1A6001F001FA4FF438
:101E0000C870FFF7ADFFBDE8104000F017BF00BF7E
:101E100008E100E0048003400C80034000800340A0
:101E200008800B400C800B4000800B40234B1A684D
:101E300042F480621A60224A00231370214A137010
:101E4000214A1370214A1370214A1370214B1B78C9
:101E50002BB1152B07D140F213321F4B02E01F4B61
:101E600040F213321A601E4B1B78012B05D0052B54
:101E700007D14FF451721B4B02E01B4B4FF45172D0
:101E80001A601A4BC0F344321A70C0F347125A70EA
:101E90000221042200F01F0098729A70D9745A75BA
:101EA00088221A743C22DA70114B40226FF44A7176
:101EB0001A700B444FF400521A607047348004408B
:101EC0000792FF1F8591FF1F1092FF1F0892FF1FAF
:101ED0008491FF1FC691FF1F18C0044040A004401A
:101EE0003589FF1F1CC0044044A0044000A00640E8
:101EF0002DE400E0134A937800F0030103F0EC03B3
:101F00000B43410748BF43F01003937000F00F03E9
:101F1000042B0C4903D18B7943F040038B71537927
:101F2000C20603F0EF03074A48BF43F010035371A2
:101F30009379810603F0EF0348BF43F010039371D8
:101F4000704700BF00A0064008B5114B1B685B0539
:101F500000D408BD0F4B1A7802F0FF0312B101F054
:101F60001BF8F7E70C4A4FF4005111600B4A0C497B
:101F7000D37040F203120A604A600A4A13700A4A98
:101F800013700A4B1B680BB101221A7008BD00BF09
:101F9000348004408491FF1F84E100E000A00640EB
:101FA00040A004400792FF1F8591FF1F8091FF1FF3
:101FB00038B50446094B1B7803F0FF05002BF9D117
:101FC00020460121FFF78AFD20462946FFF766FDDE
:101FD000034B53F83420034B1A6038BD8491FF1F24
:101FE000685400000C92FF1F10B509B140F080004A
:101FF000144A13789842144622D0134A12685205A4
:102000001DD503F07F03012B04D0052B05D1002241
:102010000E4B01E00E4B00221A60002900F07F02F7
:102020000CBF44236023012A05D0052A07D143F4BD
:102030004073064A02E0064A43F44073136020707E
:1020400010BD00BF3589FF1F348004401CC0044010
:1020500044A004400E4A1378984218D00D490968EC
:10206000490513D52BB1152B05D10B4B0021196058
:1020700001E00A490B6028B1152807D140F213315D
:10208000054B02E0054B40F21331196010707047A8
:10209000C691FF1F3480044018C0044040A0044093
:1020A0000D4A38B5146814F480624FF0000410D063
:1020B00021280A4D0AD80A4A012152F830302B60F3
:1020C000FFF70CFD2B681C70012038BD2C602046EA
:1020D00038BD104638BD00BF348004408091FF1FDA
:1020E000685400000E4B1B6813F4806316D012284E
:1020F0000C4B03D140F202310B4A04E0142809D101
:102100000A4A40F2023111605A7B42F001025A73CE
:10211000012070475A7B02F0FE025A73002070477C
:102120003480044000A006400CA0044014C00440C9
:10213000F8B51D4B1B685A05064633D51B4B1B686B
:102140000BB101221A701A4B1C780134402C1F4627
:1021500028BF0024174D2B78A34218D1FFF7DAFBD4
:1021600040280FDC144A13791B06F3D52B7813494A
:102170000133402B28BF0023C95CDBB2C9B2D17147
:102180002B70E7E7FF28E5DD00F006FFE2E70B4BE9
:10219000F6B21E550A4B01221A70074BE4B2BC225C
:1021A0003C70DA70F8BD00BF348004400C92FF1F11
:1021B0001092FF1F0892FF1F00A006408691FF1F8C
:1021C0008491FF1F274B1B685A052DE9F0470746EE
:1021D0008A4644D5244B1B680BB101221A703D4638
:1021E00007EB0A039D4237D2DFF890801F4E98F824
:1021F000004096F800900134402C28BF00245FFA7C
:1022000089F9A1451DD11A4BBC22DA70FFF782FB78
:1022100040280FDC164A13791B060FD53378154971
:102220000133402B28BF0023C95CDBB2C9B2D17196
:10223000337003E0FF2801DD00F0AEFE33784B453C
:10224000E4D00C4B15F8012B1A550B4B0122E4B2CC
:102250001A7088F80040C3E7054BBC22DA70BDE86D
:10226000F08700BF348004400C92FF1F0892FF1FCC
:1022700000A006408691FF1F8491FF1F1092FF1F50
:1022800008B5034B1B7813B100F086FEF9E708BDD3
:102290008491FF1F064A074B1B781078DBB2C0B24F
:1022A00083422CBF3F3000F1FF30C01A704700BF9F
:1022B0000892FF1F1092FF1F054B1878054B1B78E3
:1022C000C0B2DBB2984238BF4030C01A704700BF7E
:1022D0000792FF1F8591FF1F10B5104B10491A7808
:1022E0000B78D2B2DBB29A4214D00133402B28BF14
:1022F00000230C48DCB2C05C0C700B490968C0B20A
:1023000051B19A4238BF4032D31A1A2B04DC002351
:102310000B7010BD4FF0FF3010BD00BF0792FF1FC4
:102320008591FF1FC791FF1F8091FF1F084B1A78EF
:10233000084B1B78DBB29A4207D00133402B28BFF1
:102340000023054AD05CC0B270474FF0FF307047A1
:102350000792FF1F8591FF1FC791FF1F0C4B1B6842
:102360005B0514D50B4BDA7802F0CB02DA70402211
:102370005A74DA7842F03402DA70074B1A78074B55
:10238000D2B21A70064B1B680BB100221A7070474C
:102390003480044000A006408591FF1F0792FF1F74
:1023A0008091FF1F30B5374B1A7912F0300F31D0C2
:1023B00072B69A7D02F0FF0022B9DA7940225A748F
:1023C00062B627E062B6304A304913780978DBB24A
:1023D000C9B214462B4AD5795A1C402A28BF00227C
:1023E0008A42EDB202D02A4B9D541346421E12F08F
:1023F000FF00EFD1DAB22270264A126852B18B4246
:1024000036BFC1F14001C1EB03035B18272BC4BFEA
:10241000012313701B4BD978C9B20C0620D51B7948
:1024200018061DD51C4B1D4A1D781378EDB2DBB282
:102430001046AB420CD0134A0133402B1479184C90
:1024400028BF0023E45CE4B2D471127D072AF0D9DE
:10245000DBB203700B4B1A79120644BF7C22DA7090
:102460004B060ED5074B1A7912F0400F194608D0CB
:102470000C4B00221A700C4B1B6803B11A703C23E2
:10248000CB7030BD00A006400792FF1F8591FF1F53
:10249000C791FF1F8091FF1F1092FF1F0892FF1F1F
:1024A0008691FF1F8491FF1F0C92FF1FF0B50C4B0C
:1024B0000C4C1A7842F0020504EBC50682F00102CA
:1024C000706009481A700678002E0CBF8827C8274C
:1024D00086F0010647EA0141067044F83510F0BD68
:1024E0007C92FF1F0080FF1FF492FF1F431E032BEF
:1024F00010B510D872B6094A52F8230048B14168A5
:1025000042F82310064A018832F81340611A22F873
:10251000131062B610BD002010BD00BF6C92FF1FEB
:10252000A094FF1F013803280AD872B6054B53F850
:102530002030002013B101305B68FBE762B67047C2
:1025400000207047C092FF1F10B572B60123174AD2
:102550001A4412F8012C12071CD59900144A52F89B
:1025600031402CB902EB431308305860114B09E09D
:1025700041F0010152F8314064B902EBC103083067
:1025800058600D4B42F831300C4B1A78013A1A70F2
:1025900062B610BD0133052BD9D162B6074B0022BC
:1025A0001A70BDE8104000F0A7BB00BF385600000D
:1025B0000080FF1F88004000C8004000EA92FF1F13
:1025C000431E032B30B532D8194A400140F01000A9
:1025D000104472B6174CE25C032A09D8DFE802F017
:1025E000160218050830022213E00830042210E019
:1025F0001148124A50F8234014B940F8231002E061
:1026000052F82300416042F823100FE0032200E05B
:102610000522E25410F0080F01F108030A88436014
:102620000CBF8823C82343EA0243036062B630BD6F
:102630000080FF1F2892FF1FC092FF1FD092FF1F34
:102640002DE9F84FAB4F3C78E4B214F0040F3D464F
:1026500019D0A94B1B78A3B1A84A117801F0FF0348
:1026600021B1013BDBB2137003B900BEA44A11785B
:1026700001F0FF0329B1013BDBB213700BB900F08D
:1026800067FC04233B7004F0080303F0FF02002BF7
:1026900000F067829B4B9C4C1A78D2B215094FEA26
:1026A000920840F0E48104EBC803596854F83830CC
:1026B000C3F38303013B0C2B00F2D681DFE813F058
:1026C00095019501D401D401D401D401D401D401E0
:1026D000B001D401D401D4010D008C4D0A684B68BF
:1026E0008B486B6001218B4B44F838302A60DFF84F
:1026F0005082017092B240F2816000238242C8F899
:1027000000302361A36117D8B2F5D06F80F01E812D
:10271000B2F5817F00F0CF8006D8802A00F0BA8021
:10272000822A00F0BB8031E140F202339A4200F08D
:10273000D180B2F5A06F1CE042F22100824200F08D
:1027400051810ED8B2F5086F00F09E80B2F5106F7F
:1027500040F01C81684B6C4EAA781A7006F1800913
:102760000AE042F221218A4200F0088142F221333C
:102770009A4200F00F8109E1336A1B0603D5706AA3
:10278000083800F0B9FA08364E45F5D10026B146B2
:10279000DFF8B0A156F80A0028B1D0F804B000F074
:1027A000ABFA5846F8E74AF806005B4BDFF898A109
:1027B000F05056F80A0028B1D0F804B000F09CFAA6
:1027C0005846F8E7554B4AF80600F050544B23F8AA
:1027D0001900544B19F80320023A032A08D8DFE8FD
:1027E00002F002040204002200E0012203F80920A2
:1027F00009F10109B9F1040F06F10406C8D14A4BE9
:1028000000221A7001269A46484A494B3244334402
:1028100012F8012C9B0012F0080F1A704FEA86097B
:1028200025D000F04BFA38B104EB4613083058605D
:10283000404B44F8393006E09AF8003044F839004B
:1028400001338AF8003000F039FA49F0010338B159
:1028500004EBC302083050602E4A44F8332006E0EF
:1028600044F833009AF8003001338AF8003049F018
:102870000202013649F003090023052E44F83230E4
:1028800044F83930C0D186E01B4B2B4C1B782370A9
:102890000B4683E0284C237063707EE0AA88042AEC
:1028A00074D8254C920023706370244B9B5C9E0768
:1028B00073D5217071E0AA8802F07F02042A65DCDA
:1028C0006B88002B62D191001C4A0A44117821F0D8
:1028D000020159E0AA8802F07F02042A56DC6B88C4
:1028E000002B53D19100154A0A44117841F002019E
:1028F0004AE000BF80200740F392FF1F7D92FF1F38
:10290000F592FF1F902007400080FF1FE092FF1FFD
:10291000F492FF1FC80040001892FF1FD092FF1FC3
:10292000A094FF1F2892FF1FEA92FF1F3856000055
:1029300030C8011088004000EB92FF1FC020074004
:102940001492FF1F6C92FF1FC092FF1F6A88A98814
:102950009F4B53F8084CA3F10C00BCB133F80C6C3E
:10296000964209D133F80A6C8E4205D1120A032A25
:102970000CBF2378038911E00C33EAE7954A11680C
:10298000954A1160A978954A117004E0944B0F2282
:102990001A7027E000231C4600E00223EE88B342B1
:1029A00038BF1E46402E34BF3546402520462946B6
:1029B000FFF77CFD761B2C4403D1402D12D1354608
:1029C00003E0402E34BF3546402520462946FFF718
:1029D0006DFD761B2C4401D1402D03D1814AC8F8EE
:1029E000004016800122804B3DE0804B1A8842F265
:1029F00021039A4210D100237D4AC85C98540133C8
:102A0000072BF9D11368862B02D17A4B0F221A704B
:102A100000200146FFF74AFD774B44F8383023E0A9
:102A2000764E3568B5B1DFF8BC81B8F80090B9F1E1
:102A3000400F34BF4C46402428462146FFF736FD60
:102A4000C4EB09039BB2A8F800300BB9402C00D1AD
:102A50002B193360654B1A88B2F5A06F04D10022A0
:102A60005A709A78664B1A7001225F4B6CE004EB47
:102A7000C806013D736802F00802A3F10800EDB238
:102A800002F0FF01002A36D000F036F95D485E4BB7
:102A900050F82520EAB1516840F8251002F10801EC
:102AA0007160595D03290BD8DFE801F002040608C4
:102AB000032104E0022102E0052100E00421595530
:102AC00016F0080F12880CBF8823C82343EA02437C
:102AD00042E05A5D032A07D8DFE802F040400204D2
:102AE000002206E0012204E016F0080F0CBF0222CB
:102AF00003225A5532E054F83820120C23F8082CDF
:102B000022B3DFF834E123F8061C43F8041C5EF816
:102B100025303E4913B94EF8250002E051F8253022
:102B200058603B4B41F8250033F815100A4423F850
:102B3000152000F0C3F810B10830706006E0354B86
:102B400044F838001A7801321A7007E02A4B324AEA
:102B500016F0080F08BF134644F8383008233B70BE
:102B600070E5E0071FD520492B482C4C02230B7041
:102B70002B4B1A702B4B186098602B48D8601A6149
:102B80009A615C60164B0D2018702848FF23037073
:102B90002B700274264A1370264B9F221A70012351
:102BA0000B70BDE8F88F210604D50D4B0D221A706D
:102BB00080232B70A20705D51C4B1A78D2B21A704D
:102BC00002232B70E30644BF10232B70BDE8F88F5F
:102BD000485600007C91FF1FB094FF1F0493FF1F15
:102BE000C0200740E892FF1F94200740E092FF1F9B
:102BF000A894FF1F7D92FF1FC80040001492FF1F82
:102C000098200740C092FF1F2892FF1F1892FF1FB5
:102C1000A094FF1FEA92FF1F880040002C92FF1F24
:102C20007C92FF1F0080FF1F8092FF1F88200740BB
:102C30008C200740842007406C92FF1F08B501F0EC
:102C400017F900221A4B0021D15098180832882A0F
:102C50004160F7D1174A106840F48020106002F5F7
:102C600028326832C3F307201070C3F307401B0EED
:102C700010751376FF2302F81C3C02F8143C02F88E
:102C80008C3C012302F8083C82F8641002F8183CDE
:102C9000094B70226FF450711A700B444FF400729C
:102CA0001A6003F1C04303F5C82310221A7008BD4F
:102CB0000080FF1F3480044049E400E072B60C4AF3
:102CC0001168B1FA81F30B2B02D962B6002070476C
:102CD0004FF00040D84021EA0001116062B605497A
:102CE00048225343C8180022CA504260704700BFB0
:102CF0003889FF1F0084FF1F0C4B4822C31AB3FB07
:102D0000F2F30B2B11D80A4A127822B1094A127831
:102D10000AB1FFF719BC72B6074A4FF0004121FA19
:102D200003F311681943116062B670470084FF1FF6
:102D3000EA92FF1FF392FF1F3889FF1F10B5104C56
:102D400023686BB120684288531C0244147A0288BD
:102D5000934212D3FFF7D0FF094B00221A600DE017
:102D6000084B1B7813B94FF0FF3010BD0320FFF75D
:102D7000BDFB20600028E5D1F5E74380204610BD6B
:102D80000093FF1FF392FF1F10B50B4C236813B184
:102D900023686BB902E0094B1B7813B94FF0FF3081
:102DA00010BD0320FFF7A2FB20600028F0D1F5E75B
:102DB0005A881344187A10BD0093FF1FF392FF1F27
:102DC000044B9888044B1B681BB11A885B88D31A84
:102DD00018447047A094FF1F0093FF1F10B5094BC4
:102DE0001B786BB1084C206818B1FFF785FF0023F2
:102DF00023600320FFF77AFB10B1FFF77DFFF8E7B0
:102E000010BD00BFF392FF1F0093FF1F2DE9F84391
:102E10002D4E012307460C463370002C4FD02B4D0E
:102E20002B68A9462BBB48F60148294B1B7803F0B9
:102E3000FF020BB9327015E00420FFF773FB07287F
:102E400008D801233370FFF739FFC9F8000080B9B3
:102E50001D4B1870B8F101081E4B01D01A782AB129
:102E600001221A704FF0FF30BDE8F88300F094F8AB
:102E7000DBE72968174A488800231370C0F1400235
:102E8000944238BF224600F1080C10448C4448801C
:102E9000A41A934204D0F85C0CF803000133F8E75D
:102EA0001F444B883F2B06D940230B800420FFF79B
:102EB00087FB00232B60084B05221A70ADE73470A6
:102EC0002046BDE8F88300BFF692FF1FF892FF1F6F
:102ED000F392FF1FFC92FF1FF592FF1F07B502AB95
:102EE000012103F8010D1846FFF790FF03B05DF8CC
:102EF00004FBFFFF2DE9F041114B1B78F3B1114E9C
:102F0000114B3468114D01271F7098464CB10027B2
:102F100063882F70042023802146FFF751FB376020
:102F200009E0FFF7CBFE014620B104202C70FFF72B
:102F300047FB00E02F70002388F80030BDE8F081E7
:102F4000F392FF1FF892FF1FF692FF1FF592FF1FEB
:102F500038B50E4B1B7803F0FF05ABB90C4C21685C
:102F600031B14B880B800420FFF72AFB256038BD68
:102F7000FFF7A4FE014620B10420BDE83840FFF76A
:102F80001FBB044B01221A7038BD00BFF692FF1F11
:102F9000F892FF1FF592FF1F10B50E4C2378BBB9B6
:102FA00001232370FFF70CFF08B100F0AAFFFFF721
:102FB00083F908B1FEF7C6FB00F0FCFB08B100F096
:102FC00085F800F089FE08B100F00AF900232370AB
:102FD00010BD00BF0593FF1F08B50368C9B21B6889
:102FE000984708BD08B50368C9B21B68984708BD73
:102FF00008B50368C9B21B68984708BD08B50368DF
:10300000C9B21B68984708BD034800EB5100B0FBEC
:10301000F1F000F06BB900BF0044950810B5064808
:1030200000EB51001446B0FBF1F000F05FF92046D0
:10303000BDE8104000F0BEB90044950800F0E4B9C6
:10304000084600F039BA084600F088BA084611462A
:1030500000F04EBA08B5084600F0A8FA003018BFD4
:10306000012008BD08B5084600F0C2FA003018BFBC
:10307000012008BD00F09EBB00F0D6BB00F0AABB4B
:1030800000F07CBB00F0E8BB00F082BB08B508464E
:1030900000F0CCFA012008BD08B5084600F0C6FAD9
:1030A000012008BD10B508461446114600F008FB83
:1030B000204610BD38B508460D4601F0CDFF044648
:1030C0002146284600F0FCFA204638BD7047FFFF35
:1030D000044B00221A714FF47A711A73024A9960F4
:1030E0001A6070470893FF1F8055000008B50368F9
:1030F000C9B21B68984708BD08B50368C9B21B6808
:10310000984708BD08B50368C9B21B68984708BD51
:1031100008B50368C9B21B68984708BD034800EBAF
:103120005100B0FBF1F000F03FBC00BF00A24A0428
:1031300010B5064800EB51001446B0FBF1F000F06A
:1031400033FC2046BDE8104000F070BC00A24A04E9
:1031500000F096BC084600F0C7BC084600F008BD69
:103160000846114600F0DCBC08B5084600F002FD38
:10317000003018BF012008BD08B5084600F01CFD4E
:10318000003018BF012008BD00F0A6BD00F0DEBD74
:1031900000F0B2BD00F084BD00F0F0BD00F08ABDCB
:1031A00008B5084600F026FD012008BD08B5084610
:1031B00000F020FD012008BD10B508461446114658
:1031C00000F062FD204610BD38B508460D4601F0FE
:1031D00043FF04462146284600F056FD204638BDF0
:1031E0007047FFFF044B00221A714FF47A711A7373
:1031F000024A99601A6070471893FF1FE05500005B
:1032000010B5204B2048214960221A70E1225A70E3
:103210001F4B204A1C78204B082C01D1012402E0CE
:103220000A2C03D119240460132005E00C2C0CBFD8
:1032300015243D2404601220086014601860174BA8
:1032400017491B78174A03B101230B601360164B13
:10325000164A1978164B012901D880210BE0042960
:1032600001D8842107E0082901D8852103E010292D
:1032700094BF86218721116019600E4B01221A70BC
:1032800010BD00BF0040074008B003400CB0034031
:103290003C89FF1F08B00B400CB00B402993FF1F67
:1032A00020B0034020B00B403D89FF1F24B00340F5
:1032B00024B00B402893FF1F084B1A6842F4805239
:1032C0001A60074B1A78074B0AB1802200E0C0222F
:1032D0001A70054B80F30C00188070472C80044056
:1032E0002993FF1F21C00C4000C00C40234B1A68DB
:1032F00042F400621A60224A00231370214A1370BC
:10330000214A1370214A1370214A1370214B1B78F4
:10331000092B05D01A2B07D140F213321E4B02E0C5
:103320001E4B40F213321A601D4B1B780A2B05D03E
:103330001F2B07D14FF451721A4B02E01A4B4FF476
:1033400051721A60194BC0F344321A70C0F347121D
:103350005A7000F01F000422022198729A70D974EA
:103360005A7588221A743C22DA70114B40221A7066
:10337000A3F22B334FF400421A60704734800440AC
:103380009A93FF1F3193FF1FA093FF1F9B93FF1F73
:103390003093FF1F3E89FF1F04D004400CB004404F
:1033A0003F89FF1F00D0044010B0044000B0064029
:1033B0002FE400E0134A937800F0030103F0EC03DC
:1033C0000B43410748BF43F01003937000F00F0315
:1033D000042B0C4903D18B7943F040038B71537953
:1033E000C20603F0EF03074A48BF43F010035371CE
:1033F0009379810603F0EF0348BF43F01003937104
:10340000704700BF00B0064008B51E4B1B681B0587
:1034100000D408BD1C4B1B7803F0FF0213B1FFF76B
:10342000BBFDF7E7194B4FF400411960184BDA70F8
:10343000184B1B78092B05D01A2B07D140F2031229
:10344000154B02E0154B40F203121A60144B1B7827
:1034500003F07F030A2B05D01F2B07D140F2031284
:10346000104B02E0104B40F203121A600F4A002387
:1034700013700F4A13700F4B1B680BB101221A70A7
:1034800008BD00BF348004403093FF1F84E100E09A
:1034900000B006403E89FF1F04D004400CB0044039
:1034A0003F89FF1F00D0044010B004409A93FF1FD3
:1034B0003193FF1F2C93FF1F38B50446094B1B782F
:1034C00003F0FF05002BF9D120460121FEF706FB92
:1034D00020462946FEF7E2FA034B53F83420034B0B
:1034E0001A6038BD3093FF1F685400009C93FF1F83
:1034F00010B509B140F08000144A13789842144680
:1035000022D0134A126812051DD503F07F030A2B3F
:1035100004D01F2B05D100220E4B01E00E4B0022E0
:103520001A60002900F07F020CBF442360230A2A9E
:1035300005D01F2A07D143F44073064A02E0064A29
:1035400043F440731360207010BD00BF3F89FF1F1C
:103550003480044000D0044010B004400F4A137877
:1035600098421AD00E490968090515D5092B04D0CF
:103570001A2B05D100210B4B01E00B4B00211960E8
:10358000092805D01A2807D140F21331054B02E073
:10359000054B40F213311960107070473E89FF1FD0
:1035A0003480044004D004400CB004400D4A38B5C7
:1035B000146814F400624FF0000410D021280A4D62
:1035C0000AD80A4A012152F830302B60FEF786FAF9
:1035D0002B681C70012038BD2C60204638BD104679
:1035E00038BD00BF348004402C93FF1F6854000096
:1035F0000B4B1B6813F4006310D01728094B09D13B
:10360000094A40F2023111605A7B42F001025A73BA
:10361000012070475A7B02F0FE025A730020704767
:103620003480044000B0064008B00440F8B51D4B9B
:103630001B681A05064633D51B4B1B680BB10122CC
:103640001A701A4B1C780134282C1F4628BF0024FE
:10365000174D2B78A34218D1FEF75CF940280FDCF8
:10366000144A13791B06F3D52B7813490133282B01
:1036700028BF0023C95CDBB2C9B2D1712B70E7E768
:10368000FF28E5DDFFF788FCE2E70B4BF6B21E559D
:103690000A4B01221A70074BE4B2BC223C70DA706C
:1036A000F8BD00BF348004409C93FF1FA093FF1F10
:1036B0009B93FF1F00B006403293FF1F3093FF1F04
:1036C000274B1B681A052DE9F04707468A4644D563
:1036D000244B1B680BB101221A703D4607EB0A030D
:1036E0009D4237D2DFF890801F4E98F8004096F840
:1036F00000900134282C28BF00245FFA89F9A145E5
:103700001DD11A4BBC22DA70FEF704F940280FDCF9
:10371000164A13791B060FD5337815490133282B28
:1037200028BF0023C95CDBB2C9B2D171337003E09A
:10373000FF2801DDFFF730FC33784B45E4D00C4B1C
:1037400015F8012B1A550B4B0122E4B21A7088F8B8
:103750000040C3E7054BBC22DA70BDE8F08700BF2C
:10376000348004409C93FF1F9B93FF1F00B00640D2
:103770003293FF1F3093FF1FA093FF1F08B5034B29
:103780001B7813B1FFF708FCF9E708BD3093FF1F62
:10379000064A074B1B781078DBB2C0B283422CBFBD
:1037A000273000F1FF30C01A704700BF9B93FF1F06
:1037B000A093FF1F054B1878054B1B78C0B2DBB2F6
:1037C000984238BF4030C01A704700BF9A93FF1F1D
:1037D0003193FF1F10B5104B10491A780B78D2B2F5
:1037E000DBB29A4214D00133402B28BF00230C488F
:1037F000DCB2C05C0C700B490968C0B251B19A428E
:1038000038BF4032D31A1A2B04DC00230B7010BDD2
:103810004FF0FF3010BD00BF9A93FF1F3193FF1F81
:103820005A93FF1F2C93FF1F084B1A78084B1B78E5
:10383000DBB29A4207D00133402B28BF0023054A50
:10384000D05CC0B270474FF0FF3070479A93FF1FB3
:103850003193FF1F5A93FF1F0C4B1B681B0514D598
:103860000B4BDA7802F0CB02DA7040225A74DA7825
:1038700042F03402DA70074B1A78074BD2B21A7052
:10388000064B1B680BB100221A707047348004404D
:1038900000B006403193FF1F9A93FF1F2C93FF1F28
:1038A00030B5374B1A7912F0300F31D072B69A7D9D
:1038B00002F0FF0022B9DA7940225A7462B627E09A
:1038C00062B6304A304913780978DBB2C9B214467F
:1038D0002B4AD5795A1C402A28BF00228A42EDB2D1
:1038E00002D02A4B9D541346421E12F0FF00EFD126
:1038F000DAB22270264A126852B18B4236BFC1F149
:103900004001C1EB03035B18272BC4BF01231370D5
:103910001B4BD978C9B20C0620D51B7918061DD5CA
:103920001C4B1D4A1D781378EDB2DBB21046AB423A
:103930000CD0134A0133282B1479184C28BF0023CC
:10394000E45CE4B2D471127D072AF0D9DBB20370D3
:103950000B4B1A79120644BF7C22DA704B060ED547
:10396000074B1A7912F0400F194608D00C4B002271
:103970001A700C4B1B6803B11A703C23CB7030BD1E
:1039800000B006409A93FF1F3193FF1F5A93FF1F09
:103990002C93FF1FA093FF1F9B93FF1F3293FF1FCA
:1039A0003093FF1F9C93FF1F174B1A6842F48052FD
:1039B0001A60164A00231370154A1370154A1370C3
:1039C000154A1370154A1370154A40F213311160ED
:1039D0004FF451715160134AC0F344311170C0F378
:1039E000471100F01F0051709072937013742C23D4
:1039F000D3700D4B40226FF44B711A700B444FF48F
:103A000000321A60704700BF348004401294FF1FD8
:103A1000A993FF1F1894FF1F1394FF1FA893FF1F64
:103A200008C0044000C0064031E400E0134A937827
:103A300000F0030103F0EC030B43410748BF43F0E0
:103A40001003937000F00F03042B0C4903D18B7902
:103A500043F040038B715379C20603F0EF03074A2A
:103A600048BF43F0100353719379810603F0EF03CD
:103A700048BF43F010039371704700BF00C0064079
:103A800008B5114B1B68DB0400D408BD0F4B1A7836
:103A900002F0FF0312B1FFF77FFAF7E70C4A4FF489
:103AA000003111600B4A0C49D37040F203120A60D6
:103AB0004A600A4A13700A4A13700A4B1B680BB11A
:103AC00001221A7008BD00BF34800440A893FF1F74
:103AD00084E100E000C0064008C004401294FF1FCB
:103AE000A993FF1FA493FF1F38B50446094B1B7809
:103AF00003F0FF05002BF9D120460121FDF7EEFF71
:103B000020462946FDF7CAFF034B53F83420034BE8
:103B10001A6038BDA893FF1F685400001494FF1F5B
:103B200010B509B140F080000E4A1378984217D0C2
:103B30000D4C2468E40412D503F07F03082B02D156
:103B40000A4B00241C60002900F07F030CBF4421B5
:103B50006021082B03D1054B41F4407119601070AE
:103B600010BD00BF4089FF1F348004400CC00440DA
:103B70007047FFFF0D4A38B5146814F480524FF0B7
:103B8000000410D021280A4D0AD80A4A012152F80F
:103B900030302B60FDF7A2FF2B681C70012038BD70
:103BA0002C60204638BD104638BD00BF348004402C
:103BB000A493FF1F685400000B4B1B6813F4805341
:103BC00010D00E28094B09D1094A40F20231116088
:103BD0005A7B42F001025A73012070475A7B02F06F
:103BE000FE025A73002070473480044000C0064033
:103BF00004C00440F8B51D4B1B68DA04064633D5F3
:103C00001B4B1B680BB101221A701A4B1C78013434
:103C1000282C1F4628BF0024174D2B78A34218D10B
:103C2000FDF778FE40280FDC144A13791B06F3D504
:103C30002B7813490133282B28BF0023C95CDBB242
:103C4000C9B2D1712B70E7E7FF28E5DDFFF7A4F9D2
:103C5000E2E70B4BF6B21E550A4B01221A70074BD6
:103C6000E4B2AC223C70DA70F8BD00BF348004408E
:103C70001494FF1F1894FF1F1394FF1F00C00640E9
:103C8000AA93FF1FA893FF1F38B504464518AC42FE
:103C900004D014F8010BFFF7ADFFF8E738BDFFFFC4
:103CA00008B5034B1B7813B1FFF776F9F9E708BDA8
:103CB000A893FF1F064A074B1B781078DBB2C0B2EF
:103CC00083422CBF273000F1FF30C01A704700BF7D
:103CD0001394FF1F1894FF1F054B1878054B1B7892
:103CE000C0B2DBB2984238BF4030C01A704700BF44
:103CF0001294FF1FA993FF1F10B5104B10491A789B
:103D00000B78D2B2DBB29A4214D00133402B28BFD9
:103D100000230C48DCB2C05C0C700B490968C0B2CF
:103D200051B19A4238BF4032D31A1A2B04DC002317
:103D30000B7010BD4FF0FF3010BD00BF1294FF1F7D
:103D4000A993FF1FD293FF1FA493FF1F084B1A785C
:103D5000084B1B78DBB29A4207D00133402B28BFB7
:103D60000023054AD05CC0B270474FF0FF30704767
:103D70001294FF1FA993FF1FD293FF1F054B1A78C0
:103D8000054BD2B21A70054B1B680BB100221A709A
:103D9000704700BFA993FF1F1294FF1FA493FF1F3A
:103DA00010B5294B1A79920620D5284AD87913786C
:103DB00027490133402B097828BF00238B42C0B22A
:103DC00003D02449C854D9B21170234A116869B18B
:103DD000224A1278D2B2934236BFC2F14002C2EBFD
:103DE00003039B18272BC4BF01230B70164AD178FD
:103DF000C9B20C0616D51379180613D5184B1748F7
:103E00001C780378DBB29C4202D16C23D37009E0AA
:103E10000133282B28BF0023124CE45CDBB2E4B250
:103E2000D47103704B060ED5074B1A7912F0400F70
:103E3000194608D00C4B00221A700C4B1B6803B1BA
:103E40001A702C23CB7010BD00C006401294FF1FC7
:103E5000A993FF1FD293FF1FA493FF1F1394FF1F6B
:103E60001894FF1FAA93FF1FA893FF1F1494FF1F0E
:103E70001FB572B6154B70221A70154A4121117088
:103E80000F2102F8011C80221A701A781206FCD544
:103E9000104B186862B6104B984298BF0A2301ACC9
:103EA00098BF584321460A2200F03AF80023E15C0B
:103EB0000A4A29B102EB430001330A2B4180F6D1B3
:103EC00001335B00137004B010BD00BF000002405E
:103ED00007000240080002407F969800CA89FF1F31
:103EE000FEF76EBFFEF72ABFFEF74EBFFFF702B820
:103EF000FEF774BF0846FEF7F1BF08461146FEF70D
:103F000085BF7047044B00221A714FF47A711A73FF
:103F1000024A99601A6070471C94FF1F985600006F
:103F200010B50023B0FBF2F402FB1400092894BF83
:103F300030303730C0B2C85420460CB10133F1E7FD
:103F4000CA18547022469A4206DA885CCC5C8C54BB
:103F5000C8540132013BF6E7084610BD81F000412C
:103F600002E000BF83F0004330B54FEA41044FEA5E
:103F7000430594EA050F08BF90EA020F1FBF54EAF9
:103F8000000C55EA020C7FEA645C7FEA655C00F095
:103F9000E2804FEA5454D4EB5555B8BF6D420CDD66
:103FA0002C4480EA020281EA030382EA000083EAE9
:103FB000010180EA020281EA0303362D88BF30BD89
:103FC00011F0004F4FEA01314FF4801C4CEA1131DF
:103FD00002D0404261EB410113F0004F4FEA03333E
:103FE0004CEA133302D0524263EB430394EA050FC9
:103FF00000F0A780A4F10104D5F1200E0DDB02FA38
:104000000EFC22FA05F2801841F1000103FA0EF2CB
:10401000801843FA05F359410EE0A5F120050EF191
:10402000200E012A03FA0EFC28BF4CF0020C43FAC2
:1040300005F3C01851EBE37101F0004507D54FF0CF
:10404000000EDCF1000C7EEB00006EEB0101B1F51F
:10405000801F1BD3B1F5001F0CD349085FEA300065
:104060004FEA3C0C04F101044FEA445212F5800F70
:1040700080F09A80BCF1004F08BF5FEA500C50F10D
:10408000000041EB045141EA050130BD5FEA4C0CF0
:10409000404141EB010111F4801FA4F10104E9D179
:1040A00091F0000F04BF01460020B1FA81F308BF70
:1040B0002033A3F10B03B3F120020CDA0C3208DD3C
:1040C00002F1140CC2F10C0201FA0CF021FA02F117
:1040D0000CE002F11402D8BFC2F1200C01FA02F187
:1040E00020FA0CFCDCBF41EA0C019040E41AA2BFAC
:1040F00001EB0451294330BD6FEA04041F3C1CDA74
:104100000C340EDC04F11404C4F1200220FA04F093
:1041100001FA02F340EA030021FA04F345EA03013D
:1041200030BDC4F10C04C4F1200220FA02F001FAFF
:1041300004F340EA0300294630BD21FA04F0294681
:1041400030BD94F0000F83F4801306BF81F480111A
:104150000134013D4EE77FEA645C18BF7FEA655C8D
:1041600029D094EA050F08BF90EA020F05D054EA5F
:10417000000C04BF1946104630BD91EA030F1EBF64
:104180000021002030BD5FEA545C05D14000494168
:1041900028BF41F0004130BD14F580043CBF01F55B
:1041A000801130BD01F0004545F0FE4141F4700141
:1041B0004FF0000030BD7FEA645C1ABF194610461C
:1041C0007FEA655C1CBF0B46024650EA013406BF1D
:1041D00052EA033591EA030F41F4002130BD00BFDC
:1041E00090F0000F04BF0021704730B54FF4806499
:1041F00004F132044FF000054FF0000150E700BF1A
:1042000090F0000F04BF0021704730B54FF4806478
:1042100004F1320410F0004548BF40424FF0000165
:104220003EE700BF42004FEAE2014FEA31014FEAA8
:1042300002701FBF12F07F4393F07F4F81F06051F7
:10424000704792F0000F14BF93F07F4F704730B566
:104250004FF4607401F0004521F0004120E700BFF9
:1042600050EA010208BF704730B54FF000050AE080
:1042700050EA010208BF704730B511F0004502D581
:10428000404261EB41014FF4806404F132045FEA83
:10429000915C3FF4DCAE4FF003025FEADC0C18BF28
:1042A00003325FEADC0C18BF033202EBDC02C2F11E
:1042B000200300FA03FC20FA02F001FA03FE40EAB0
:1042C0000E0021FA02F11444C1E600BF70B54FF0B0
:1042D000FF0C4CF4E06C1CEA11541DBF1CEA135592
:1042E00094EA0C0F95EA0C0F00F0DEF82C4481EAFA
:1042F000030621EA4C5123EA4C5350EA013518BF1A
:1043000052EA033541F4801143F4801338D0A0FB06
:1043100002CE4FF00005E1FB02E506F00042E0FBB3
:1043200003E54FF00006E1FB03569CF0000F18BFB9
:104330004EF0010EA4F1FF04B6F5007F64F5407461
:1043400004D25FEA4E0E6D4146EB060642EAC621F4
:1043500041EA55514FEAC52040EA5E504FEACE2E61
:10436000B4F1FD0C88BFBCF5E06F1ED8BEF1004F64
:1043700008BF5FEA500E50F1000041EB045170BDE0
:1043800006F0004646EA010140EA020081EA030124
:10439000B4EB5C04C2BFD4EB0C0541EA045170BD20
:1043A00041F480114FF0000E013C00F3AB8014F19A
:1043B000360FDEBF002001F0004170BDC4F10004E3
:1043C000203C35DA0C341BDC04F11404C4F1200564
:1043D00000FA05F320FA04F001FA05F240EA0200BF
:1043E00001F0004221F0004110EBD37021FA04F6F5
:1043F00042EB06015EEA430E08BF20EAD37070BDAF
:10440000C4F10C04C4F1200500FA04F320FA05F00D
:1044100001FA04F240EA020001F0004110EBD3700F
:1044200041F100015EEA430E08BF20EAD37070BD7F
:10443000C4F1200500FA05F24EEA020E20FA04F358
:1044400001FA05F243EA020321FA04F001F0004107
:1044500021FA04F220EA020000EBD3705EEA430E78
:1044600008BF20EAD37070BD94F0000F0FD101F0A7
:104470000046400041EB010111F4801F08BF013CE0
:10448000F7D041EA060195F0000F18BF704703F01E
:104490000046520043EB030313F4801F08BF013DA5
:1044A000F7D043EA0603704794EA0C0F0CEA135561
:1044B00018BF95EA0C0F0CD050EA410618BF52EA1B
:1044C0004306D1D181EA030101F000414FF0000021
:1044D00070BD50EA410606BF1046194652EA43062F
:1044E00019D094EA0C0F02D150EA013613D195EAA3
:1044F0000C0F05D152EA03361CBF104619460AD1EB
:1045000081EA030101F0004141F0FE4141F47001F4
:104510004FF0000070BD41F0FE4141F4780170BDE4
:1045200070B54FF0FF0C4CF4E06C1CEA11541DBF49
:104530001CEA135594EA0C0F95EA0C0F00F0A7F84B
:10454000A4EB050481EA030E52EA03354FEA013178
:1045500000F088804FEA03334FF0805545EA13138B
:1045600043EA12634FEA022245EA111545EA106553
:104570004FEA00260EF000419D4208BF964244F1EA
:10458000FD0404F5407402D25B084FEA3202B61A09
:1045900065EB03055B084FEA32024FF480104FF4DD
:1045A000002CB6EB020E75EB030E22BFB61A754651
:1045B00040EA0C005B084FEA3202B6EB020E75EBE4
:1045C000030E22BFB61A754640EA5C005B084FEA4C
:1045D0003202B6EB020E75EB030E22BFB61A754619
:1045E00040EA9C005B084FEA3202B6EB020E75EB24
:1045F000030E22BFB61A754640EADC0055EA060EE5
:1046000018D04FEA051545EA16754FEA06164FEA27
:10461000C30343EA52734FEAC2025FEA1C1CC0D1D3
:1046200011F4801F0BD141EA00014FF000004FF060
:10463000004CB6E711F4801F04BF01430020B4F121
:10464000FD0C88BFBCF5E06F3FF6AFAEB5EB030CD9
:1046500004BFB6EB020C5FEA500C50F1000041EBD6
:10466000045170BD0EF0004E4EEA113114EB5C04A3
:10467000C2BFD4EB0C0541EA045170BD41F4801176
:104680004FF0000E013C90E645EA060E8DE60CEA7E
:10469000135594EA0C0F08BF95EA0C0F3FF43BAF9B
:1046A00094EA0C0F0AD150EA01347FF434AF95EA52
:1046B0000C0F7FF425AF104619462CE795EA0C0F36
:1046C00006D152EA03353FF4FDAE1046194622E703
:1046D00050EA410618BF52EA43067FF4C5AE50EADD
:1046E00041047FF40DAF52EA43057FF4EBAE12E7CD
:1046F0004FF0FF3C06E000BF4FF0010C02E000BFAE
:104700004FF0010C4DF804CD4FEA410C7FEA6C5C90
:104710004FEA430C18BF7FEA6C5C1BD001B050EA33
:10472000410C0CBF52EA430C91EA030F02BF90EA1E
:10473000020F0020704710F1000F91EA030F58BFDD
:10474000994208BF90422CBFD8176FEAE37040F03F
:10475000010070474FEA410C7FEA6C5C02D150EADD
:10476000013C07D14FEA430C7FEA6C5CD6D152EA98
:10477000033CD3D05DF8040B704700BF844610465D
:1047800062468C461946634600E000BF01B5FFF75C
:10479000B7FF002848BF10F1000F01BD4DF808ED2C
:1047A000FFF7F4FF0CBF012000205DF808FB00BFFD
:1047B0004DF808EDFFF7EAFF34BF012000205DF857
:1047C00008FB00BF4DF808EDFFF7E0FF94BF0120A4
:1047D00000205DF808FB00BF4DF808EDFFF7CEFFA5
:1047E00094BF012000205DF808FB00BF4DF808EDE4
:1047F000FFF7C4FF34BF012000205DF808FB00BFB5
:104800004FEA4102B2F1E04324BFB3F5001CDCF1F2
:10481000FE5C0DD901F0004C4FEAC0024CEA50702A
:10482000B2F1004F40EB830008BF20F00100704759
:1048300011F0804F21D113F13872BCBF01F000405C
:10484000704741F480114FEA5252C2F11802C2F18E
:10485000200C10FA0CF320FA02F018BF40F001000F
:104860004FEAC1234FEAD32303FA0CFC40EA0C00C1
:1048700023FA02F34FEA4303CCE77FEA625307D1FE
:1048800050EA01331EBF4FF0FE4040F44000704735
:1048900001F0004040F0FE4040F40000704700BFCF
:1048A000094B1B7813B9094B1B782BB1084A1378B5
:1048B000202B03D90123037100207047581C10706E
:1048C000044A0120D15470479294FF1F5594FF1F52
:1048D0009394FF1F3494FF1F7047FFFF024B18781B
:1048E000024B1B78C01A70479194FF1F9094FF1FD2
:1048F000064A074913780978994204D9591C11705E
:10490000044AD05C70474FF0FF3070479094FF1F0F
:104910009194FF1F5694FF1F054B064A1B7812788F
:104920009A4286BF044AD05C4FF0FF30704700BF08
:104930009094FF1F9194FF1F5694FF1F70B50E4B6C
:104940001B78144613B90D4B1B7893B10C4A15789C
:10495000C5F121039C42164602D9012202711C4670
:104960000848224628442544FCF704FF35702046B9
:1049700070BD184670BD00BF9294FF1F5594FF1F75
:104980009394FF1F3494FF1F10B5114BDB7803F095
:10499000200303F0FF045BB91220FDF751F80D4B23
:1049A0001B68A3B10C4A14700C4A1078984710BDCC
:1049B0000B4A13780133DBB2012B137002D8094B79
:1049C0001B7823B91220BDE81040FDF739B810BD9F
:1049D000006006403094FF1F9094FF1F9194FF1FCA
:1049E0007C94FF1F5594FF1F002202714FF47A71CF
:1049F0000273024A81600260704700BFC056000027
:104A0000094B1B685B060DD5084B9942084B01D832
:104A1000282204E0074A914294BF19220A225A70C0
:104A200003229A71704700BF348004407F1A060049
:104A3000006006403F420F00174A08B5002313707C
:104A4000164A116841F040011160154A9370154BE8
:104A50001B78122B03D14FF41972134B04E0112B66
:104A600003D1124B4FF419721A60114B1B78132BA0
:104A700003D14FF419720F4B04E0102B03D10E4BEE
:104A80004FF419721A600D49FFF7BAFF044B202248
:104A90005A7180229A7008BD5594FF1F34800440DB
:104AA00000600640E089FF1F0CA0044004A0044001
:104AB000E189FF1F08A0044000A00440A086010077
:104AC00010B53649CB78DBB213F0100F03F040027B
:104AD00001D12AB92CE01020C870002AF9D110BDEC
:104AE00003F0040303F0FF012D4AC3B10023137048
:104AF0002C4A13702C4B1B68144603B1984723783B
:104B00002A4A1BB92749137001200870234BD02172
:104B1000997012781A71264B01221A7039E001231C
:104B20001370244B19701D4BC0229A701B7930E012
:104B30001A4CA27802F0100202F0FF01AAB113F0A1
:104B400001030ED11A4917480A780078904203D918
:104B5000531C0B70154B9B5C2371104BD0229A7029
:104B600017E0C023A370237913E0134B03221970BD
:104B700012201249FCF71AFF0E4A217913781F2BD5
:104B8000C9B206D80648007818B1581C10700C4AF3
:104B9000D154024B0222DA7010BD00BF0060064003
:104BA0002C94FF1F9394FF1F7894FF1F3494FF1FD2
:104BB0009494FF1F9194FF1F7C94FF1F894900006C
:104BC0005694FF1F0148FFF70FBF00BF8094FF1FDF
:104BD00030B5054A0C680568B4FBF2F31D4402FBCE
:104BE000134305600B6030BD00CA9A3BF8B504461C
:104BF00016460F46C8B201211D46FCF76FFFF0B202
:104C00000121FCF76BFFE8B20121FCF767FFA76207
:104C1000E66225632046F8BD2DE9F3411A4B0646AE
:104C200080691B680193081A8846FFF7E9FA174B59
:104C3000019F044618680D46FFF7E2FA02460B464C
:104C400020462946FFF76CFC0446306C381A0D46A6
:104C5000FFF7C6FA0AA3D3E90023FFF761FC024677
:104C60000B4620462946FFF75BFCC6F81880C6E9CC
:104C70000001376402B0BDE8F08100BFAFF30080EF
:104C800000000000004CED407C91FF1F4C88FF1F8E
:104C90004D4B2DE9F047D3F80080D0E9024582461C
:104CA000C8F10000FFF7ACFA06460F462046294639
:104CB00032463B46FFF77CFD58B94046FFF7A0FA65
:104CC00006460F462046294632463B46FFF78EFDF4
:104CD00010B13046394601E020462946DAE9002382
:104CE000FFF740F90026002732463B4604460D46B2
:104CF000DAE90E89FFF752FD40B94046494622469F
:104D00002B46FFF731F9CAE90E0103E0CAE90E6745
:104D1000CAE908672D4B1868FFF784FA22462B462C
:104D2000FFF7D4FA2A4B064618680F46FFF77AFABF
:104D3000DAE90E23FFF7CAFA02460B463046394637
:104D4000FFF712F9234B064618680F46FFF76AFA79
:104D5000DAE908238046894620462946FFF702F90A
:104D600002460B4640464946FFF7B0FA02460B465C
:104D700030463946FFF7F8F8CAE908450EA3D3E9EB
:104D8000002306460F46FFF713FD58B93046394653
:104D90000BA3D3E90023FFF729FD38B108A1D1E91E
:104DA000000105E004A1D1E9000101E030463946E7
:104DB000CAE90401BDE8F0870000000000E06FC010
:104DC0000000000000E06F403C88FF1F4488FF1F88
:104DD0004888FF1F4088FF1FF8B5D0E90445064604
:104DE0002946204600220023FFF700FD074640B178
:104DF00096F82C000121FCF751FE96F830000021B6
:104E00000EE02046294600220023FFF7D1FC48B1DE
:104E100096F82C003946FCF741FE96F83000012147
:104E2000FCF73CFED6E90445002220462946002333
:104E300096F82870FFF7DAFC18B9204605F1004112
:104E400001E02046294600F007F801463846BDE853
:104E5000F840FCF781BEFFFF4FEA410212F5001255
:104E600015D211D56FF47873B3EB625212D94FEAB1
:104E7000C12343F0004343EA505311F0004F23FA9B
:104E800002F018BF404270474FF00000704750EAF0
:104E9000013005D111F0004008BF6FF000407047AD
:104EA0004FF00000704700BF70B50E4B0E4DED1A6D
:104EB000AD1000241E46AC4204D056F82420904782
:104EC0000134F8E700F03AFC084D094BED1AAD103B
:104ED00000241E46AC4204D056F8242090470134EA
:104EE000F8E770BD485700004857000064570000BD
:104EF0004857000030B500293CD051F8042C0B1F56
:104F00001D49002AB8BF9B180A680C4612B95A609E
:104F10000B6030BD93420DD219685818904203D1EE
:104F20005A581144426819605A60236030BD994252
:104F300003D80A4651680029F9D1146815199D4211
:104F40000AD11B682344D0188842136012D1086824
:104F5000034413604B680CE002D90C23036030BD9E
:104F600018681C188C4203D10C68496820441860EA
:104F70005960536030BD00BF9C94FF1F70B5CD1CBD
:104F800025F0030508350C2D38BF0C25002D0646ED
:104F90003FDB8D423DD3214B1C6818462146A1B111
:104FA0000B685B1B0ED40B2B03D90B60CC18CD50B8
:104FB0001FE08C4202D1626802601AE04B686360B5
:104FC0000C4616E00C464968E9E7154C23681BB906
:104FD000304600F031F820602946304600F02CF8C9
:104FE000431C014615D0C41C24F0030484420AD19A
:104FF000256004F10B00231D20F00700C31A0BD01D
:105000005A42E25070BD3046611A00F015F8013086
:10501000EED10C233360002070BD00BF9C94FF1FB5
:105020009894FF1F0A46034903460868194600F092
:105030001BB800BF448AFF1F38B5064C0023054645
:1050400008462360FCF75EFC431C02D1236803B1D1
:105050002B6038BDB494FF1F034613F8012B002AC0
:10506000FBD1181A01387047F8B5064614460D46AC
:1050700021B91146BDE8F840FFF780BF1AB9FFF724
:1050800039FF2046F8BD00F015F8A0420ED2304698
:105090002146FFF773FF074650B129462246FCF729
:1050A00069FB30462946FFF725FF01E02846F8BD99
:1050B0003846F8BD51F8040C002802DA04390B58C0
:1050C000184404387047FFFF000000000000000093
:1050D000650400008D040000C9040000D104000034
:1050E000000000000000000029090000B9090000CC
:1050F000D9040000E10400000000000000000000EE
:10510000610A00008F0A0000E9040000F1040000B9
:105110000000000000000000C30A0000A10B000016
:10512000F90400000105000000000000000000007C
:10513000090500003D050000850500008D05000003
:105140000000000000000000950500006906000056
:105150009107000099070000000000000000000017
:10516000A1070000BD070000D9070000E10700000B
:105170000000000000000000E90700001D0800001A
:10518000650800006D08000000000000000000003D
:1051900041130000B9100000CD080000000000001D
:1051A0000000000000000000FD08000013090000DE
:1051B00019090000210900000000000000000000A3
:1051C000D3080000E9080000ED080000F508000021
:1051D0007374645F6D7367732F54696D65006364E6
:1051E00037313636633734633535326333313166C0
:1051F00062636332666535613762633238390072E3
:105200006F7373657269616C5F6D7367732F546F31
:10521000706963496E666F00306164353166383895
:105220006663343438393266386331303638343076
:10523000373736343630303500726F7373657269C4
:10524000616C5F6D7367732F4C6F67003131616202
:105250006437333163323539333332363163643650
:105260003138336264313264363239350039663070
:1052700065393862646136353938313938366464B5
:1052800066353361666137613430653439006C6985
:105290006E6F5F6D7367732F56656C6F63697469AA
:1052A000657300306565386164346362373830395E
:1052B0006265326435613061373633353266656137
:1052C0003836610067656F6D657472795F6D7367FD
:1052D000732F566563746F723300346138343262F1
:1052E0003635663431333038346463326231306697
:1052F000623438346561376631370067656F6D65D4
:105300007472795F6D7367732F54776973740039A2
:105310006631393566383831323436666466613222
:1053200037393864316433656562636138346100EC
:105330006C696E6F5F7069642F6C696E6F50494461
:1053400000613535396466313837626466363366F4
:1053500034323664356633303462366232386262F3
:1053600034004D6573736167652066726F6D2064EC
:1053700065766963652064726F707065643A206D4C
:10538000657373616765206C61726765722074680C
:10539000616E206275666665722E004C494E4F4202
:1053A00041534520434F4E4E454354454400456EBE
:1053B000636F646572204C6566743A20256C6400E6
:1053C000456E636F6465722052696768743A202580
:1053D0006C6400636D645F76656C00706964007274
:1053E00061775F76656C00726F7373657269616C6B
:1053F0005F6D7367732F5265717565737450617259
:10540000616D00FFFFFFFFFF0000000000000000D3
:10541000051700001D170000ED160000F51600002E
:10542000F1160000F9160000811600009516000024
:10543000B5160000B9160000BF160000C516000022
:10544000CD160000DD160000FD160000011700005B
:10545000511600005D160000691600007516000068
:105460002D170000111700004008FE4340A0044023
:105470004408FE4344A004400018FE4300C004401A
:105480003000FE43309004403400FE43349004402A
:105490001C18FE431CC004401018FE4310C00440FA
:1054A0000818FE4308C004400C18FE430CC004401A
:1054B0000C10FE430CB004401010FE4310B004402A
:1054C0001810FE4318B004401C10FE431CB00440EA
:1054D0001410FE4314B004400418FE4304C00440FA
:1054E0000010FE4300B004400008FE4300A004404A
:1054F0000408FE4304A004400C08FE430CA0044032
:105500000808FE4308A004401418FE4314C00440D9
:105510001818FE4318C004400410FE4304B00440B1
:105520000810FE4308B004401400FE4314900440E9
:105530004C08FE434CA004400420FE4304D0044029
:105540002410FE4324B004402010FE4320B0044049
:105550002810FE4328B004402C10FE432CB0044019
:105560000020FE4300D004404808FE4348A0044009
:105570001000FE43109004400000000000000000F6
:105580008D300000A5300000753000007D30000037
:105590007930000081300000093000001D3000002B
:1055A0003D30000041300000473000004D30000029
:1055B0005530000065300000853000008930000063
:1055C000D92F0000E52F0000F12F0000FD2F000073
:1055D000B53000009930000000000000000000001D
:1055E000A1310000B9310000893100009131000083
:1055F0008D310000953100001D3100003131000077
:1056000051310000553100005B3100006131000074
:105610006931000079310000993100009D310000AE
:10562000ED300000F93000000531000011310000BC
:10563000C9310000AD31000000151915000100004E
:105640004189FF1F12000000000200006C89FF1F4B
:105650004300000000030000C689FF1F0000000097
:10566000010309045489FF1F00000000020309041C
:10567000B089FF1F0000000003030904CA89FF1F4F
:10568000000000000000000000000000000000001A
:105690000000000000000000F53E0000FB3E00009E
:1056A000E13E0000E53E0000E93E0000ED3E000066
:1056B000F13E0000000000000000000000000000BB
:1056C000A14800003D490000DD480000F14800000D
:1056D00019490000D94800004300FFFF0000000006
:1056E00000000000000000000000000000000000BA
:1056F00000000000000000000000000000000000AA
:105700000000000000000000000000000000000099
:105710000000000000000000000000000000000089
:105720000000000000000000000000000000000079
:10573000000000000000000000000000F8B500BFFD
:10574000F8BC08BC9E46704735040000FD140000FC
:1057500049170000D1300000E5310000053F00008E
:04576000C54B000035
:10576400084B10B51C681C6054B194FAA4F2B2FA48
:1057740082F2054B53F822309847631E1C40F4D143
:1057840010BD00BFA0D004402C89FF1F084B10B5EA
:105794001C681C6054B194FAA4F2B2FA82F2054B6C
:1057A40053F822309847631E1C40F4D110BD00BF4B
:1057B400A0C004400C89FF1F084B10B51C681C6076
:1057C40054B194FAA4F2B2FA82F2054B53F822309F
:1057D4009847631E1C40F4D110BD00BFA0B0044024
:1057E400DC88FF1F084B10B51C681C6054B194FA88
:1057F400A4F2B2FA82F2054B53F822309847631EA2
:105804001C40F4D110BD00BFA0A004408C88FF1F31
:10581400084B10B51C681C6054B194FAA4F2B2FA97
:1058240082F2054B53F822309847631E1C40F4D192
:1058340010BD00BFA09004405488FF1FE600000084
:10584400CDCCCC3DCDCC4C3DCDCC4C3E2A03000040
:10585400B894FF1F5119000051190000511900009C
:10586400511900005119000051190000511900008C
:10587400511900005119000051190000511900007C
:10588400511900005119000051190000511900006C
:10589400511900005119000051190000511900005C
:1058A400511900005119000051190000511900004C
:1058B400511900005119000051190000511900003C
:1058C400511900005119000051190000511900002C
:1058D400511900005119000051190000511900001C
:1058E400511900005119000051190000511900000C
:1058F40051190000511900005119000051190000FC
:1059040051190000511900005119000051190000EB
:1059140051190000511900005119000051190000DB
:1059240051190000511900005119000051190000CB
:105934005119000008010000FFFFFFFF0A04090AD3
:10594400081201010102000040C016830400020194
:105954000203010018035400650065006E00730023
:1059640079006400750069006E006F00090243004D
:10597400020100C0320904000001020201000524F2
:105984000010010524010101042402060524060077
:10599400010705820310004009040100020A000007
:1059A40000070503024000000705840240000000D0
:1059B4001603550053004200200053006500720096
:1059C400690061006C00040309040C03000000007A
:1059D40000000000000000000000000000000000C3
:1059E4001213000000000000DC560000FC5600000A
:1059F4001C57000000000000000000000000000030
:105A040000000000D8560000000000000000000064
:105A14000000000000000000000000000000000082
:105A24000000000000000000000000000000000072
:105A34000000000000000000000000000000000062
:085A440000000000E489FF1FCF
:00000001FF
