:1000000000800020BD010000151A0000E119000069
:10001000E1190000E1190000E1190000E1190000F8
:10002000E1190000E1190000E1190000151A0000B3
:10003000151A0000E1190000151A0000D11900007E
:10004000151A0000151A0000151A0000151A0000F4
:10005000151A0000151A0000151A0000151A0000E4
:10006000151A0000151A0000151A0000151A0000D4
:10007000151A0000151A0000151A0000151A0000C4
:10008000151A0000151A0000151A0000151A0000B4
:10009000151A0000151A0000151A0000151A0000A4
:1000A0005D4C0000151A0000151A0000151A00001A
:1000B000151A0000151A0000151A0000151A000084
:1000C000151A0000151A0000151A0000151A000074
:1000D000151A0000151A0000151A0000151A000064
:1000E000151A0000151A0000151A0000151A000054
:1000F000151A000061340000151A00001D3B0000B5
:10010000151A00001D400000151A0000151A000005
:10011000151A0000151A0000151A0000151A000023
:10012000151A0000151A0000151A0000151A000013
:10013000151A0000151A0000151A0000151A000003
:10014000151A0000151A0000151A0000151A0000F3
:10015000151A0000151A0000151A0000151A0000E3
:10016000151A0000E9200000151A0000151A0000F9
:10017000151A0000151A0000151A0000151A0000C3
:10018000151A0000151A0000151A0000151A0000B3
:10019000151A0000151A0000151A0000151A0000A3
:1001A000151A0000151A0000151A0000151A000093
:1001B000151A0000151A0000151A0000564B4CF2D3
:1001C000205210B51A804DF628121A8000BF00BFC9
:1001D00001F024FC514B4FF010621A60504A9A60B3
:1001E000504ADA60A3F53043203B1A6812F480725B
:1001F00004D14D490A604FF4A8521A604B4B1A784B
:10020000110703D51A7842F008021A70484B2A22C7
:100210001A700023474A48499818884204D247492F
:10022000595899500433F5E7454A464B9A424FF0E6
:10023000000302D242F8043BF7E74349434A5958C6
:1002400099500433B3F5DE7FF7D1414B802103F899
:10025000011B40498B42F9D13F4B1A603F4B8A2228
:100260001A70A3F5805324225A70A0221A709A792A
:100270009207FCD59A79D406FCD4394B9A7902F0CE
:100280000C02082AF9D105221A7143225A719A796F
:100290009006FCD5324B9A795106FBD5314A4FF086
:1002A000817111600521516020221A702C4B9B79BD
:1002B00003F00C030C2BF9D12B4B2C4A1A602C4B5E
:1002C0002C4A1A6000225A60072243F8042C2A4A5A
:1002D000C3F80C2D62B601F0EDFD134B1B68DA0775
:1002E00005D5264801F05EFC254B264A1A60264BB0
:1002F0001B785B0609D5224C224A2368934204D11D
:100300001E4801F04FFC0023236004F09BFE01F027
:100310008BFB01F0BBFAFEE70E2005403080044065
:10032000823F04000100002B14D0034002D007409C
:1003300000E007406087FF1F488AFF1FFC5900004C
:10034000488AFF1FDC98FF1F000000000082FF1F8B
:1003500000E400E05FE400E008ED00E0005006404B
:10036000004006404480044004800440C010050062
:1003700014E000E03F1901000000202070095158EE
:100380001CE00340A5C3945A00F00740FFFFFFFFA5
:10039000FFFFFFFFFFFFFFFFFFFFFFFFFFFFFFFF6D
:1003A000FFFFFFFFFFFFFFFFFFFFFFFFFFFFFFFF5D
:1003B000FFFFFFFFFFFFFFFFFFFFFFFFFFFFFFFF4D
:1003C000FFFFFFFFFFFFFFFFFFFFFFFFFFFFFFFF3D
:1003D000FFFFFFFFFFFFFFFFFFFFFFFFFFFFFFFF2D
:1003E000FFFFFFFFFFFFFFFFFFFFFFFFFFFFFFFF1D
:1003F000FFFFFFFFFFFFFFFFFFFFFFFFFFFFFFFF0D
:10040000FFFFFFFFFFFFFFFFFFFFFFFFDEF9FFFF23
:1004100010B5054C237833B9044B13B10448AFF33E
:1004200000800123237010BD488AFF1F00000000D8
:10043000FC59000008B5064B1BB106480649AFF34E
:1004400000800648036813B1054B03B1984708BD07
:1004500000000000FC5900004C8AFF1F488AFF1F63
:100460000000000043680B7043681B0A4B70C38890
:100470008B70C379CB7083680B7183681B0A4B71D7
:1004800043898B71C37ACB71082070470B78436026
:100490004A7843EA022343608A7843EA024343608E
:1004A000CA7843EA026343600B7983604A7943EA7E
:1004B000022383608A7943EA02438360CA7943EA6C
:1004C000026383600820704700487047A053000013
:1004D00000487047AE53000000487047CF530000FB
:1004E00000487047E8530000004870470954000076
:1004F000004870471C5400000048704780560000B8
:10050000004870473D540000004870475E540000AA
:10051000004870476E5400002DE9F74F8C4601905B
:10052000D0E90201040E44EA01244FEA1028060C27
:100530008CF8034048EA01684FEA112946EA01466F
:100540000F0C0D0E019C8CF801808CF802608CF869
:1005500005908CF806708CF807508CF800008CF829
:100560000410D4E90401040E44EA01244FEA1028DF
:10057000060C48EA01684FEA112946EA01460F0CC9
:100580000D0E8CF80B40019C8CF809808CF80A60E9
:100590008CF80D908CF80E708CF80F508CF80800C9
:1005A0008CF80C10D4E906014FEA1028060C040E52
:1005B0008CF8100048EA01684FEA112946EA014622
:1005C0000F0C44EA01240D0E18208CF811808CF8D1
:1005D00012608CF813408CF814108CF815908CF87D
:1005E00016708CF8175003B0BDE8F08F2DE9F0437A
:1005F0004A788E7891F805800025002314022B4359
:10060000320400270E7822431F43CC7800231F4377
:100610000B794FEA0825164391F806802206164307
:100620001F43002216432F434FEA084591F80780E5
:10063000164316432F434FEA086542EA06043D433A
:10064000C0E902454C7A91F80A8026024FEA084434
:1006500091F80880264346EA080691F80B804FEA95
:1006600008643443144342EA02074FF000094E7B0A
:1006700047EA090742EA040891F80C908C7B42EAA9
:10068000070545EA090527044FEA0629CC7B49EA14
:10069000050948EA020849EA0709270642EA080666
:1006A00047EA0907C0E904674C7C91F812802602EA
:1006B0004FEA084491F81080264346EA080691F86C
:1006C00013804FEA08643443144342EA02074FF0B0
:1006D00000094E7D47EA090742EA040891F81490A0
:1006E0008C7D42EA070545EA090527044FEA0629F9
:1006F000CC7D49EA050949EA070948EA02082706C4
:1007000042EA080647EA0907C0E906671820BDE87B
:10071000F083FFFF004870478F5400000048704787
:10072000A554000000487047C654000000487047B8
:10073000E354000070B5054608300E46FFF7ECFEA6
:100740000446311905F12800FFF7E6FE204470BD8C
:1007500070B5054608300E46FFF748FF04463119CC
:1007600005F12800FFF742FF204470BD00487047A4
:1007700004550000004870471855000043680B708E
:100780001A0A4A701A0C1B0E8A70CB7083680B71A0
:100790001A0A4A711A0C1B0E8A71CB71C3680B724C
:1007A0001A0A4A721A0C1B0E8A72CB720C207047FE
:1007B0008B784A781B0443EA02230A781343CA78E9
:1007C00043EA026343608B794A791B0443EA0223BC
:1007D0000A791343CA7943EA026383608B7A4A7ABF
:1007E0001B0443EA02230A7A1343CA7A43EA0263E8
:1007F000C3600C207047FFFF004870473955000068
:10080000004870474A550000004870476B5500008B
:100810000048704783550000044B42681A60044B3F
:1008200082681A60034BC2681A6070474488FF1FD1
:100830004088FF1F4888FF1FD0E904230849C1E909
:100840000023D0E910230749C1E90023064B82B0F9
:100850001B680193019A054B1A6002B0704700BFF4
:100860001094FF1FD08AFF1F9095FF1F788BFF1FEA
:1008700090F85408704738B5054600F10C0420463E
:10088000FFF796FFEB692046984738BD006A70472E
:100890000048704739550000004870474A5500002D
:1008A00038B5054600F110042046FFF751FFAB6D47
:1008B0002046984738BDC06D7047FFFF004870471D
:1008C0000455000000487047185500002DE9FF410D
:1008D00083880B7083881B0A4B70054680680C4622
:1008E00004F088FC04AB064643F80C0D1868C4F805
:1008F0000200A9683246A01D00F0D0FFE86804F0AD
:1009000079FC04AB06F1060843F8080D07461868A1
:1009100044F808000A36E9683A46A01900F0BEFF1C
:10092000286904F067FC04AB3E4443F8040D074615
:100930001868A0510436A0193A46296900F0AEFFA4
:10094000F0196B69235404441A0A627004301A0CBB
:100950001B0EA270E37004B0BDE8F0817FB50A7889
:1009600082800346487842EA00229A80D1F8020049
:10097000019001988A1D841D551AA54204D212F8CF
:10098000015B02F8025CF7E70844002242714A1D4D
:100990009A6008590290201D029C02460444A2421B
:1009A00005D28D188E5C05F8016C0132F7E70A1943
:1009B00001380844002502F8015CD86010680390F3
:1009C0000398043420442246824205D28D188E5C5E
:1009D00005F8016C0132F7E70A18013C0C440025C8
:1009E00002F8015C1C6195785478D2782D0445EAB0
:1009F00004250C5C45EA040141EA026204305A61B4
:100A000004B070BD73B503790B70054680680E465F
:100A100004F0F0FB02AB044643F8040D1868C6F876
:100A20000100A968701D224600F038FF601D02B069
:100A300070BD37B50B46024613F8010B10711868EC
:100A40000190019C4B1D601D5D1A854204D213F874
:100A5000015B03F8025CF7E70C44002304312371C7
:100A6000916003B030BD2DE9F74303790B7000238B
:100A700005460C464B708B70CB700A1D28795E1CA6
:100A8000DBB29842C4EB020102F104020FD9E9681B
:100A900051F8233002F8043C190A02F8031C190C1F
:100AA0001B0E02F8013C02F8021C3346E6E72B7CE1
:100AB0006354631800225A709A70DA700B1D234435
:100AC000297C501CD2B29142C4EB030603F104030B
:100AD0000FD9A96951F8222003F8042C110A03F850
:100AE000031C110C120E03F8012C03F8021C024621
:100AF000E6E72B7FA355A2190023537093700436A9
:100B0000D3702A7F5FFA83F8424503F1010915D9B2
:100B10006B6A53F8280004F06DFB02AB074643F8FC
:100B2000040D1868A0516B6A0436A01953F82810F8
:100B30003A4600F0B3FE3E444B46E2E7304603B08F
:100B4000BDE8F083436873B50B7043681B0A4B70B4
:100B5000C3888B70C379CB7083680B7183681B0A61
:100B60004B7143898B71C37ACB71C3680B72C368B5
:100B70001B0A4B72C3898B72C37BCB72044600691C
:100B80000D4604F037FB02AB064643F8040D186827
:100B9000E860216905F11000324600F07FFE06F1A1
:100BA000100002B070BD70B5054604300E46FFF768
:100BB000C9FF0446311905F11800FFF7ADFC2044C8
:100BC00070BD70B5044604300D46FFF7BBFF237EB1
:100BD0002B542B18627E5A70A27E9A70C61CA919DB
:100BE00004F12000FFF798FC0644A91904F1400025
:100BF000FFF792FC0644A91904F16000FFF78CFC92
:100C0000304470BD37B50A7842600346487842EAFE
:100C100000225A60887842EA00425A60C87842EA64
:100C200000625A600A799A60487942EA00229A6022
:100C3000887942EA00429A60C87942EA00629A6082
:100C40000A7ADA60487A42EA0022DA60887A42EA6E
:100C50000042DA60C87A42EA0062DA60C86801904D
:100C6000019C01F1100204F11000551A854204D2D2
:100C700012F8015B02F8025CF7E70C4400220F3126
:100C8000E273196103B030BD70B5054604300E46FD
:100C9000FFF7B8FF0446311905F11800FFF7A6FC6D
:100CA000204470BD70B5044604300D46FFF7AAFF1E
:100CB0002B5C23762B18C61C5A7862769B78A37619
:100CC000A91904F12000FFF791FC0644A91904F1C9
:100CD0004000FFF78BFC0644A91904F16000FFF700
:100CE00085FC304470BDF7B50E780379B3420446F5
:100CF0000D4604D2C068B10004F062FAE0602671CB
:100D00002A1D00212379481CC9B28B42C5EB02077A
:100D100002F1040214D912F8023C12F8036C1B040D
:100D200043EA062312F8046C334312F8016C43EAD9
:100D30000663A360E368A66843F821600146E1E723
:100D4000EE5D237CB34204D2A069B10004F038FA0E
:100D5000A0613B1D26742B440022217C501CD2B282
:100D60009142C5EB030703F1040314D913F8021CE5
:100D700013F8036C090441EA062113F8046C3143AB
:100D800013F8016C41EA06616161A169666941F885
:100D900022600246E1E7EE5D237FB34204D2606A3F
:100DA000B10004F00DFA60623B1D26770022217F1E
:100DB000D6B2B1421CD9E85801900199181D0144DE
:100DC00003468B4206D2EF1815F803C007F801CC92
:100DD0000133F6E76B180027013803F8017C28443B
:100DE00020620B46616A206A41F826000132DEE784
:100DF000184603B0F0BDFFFF38B50D4BD3E90445ED
:100E0000002220462946002303F00EFE18B1094BAC
:100E10001A68013209E0204629460022002303F027
:100E2000E5FD18B1034B1A68013A1A6038BD00BFDE
:100E3000D88AFF1F0095FF1F38B50D4BD3E9044535
:100E4000002220462946002303F0EEFD18B1094B8D
:100E50001A68013209E0204629460022002303F0E7
:100E6000C5FD18B1034B1A68013A1A6038BD00BFBE
:100E7000288BFF1FC88AFF1F034B82B01B6801939A
:100E8000019802B0704700BF9095FF1F034610B550
:100E9000C06804680A4624689968A04710BDFFFF2F
:100EA000054B036000220023C0E90223C0E90423AC
:100EB000C0E90623704700BFE8520000FFFFFFFFB4
:100EC000F8B5234B0022D3E90001224B03F01CFBB1
:100ED00019A3D3E9002303F041FC1F4B04460D4640
:100EE0000022D3E900011B4B03F00EFB14A3D3E94E
:100EF000002303F009FB10A3D3E9002303F02EFC29
:100F000006460F4632463B462046294603F048F93E
:100F1000124B3246C3E902013B462046294603F004
:100F200041F909A3D3E9002303F0EEFA0C4BC3E91E
:100F30000201F8BDAFF30080000000802F1BC43F0A
:100F4000000000400AD7C33F000000606666F23F21
:100F50001094FF1F00004E40D08AFF1FD88AFF1F49
:100F6000288BFF1FAFF3008038B50D4D0D4B0E4C95
:100F70001968284603F010FF0C4B2046196803F04F
:100F80000BFF284603F044FF204603F041FF2846AC
:100F900003F0E2FF2046BDE8384003F0DDBF00BFAC
:100FA000D88AFF1F0095FF1F288BFF1FC88AFF1FCD
:100FB0000B490C480022002310B5C1E900230A495F
:100FC0000A4CC1E90023002101600948A1610160C8
:100FD0000848C4E908238161C0E9082310BD00BFA7
:100FE0001094FF1F0095FF1FD08AFF1FD88AFF1F94
:100FF000C88AFF1F288BFF1F38B504460D46FFF730
:101000003BFF4FF47A722969B0FBF2F31944216077
:1010100002FB13036969054A02FB031321462046BC
:1010200041F8043F03F0D8FF204638BD40420F008E
:101030002DE9F7432A4B2B49DFF8BC80D3E9004563
:10104000294B6846D3E90067FFF7D6FF9DE8030008
:1010500008F10C0383E8030032463B46204629464C
:1010600003F0A0F80022214B03F04EFA0022204B9F
:1010700003F074FB16A3D3E9002303F045FA002222
:101080000023C8E90801C8E90A23304622462B4656
:10109000394603F085F80022144B03F035FA00229C
:1010A000134B03F05BFB0AA3D3E9002303F02CFAF4
:1010B00009A3D3E9002303F051FBC8E90C01414621
:1010C0000C48FFF7E3FE03B0BDE8F083AFF3008008
:1010D000000000802F1BC43F000000400AD7C33F20
:1010E000D88AFF1F7C8BFF1F288BFF1F0000E03F6B
:1010F00000004E402895FF1F5895FF1FAFF300805A
:101100001FB5084B019300230293039303680A2140
:101110001B6801AA04469847FFF7AEFEE06004B0E2
:1011200010BD00BF70520000F0B587B02C4B00938B
:1011300000222C4BADF80420044602930393049341
:10114000059200F114060546D5F81838DBB1586849
:101150009A68ADF804201A68036802929B68984761
:10116000D5F81838039058680368DB6898474FF43F
:10117000806322680593D5F81838049017681969B8
:1011800020466A46B8470435B542DDD12546D5F834
:101190002C08E0B14368ADF804308368029303681B
:1011A0009B6898470390D5F82C080368DB6898473C
:1011B0004FF4806304900593D5F82C0823681F68CA
:1011C00003685B6898476A4601462046B84704357D
:1011D000B542DCD1012384F8543807B0F0BD00BF1C
:1011E000885200005E560000F0B585B01C4B01939C
:1011F00004460023029303930D46FFF73DFEE66885
:10120000184F2946861B01A8FFF740F94FF47A755D
:10121000029AB6FBF5F31A440292039A05FB136691
:1012200007FB06220392FFF727FE029B0399B0FB00
:10123000F5F2013B9B1A23610B4B05FB12050B4496
:1012400007FB1533636104F1100004F1140103F08E
:10125000C3FEFFF711FEC4F85C0805B0F0BD00BF87
:101260007052000040420F0000CA9A3B70B504461D
:10127000FFF702FED4F85C3842F6F822C31A934214
:1012800084BF002384F85438D4F84038064633B17C
:10129000D4F86038984202D90023C4F84038606816
:1012A0000368DB6898470028C0F2C080D4F8502853
:1012B000D4F840580244072DC4F850280CD1D4F873
:1012C0004C28D4F84438511C2244013BC4F84C1833
:1012D0001076C4F844385DE09DB9FF2807D101239A
:1012E000C4F8403806F11403C4F86038D7E7FFF7B4
:1012F000C3FD801B0528D2D984F854586FF0010033
:1013000070BD012D0ED1FE2801D10223C5E70023B7
:10131000C4F8403894F85438002BC0D12046FFF769
:10132000EFFEBCE7022D06D10022C4F84C28C4F819
:10133000440803221CE0032D07D1D4F8442802EB13
:101340000023C4F844380423A7E7042D0BD1404BF5
:101350001340002B03DA013B63F0FF030133FF2B43
:101360009AD1052399E7052D07D1C4F8480806222C
:10137000C4F84028C4F8500891E7062D0ED1D4F8DF
:10138000482802EB0023C4F848380723C4F8403843
:10139000D4F84438002B82D108237EE7082D7FF44F
:1013A0007EAF0023C4F84038294B1340002B03DAEA
:1013B000013B63F0FF030133FF2B7FF470AFD4F8E0
:1013C000483863B92046FFF79BFE2046FFF7ACFE86
:1013D000C4F85868C4F85C684FF0FF3070BD0A2B41
:1013E00005D1204604F11801FFF7FEFE57E7062B52
:1013F00009D104F6680004F11801FFF774FC012319
:1014000084F864384BE70B2B03D1002384F854385D
:1014100045E704EB8303D3F89C0600283FF43FAF75
:10142000036804F118011B68984738E794F85408DA
:1014300060B1D4F8583840F6C412F31A934204D974
:101440002046FFF75DFEC4F85868002070BD00BF5D
:10145000FF00008030B5184C184D236887B0019309
:10146000019A2B68D31A632B07D9FFF729FDFFF7E1
:101470007BFD23680293029B2B6023680393104B30
:10148000039A1B68D31AB3F5C87F01D3FFF790FD09
:1014900023680C4C0493049A2368D31A632B06D94F
:1014A000FFF7C6FD044B1B680593059B23600648A8
:1014B000FFF7DCFE07B030BD9095FF1F5095FF1F72
:1014C000788BFF1FCC8AFF1F7C8BFF1F1FB5064B3D
:1014D000019303688DF8081003921B68072101AA85
:1014E000984705B05DF804FBA052000063292DE980
:1014F000F04104460D4603DD90F85468002E48D0B4
:10150000136810461B6804F21F419847FF2283B2FC
:1015100084F81824FE22C0B284F819241A0A84F828
:101520001B240244D24384F81D5445F3072584F854
:101530001C2484F81A0484F81E5405220021981DE6
:10154000904205DBA018013290F818040144F6E738
:1015500003F108070733BFB214FA83F3C943B7F5A1
:10156000806F83F818140DD804F583683E46002573
:10157000BD420EDA606818F8051003681B689847CA
:101580000135F5E720460321034AFFF79FFF4FF09F
:10159000FF363046BDE8F081A455000010B50C20A0
:1015A000002100F02FFB0A20002100F02BFB0C2073
:1015B000022100F027FB0A20022100F023FB0C206F
:1015C0003949032200F086FA384903220A2000F044
:1015D00081FA374A00234FF46141C2F84038C2F81B
:1015E0004438C2F84C38C2F848389160144604EBCD
:1015F0008302D2F82C2842B92D492E4A01EB8301EF
:101600006433C1F82C28536002E00133052BEED17E
:10161000002304EB8302D2F82C2842B92449264A3D
:1016200001EB83016433C1F82C28536002E00133DD
:10163000052BEED1002304EB83021D49D2F81828B4
:1016400042B91E4A03F20620693341F82020936014
:10165000D16002E00133052BEDD1002304EB8302BE
:101660001349D2F8182842B9154A03F20620693303
:1016700041F820209360D16002E00133052BEDD1C9
:1016800094F854380A4813B9FFF7F0FDF8E7012140
:101690000C4AFFF71BFF0C4803F09CFA0520BDE83D
:1016A000104000F0F1BB00BFF90D0000390E000042
:1016B0007C8BFF1FB894FF1F688AFF1F2895FF1FB0
:1016C0003C95FF1FDD550000A498FF1FF8B5524858
:1016D000FFF7E6FB5148FFF7E3FB5148FFF7E0FB5C
:1016E00017210E220F234F4803F040FB1621102232
:1016F00011234D4803F03AFB4C4B4D4A1A604D4ABA
:101700005A604FF461429A604B49C3F8681800224E
:1017100083F8542883F86C28C3F8742883F8782851
:10172000C3F8802883F88428C3F88C28C3F81828C5
:10173000C3F81C28C3F82028C3F82428C3F8282895
:10174000C3F82C28C3F83028C3F83428C3F8382845
:10175000C3F83C28981801320021B2F5806F017659
:10176000F8D10A46991801320025B2F5806F81F848
:101770001854F7D1314C324B2360324B236104F1C2
:101780001800FFF78DFB04F13800FFF789FB2E4BA3
:10179000A3652E4BA3602E4B2E4A1A602E4ADA60A8
:1017A00001210022E1651A612C4C5A619A612C4A90
:1017B000DA612C4F2C4A2D4E19629A6067602C4BCF
:1017C000A560E5602561666104F12000236025764F
:1017D0006576A576FFF764FB04F14000FFF760FB38
:1017E00004F16000FFF75CFB224B234A1D6183E894
:1017F0001400224C224BA56084E88800E560256136
:10180000666104F11800FFF74BFB1E4B1E4A1D6179
:1018100083E81400F8BD00BF0895FF1F1894FF1F50
:10182000E094FF1FD88AFF1F288BFF1F7C8BFF1FB0
:10183000605300007896FF1FB8520000688AFF1FAF
:1018400078530000185300003908000015560000B6
:10185000B894FF1F90530000305300003894FF1FCE
:1018600019080000D05200001D5600005E5600000E
:10187000485300003C95FF1F215600005895FF1F5C
:10188000005300002895FF1F2956000008B5FFF7F8
:1018900085FEFFF7DFFD01F0F3F8FAE7844641EA41
:1018A000000313F003036DD1403A41D351F8043BD8
:1018B00040F8043B51F8043B40F8043B51F8043B2A
:1018C00040F8043B51F8043B40F8043B51F8043B1A
:1018D00040F8043B51F8043B40F8043B51F8043B0A
:1018E00040F8043B51F8043B40F8043B51F8043BFA
:1018F00040F8043B51F8043B40F8043B51F8043BEA
:1019000040F8043B51F8043B40F8043B51F8043BD9
:1019100040F8043B51F8043B40F8043B51F8043BC9
:1019200040F8043B51F8043B40F8043B403ABDD238
:10193000303211D351F8043B40F8043B51F8043BDA
:1019400040F8043B51F8043B40F8043B51F8043B99
:1019500040F8043B103AEDD20C3205D351F8043B69
:1019600040F8043B043AF9D2043208D0D2071CBF35
:1019700011F8013B00F8013B01D30B88038060465E
:10198000704700BF082A13D38B078DD010F00303D4
:101990008AD0C3F10403D21ADB071CBF11F8013B44
:1019A00000F8013B80D331F8023B20F8023B7BE793
:1019B000043AD9D3013A11F8013B00F8013BF9D2BE
:1019C0000B7803704B7843708B7883706046704758
:1019D000024B1A6801321A60704700BF9095FF1FD2
:1019E00008B50B4C2368580301D500F07DFB236834
:1019F000590501D501F034FD23681A0501D502F01F
:101A00008DF82368DB04ECD502F008FBE9E700BFA2
:101A10003480044008B5FFF7E3FFFFFF014B1022BD
:101A20001A807047002005407047FFFF024A136884
:101A300018441060184670475088FF1FEFF3138357
:101A40009BB9EFF3108098B9EFF3058323B10F2B07
:101A500004D9084A985C01E04FF48070EFF31183D9
:101A60003BB1834238BF184670474FF0FF30704794
:101A700018467047F0E300E07047FFFF00F1404078
:101A8000A0F592237C2B14D9A0F594237C2B12D99A
:101A9000A0F596237C2B10D9A0F598237C2B06D992
:101AA000A0F59A207D28064828BF002070470548E9
:101AB000704705487047054870470548704700BFA4
:101AC0002C89FF1F0C89FF1F5488FF1F8C88FF1F64
:101AD000DC88FF1F212870B50D4636D8042A34D87B
:101AE000DFE802F00709050B03000B2306E00A23D9
:101AF00004E0082302E00C2300E009231E04134B3A
:101B0000134A03EBC000134B4468C3F89C21124AEC
:101B1000C3F8A021114AC3F8A421114AC3F8A8218F
:101B20002046104AC3F8AC21FFF7A8FF68B172B68F
:101B3000226822F470222260C4F3840342F080728F
:101B4000164340F82350266062B670BD9C560000D4
:101B50001188FF1F0082FF1FE587FF1FB987FF1F46
:101B60008D87FF1F6187FF1F0C4B03EBC00010B573
:101B700044682046FFF782FF70B172B6236823F0F5
:101B8000877323F4803343F080732360C4F38404A9
:101B9000034B40F8243062B610BD00BF9C560000D5
:101BA000791A0000044B054900221A600A60044AB1
:101BB000106010221A60704714D0034004D0034014
:101BC00000D00340212810B518D80D4A52F8303003
:101BD00093F880423CB1012211B183F8802010BDFE
:101BE00083F8002110BD02EBC00043681A6811B1F0
:101BF00042F0030201E022F002021A6010BD00BFB1
:101C00009C560000212810B537D81C4A02EBC003AF
:101C100001295B68144601D004290FD154F8302003
:101C2000012082F880024FF4A2721A601A68042917
:101C30000CBF42F0200222F020021DE052F83020BA
:101C4000002082F8800211B18A1E012A12D84FF4B6
:101C5000807202291A6003D11A6842F003020BE075
:101C600003290AD11A6842F002021A601A6822F0A7
:101C7000010201E040F203121A6010BD9C56000000
:101C8000282838B5604A04460B4611D112780B2A31
:101C900004D8C2F10C0201FA02F304E00C2A1CBFC2
:101CA0000C3A41FA02F31846BDE8384001F002B997
:101CB00011780125002B05FA01F2D8BF002102DDC1
:101CC000934205D32946FFF77DFF2046294697E03A
:101CD0000338C2B2012A01D84C4A06E0202C01D0B8
:101CE000192C01D14A4A00E04A4A126802FB033229
:101CF000CA401D287BD8DFE800F0575F4E337A7A60
:101D0000212A7A7A7A7A7A7A7A7A7A3C450F187A1C
:101D1000707A7A7A7A7A7A673F4B1A6003F597334A
:101D200040F2444203F5FA735FE03C4B1A6003F55E
:101D3000973340F2444203F5F87356E0384B1A608B
:101D400003F5973340F2444203F5F6734DE0354B0B
:101D50001A6003F5973340F2444203F5F47344E00C
:101D6000314B1A6003F59F3340F2444203F5F073A0
:101D70003BE02E4B1A6003F59F3340F2444203F5DB
:101D8000EE7332E02A4B1A6003F59F3340F244426F
:101D900003F5EC7329E0274B1A6003F59F3340F2FB
:101DA000444203F5EA7320E0234B1A6003F58033C5
:101DB0004FF45172203318E0204B1A6003F5803342
:101DC0004FF451721C3310E01D4B1A60A3F5DB2356
:101DD0004FF45172A3F5F96307E01A4B1A60A3F5AB
:101DE000DB234FF45172A3F2CC731A6038BD7F2B02
:101DF0002046D4BF00210121FFF7E4FE2046012147
:101E0000BDE83840FFF7FEBE3489FF1F089003404D
:101E100008800B4008800340108003401880034076
:101E200020800340288003403080034038800340F6
:101E300040800340488003401090034018900340C6
:101E400010800B4018800B4072B60C4B0C491A687E
:101E50000C4B1B68096862B6490102D5322A88BF5B
:101E60000133C2F58C32482102F23F12B2FBF1F28B
:101E70004FF47A7000FB0320704700BF18E000E0C9
:101E800004ED00E09095FF1F38B50446FFF7DCFF36
:101E9000054624B938BD013C0AD005F57A75FFF72F
:101EA000D3FF401BB0F57A7FF5D200F0E9FDF6E7ED
:101EB00038BDFFFF204B4FF4000210B51A604FF001
:101EC00080721A604FF000721A604FF080621A60E0
:101ED0004FF000621A60194B194A1A4C002048F65C
:101EE000FF71186059602823136093601361936138
:101EF00013629362136393630922226004F5805492
:101F0000043420606160A360236144F8042C04F56C
:101F1000FE2420600C4801600C490B608B600C4B68
:101F20001A6000F06BFF4FF4C870FFF7ADFFBDE81B
:101F3000104000F0D7BB00BF08E100E00480034080
:101F40000C8003400080034008800B400C800B4055
:101F500000800B40F0B50C4B0C4C1A7842F0020597
:101F600004EBC50682F00102706009481A70067819
:101F7000002E0CBF8827C82786F0010647EA0141DA
:101F8000067044F83510F0BDFC95FF1F0080FF1F60
:101F90007496FF1F431E032B10B510D872B6094A62
:101FA00052F8230048B1416842F82310064A0188DC
:101FB00032F81340611A22F8131062B610BD0020E7
:101FC00010BD00BFEC95FF1FC498FF1F0138032808
:101FD0000AD872B6054B53F82030002013B10130F7
:101FE0005B68FBE762B67047002070474096FF1FB2
:101FF00010B572B60123174A1A4412F8012C1207C1
:102000001CD59900144A52F831402CB902EB431305
:1020100008305860114B09E041F0010152F831409D
:1020200064B902EBC103083058600D4B42F83130FF
:102030000C4B1A78013A1A7062B610BD0133052BA9
:10204000D9D162B6074B00221A70BDE8104000F0EB
:10205000C7BB00BFF85800000080FF1F8800400089
:10206000C80040006A96FF1F431E032B30B532D8CC
:10207000194A400140F01000104472B6174CE25C5F
:10208000032A09D8DFE802F01602180508300222F8
:1020900013E00830042210E01148124A50F823409F
:1020A00014B940F8231002E052F82300416042F8CE
:1020B00023100FE0032200E00522E25410F0080F85
:1020C00001F108030A8843600CBF8823C82343EA50
:1020D0000243036062B630BD0080FF1FA895FF1F5A
:1020E0004096FF1F5096FF1F2DE9F84FAB4F3C78ED
:1020F000E4B214F0040F3D4619D0A94B1B78A3B1EC
:10210000A84A117801F0FF0321B1013BDBB2137043
:1021100003B900BEA44A117801F0FF0329B1013BC5
:10212000DBB213700BB900F087FC04233B7004F0A2
:10213000080303F0FF02002B00F067829B4B9C4CCE
:102140001A78D2B215094FEA920840F0E48104EB04
:10215000C803596854F83830C3F38303013B0C2B90
:1021600000F2D681DFE813F095019501D401D40186
:10217000D401D401D401D401B001D401D401D401DB
:102180000D008C4D0A684B688B486B6001218B4BAE
:1021900044F838302A60DFF85082017092B240F281
:1021A000816000238242C8F800302361A36117D800
:1021B000B2F5D06F80F01E81B2F5817F00F0CF8044
:1021C00006D8802A00F0BA80822A00F0BB8031E174
:1021D00040F202339A4200F0D180B2F5A06F1CE0C9
:1021E00042F22100824200F051810ED8B2F5086F10
:1021F00000F09E80B2F5106F40F01C81684B6C4E71
:10220000AA781A7006F180090AE042F221218A4276
:1022100000F0088142F221339A4200F00F8109E177
:10222000336A1B0603D5706A083800F0D9FA0836FD
:102230004E45F5D10026B146DFF8B0A156F80A00A8
:1022400028B1D0F804B000F0CBFA5846F8E74AF8C5
:1022500006005B4BDFF898A1F05056F80A0028B151
:10226000D0F804B000F0BCFA5846F8E7554B4AF8ED
:102270000600F050544B23F81900544B19F8032072
:10228000023A032A08D8DFE802F00204020400221E
:1022900000E0012203F8092009F10109B9F1040F56
:1022A00006F10406C8D14A4B00221A7001269A464C
:1022B000484A494B3244334412F8012C9B0012F037
:1022C000080F1A704FEA860925D000F06BFA38B172
:1022D00004EB461308305860404B44F8393006E0B0
:1022E0009AF8003044F8390001338AF8003000F0E1
:1022F00059FA49F0010338B104EBC30208305060C9
:102300002E4A44F8332006E044F833009AF80030AF
:1023100001338AF8003049F00202013649F003091E
:102320000023052E44F8323044F83930C0D186E01D
:102330001B4B2B4C1B7823700B4683E0284C2370DF
:1023400063707EE0AA88042A74D8254C920023701A
:102350006370244B9B5C9E0773D5217071E0AA8843
:1023600002F07F02042A65DC6B88002B62D19100A9
:102370001C4A0A44117821F0020159E0AA8802F0AF
:102380007F02042A56DC6B88002B53D19100154A3A
:102390000A44117841F002014AE000BF8020074062
:1023A0007396FF1FFD95FF1F8896FF1F9020074023
:1023B0000080FF1F6096FF1F7496FF1FC80040003B
:1023C0009895FF1F5096FF1FC498FF1FA895FF1FE9
:1023D0006A96FF1FF858000030C8011088004000BE
:1023E0006B96FF1FC02007409495FF1FEC95FF1FC1
:1023F0004096FF1F6A88A9889F4B53F8084CA3F1A9
:102400000C00BCB133F80C6C964209D133F80A6C5D
:102410008E4205D1120A032A0CBF2378038911E0EA
:102420000C33EAE7954A1168954A1160A978954AF4
:10243000117004E0944B0F221A7027E000231C4611
:1024400000E00223EE88B34238BF1E46402E34BF60
:102450003546402520462946FFF77CFD761B2C4457
:1024600003D1402D12D1354603E0402E34BF35460E
:10247000402520462946FFF76DFD761B2C4401D1EF
:10248000402D03D1814AC8F8004016800122804BBC
:102490003DE0804B1A8842F221039A4210D100237A
:1024A0007D4AC85C98540133072BF9D11368862BF9
:1024B00002D17A4B0F221A7000200146FFF74AFD25
:1024C000774B44F8383023E0764E3568B5B1DFF805
:1024D000BC81B8F80090B9F1400F34BF4C4640249D
:1024E00028462146FFF736FDC4EB09039BB2A8F846
:1024F00000300BB9402C00D12B193360654B1A8882
:10250000B2F5A06F04D100225A709A78664B1A7007
:1025100001225F4B6CE004EBC806013D736802F0DA
:102520000802A3F10800EDB202F0FF01002A36D044
:1025300000F056F95D485E4B50F82520EAB151682D
:1025400040F8251002F108017160595D03290BD88C
:10255000DFE801F002040608032104E0022102E0A2
:10256000052100E00421595516F0080F12880CBF10
:102570008823C82343EA024342E05A5D032A07D86E
:10258000DFE802F040400204002206E0012204E0FD
:1025900016F0080F0CBF022203225A5532E054F8FD
:1025A0003820120C23F8082C22B3DFF834E123F88A
:1025B000061C43F8041C5EF825303E4913B94EF85A
:1025C000250002E051F8253058603B4B41F82500CA
:1025D00033F815100A4423F8152000F0E3F810B181
:1025E0000830706006E0354B44F838001A78013244
:1025F0001A7007E02A4B324A16F0080F08BF13463C
:1026000044F8383008233B7070E5E0071FD52049B7
:102610002B482C4C02230B702B4B1A702B4B186041
:1026200098602B48D8601A619A615C60164B0D2047
:1026300018702848FF2303702B700274264A137009
:10264000264B9F221A7001230B70BDE8F88F2106DC
:1026500004D50D4B0D221A7080232B70A20705D5CF
:102660001C4B1A78D2B21A7002232B70E30644BFB7
:1026700010232B70BDE8F88F085900009095FF1FBC
:10268000D498FF1F9896FF1FC02007406896FF1F31
:10269000942007406096FF1FCC98FF1FFD95FF1FF9
:1026A000C80040009495FF1F982007404096FF1FE8
:1026B000A895FF1F9895FF1FC498FF1F6A96FF1FDC
:1026C00088004000AC95FF1FFC95FF1F0080FF1F96
:1026D0000096FF1F882007408C2007408420074079
:1026E000EC95FF1F08B501F001FD00221A4B0021F7
:1026F000D15098180832882A4160F7D1174A1068DB
:1027000040F48020106002F528326832C3F30720BD
:102710001070C3F307401B0E10751376FF2302F8E9
:102720001C3C02F8143C02F88C3C012302F8083CE3
:1027300082F8641002F8183C094B70226FF4507153
:102740001A700B444FF400721A6003F1C04303F592
:10275000C82310221A7008BD0080FF1F3480044077
:1027600049E400E000F0A0B800F05CB800F080B8E8
:1027700000F034B900F0A6B8084600F023B90846C6
:10278000114600F0B7B87047044B00221A714FF49D
:102790007A711A73024A99601A6070477896FF1F1F
:1027A000B857000072B60C4A1168B1FA81F30B2BCE
:1027B00002D962B6002070474FF00040D84021EAAD
:1027C0000001116062B6054948225343C81800222F
:1027D000CA504260704700BF3889FF1F0084FF1F46
:1027E0000C4B4822C31AB3FBF2F30B2B11D80A4A45
:1027F000127822B1094A12780AB1FFF7F9BB72B612
:10280000074A4FF0004121FA03F3116819431160A0
:1028100062B670470084FF1F6A96FF1F7396FF1F02
:102820003889FF1F10B5104C23686BB120684288AF
:10283000531C0244147A0288934212D3FFF7D0FF4C
:10284000094B00221A600DE0084B1B7813B94FF0BA
:10285000FF3010BD0320FFF79DFB20600028E5D16D
:10286000F5E74380204610BD9496FF1F7396FF1F27
:1028700010B50B4C236813B123686BB902E0094B08
:102880001B7813B94FF0FF3010BD0320FFF782FB18
:1028900020600028F0D1F5E75A881344187A10BD5B
:1028A0009496FF1F7396FF1F044B9888044B1B6878
:1028B0001BB11A885B88D31A18447047C498FF1F4D
:1028C0009496FF1F10B5094B1B786BB1084C20681C
:1028D00018B1FFF785FF002323600320FFF75AFBA1
:1028E00010B1FFF77DFFF8E710BD00BF7396FF1F23
:1028F0009496FF1F2DE9F8432D4E012307460C4601
:102900003370002C4FD02B4D2B68A9462BBB48F6BB
:102910000148294B1B7803F0FF020BB9327015E018
:102920000420FFF753FB072808D801233370FFF773
:1029300039FFC9F8000080B91D4B1870B8F10108C3
:102940001E4B01D01A782AB101221A704FF0FF30C5
:10295000BDE8F88300F094F8DBE72968174A488857
:1029600000231370C0F14002944238BF224600F1A8
:10297000080C10448C444880A41A934204D0F85C9C
:102980000CF803000133F8E71F444B883F2B06D9AE
:1029900040230B800420FFF767FB00232B60084BCC
:1029A00005221A70ADE734702046BDE8F88300BFF9
:1029B0008996FF1F8C96FF1F7396FF1F9096FF1F2F
:1029C0008896FF1F07B502AB012103F8010D1846D9
:1029D000FFF790FF03B05DF804FBFFFF2DE9F04126
:1029E000114B1B78F3B1114E114B3468114D012777
:1029F0001F7098464CB1002763882F7004202380F5
:102A00002146FFF731FB376009E0FFF7CBFE0146B7
:102A100020B104202C70FFF727FB00E02F7000236B
:102A200088F80030BDE8F0817396FF1F8C96FF1F79
:102A30008996FF1F8896FF1F38B50E4B1B7803F051
:102A4000FF05ABB90C4C216831B14B880B800420D9
:102A5000FFF70AFB256038BDFFF7A4FE014620B151
:102A60000420BDE83840FFF7FFBA044B01221A707A
:102A700038BD00BF8996FF1F8C96FF1F8896FF1FE9
:102A800010B50E4C2378BBB901232370FFF70CFF60
:102A900008B1FFF778FE00F06DFC08B100F08AF88D
:102AA00000F0C6FF08B100F00FF901F053FA08B1C9
:102AB00000F094F90023237010BD00BF9996FF1F0A
:102AC00008B50368C9B21B68984708BD08B5036814
:102AD000C9B21B68984708BD08B50368C9B21B682E
:102AE000984708BD08B50368C9B21B68984708BD78
:102AF000034800EB5100B0FBF1F000F0F5B900BF66
:102B00000044950810B5064800EB51001446B0FB90
:102B1000F1F000F0E9F92046BDE8104000F048BAB5
:102B20000044950800F06EBA084600F09FBA0846C7
:102B300000F0EEBA0846114600F0B4BA08B50846EF
:102B400000F00CFB003018BF012008BD08B5084696
:102B500000F026FB003018BF012008BD00F00ABCC1
:102B600000F042BC00F016BC00F0E8BB00F054BC22
:102B700000F0EEBB08B5084600F038FB012008BDA8
:102B800008B5084600F032FB012008BD10B5084624
:102B90001446114600F074FB204610BD38B50846B7
:102BA0000D4602F027FB04462146284600F068FB4C
:102BB000204638BD7047FFFF044B00221A714FF4C6
:102BC0007A711A73024A99601A6070479C96FF1FC7
:102BD000E057000008B50368C9B21B68984708BDF4
:102BE00008B50368C9B21B68984708BD08B50368F3
:102BF000C9B21B68984708BD08B50368C9B21B680D
:102C0000984708BD034800EB5100B0FBF1F000F01D
:102C1000ABBC00BF0044950810B5064800EB51005E
:102C20001446B0FBF1F000F09FFC2046BDE81040D8
:102C300000F0FEBC0044950800F024BD084600F0FA
:102C400079BD084600F0C8BD0846114600F08EBDAB
:102C500008B5084600F0E8FD003018BF012008BDA7
:102C600008B5084600F002FE003018BF012008BD7C
:102C700000F0DEBE00F016BF00F0EABE00F0BCBE01
:102C800000F028BF00F0C2BE08B5084600F00CFEF8
:102C9000012008BD08B5084600F006FE012008BD69
:102CA00010B508461446114600F048FE204610BDF7
:102CB00038B508460D4602F09DFA044621462846DE
:102CC00000F03CFE204638BD7047FFFF044B002259
:102CD0001A714FF47A711A73024A99601A60704738
:102CE000AC96FF1F4058000008B50368C9B21B68C6
:102CF000984708BD08B50368C9B21B68984708BD66
:102D000008B50368C9B21B68984708BD08B50368D1
:102D1000C9B21B68984708BD034800EB5100B0FBDF
:102D2000F1F000F07FBF00BF00A24A0410B50648D2
:102D300000EB51001446B0FBF1F000F073FF2046A9
:102D4000BDE8104000F0B0BF00A24A0400F0D6BFBA
:102D5000084601F007B8084601F048B80846114691
:102D600001F01CB808B5084601F042F8003018BF61
:102D7000012008BD08B5084601F05CF8003018BF16
:102D8000012008BD01F0E6B801F01EB901F0F2B86B
:102D900001F0C4B801F030B901F0CAB808B508466E
:102DA00001F066F8012008BD08B5084601F060F89A
:102DB000012008BD10B508461446114601F0A2F8DE
:102DC000204610BD38B508460D4602F013FA0446F9
:102DD0002146284601F096F8204638BD7047FFFF8F
:102DE000044B00221A714FF47A711A73024A9960E7
:102DF0001A607047BC96FF1FA058000010B5204B0A
:102E00002048214960221A70E1225A701F4B204A43
:102E10001C78204B082C01D1012402E00A2C03D19C
:102E200019240460132005E00C2C0CBF15243D244C
:102E300004601220086014601860174B17491B7853
:102E4000174A03B101230B601360164B164A197819
:102E5000164B012901D880210BE0042901D88421D7
:102E600007E0082901D8852103E0102994BF8621B5
:102E70008721116019600E4B01221A7010BD00BF2E
:102E80000040074008B003400CB003403C89FF1FDE
:102E900008B00B400CB00B40CD96FF1F20B0034094
:102EA00020B00B403D89FF1F24B0034024B00B40ED
:102EB000CC96FF1F084B1A6842F480521A60074BE9
:102EC0001A78074B0AB1802200E0C0221A70054B25
:102ED00080F30C00188070472C800440CD96FF1FB3
:102EE00021C00C4000C00C40234B1A6842F48062A1
:102EF0001A60224A00231370214A1370214A13706A
:102F0000214A1370214A1370214B1B782BB1152BCA
:102F100007D140F213321F4B02E01F4B40F2133235
:102F20001A601E4B1B78012B05D0052B07D14FF4DF
:102F300051721B4B02E01B4B4FF451721A601A4B3B
:102F4000C0F344321A70C0F347125A7002210422AF
:102F500000F01F0098729A70D9745A7588221A74FA
:102F60003C22DA70114B40226FF44A711A700B4404
:102F70004FF400521A607047348004405797FF1F87
:102F8000D596FF1F6097FF1F5897FF1FD496FF1F0E
:102F90001697FF1F18C0044040A004403E89FF1F41
:102FA0001CC0044044A0044000A006402DE400E002
:102FB000134A937800F0030103F0EC030B4341073D
:102FC00048BF43F01003937000F00F03042B0C492B
:102FD00003D18B7943F040038B715379C20603F020
:102FE000EF03074A48BF43F01003537193798106FA
:102FF00003F0EF0348BF43F010039371704700BF25
:1030000000A0064008B5114B1B685B0500D408BD45
:103010000F4B1A7802F0FF0312B1FFF731FDF7E70B
:103020000C4A4FF4005111600B4A0C49D37040F226
:1030300003120A604A600A4A13700A4A13700A4B64
:103040001B680BB101221A7008BD00BF3480044018
:10305000D496FF1F84E100E000A0064040A0044099
:103060005797FF1FD596FF1FD096FF1F38B5044610
:10307000094B1B7803F0FF05002BF9D120460121F5
:10308000FEF7C0FD20462946FEF79CFD034B53F892
:103090003420034B1A6038BDD496FF1F9C560000A5
:1030A0005C97FF1F10B509B140F08000144A1378F7
:1030B0009842144622D0134A126852051DD503F0D7
:1030C0007F03012B04D0052B05D100220E4B01E01C
:1030D0000E4B00221A60002900F07F020CBF44232F
:1030E0006023012A05D0052A07D143F44073064A1C
:1030F00002E0064A43F440731360207010BD00BF25
:103100003E89FF1F348004401CC0044044A004409A
:103110000E4A1378984218D00D490968490513D50D
:103120002BB1152B05D10B4B0021196001E00A4989
:103130000B6028B1152807D140F21331054B02E08E
:10314000054B40F213311960107070471697FF1F3E
:103150003480044018C0044040A004400D4A38B5F3
:10316000146814F480624FF0000410D021280A4D36
:103170000AD80A4A012152F830302B60FEF742FD8E
:103180002B681C70012038BD2C60204638BD1046CD
:1031900038BD00BF34800440D096FF1F9C5600000D
:1031A0000E4B1B6813F4806316D012280C4B03D10E
:1031B00040F202310B4A04E0142809D10A4A40F2D5
:1031C000023111605A7B42F001025A7301207047AC
:1031D0005A7B02F0FE025A7300207047348004408C
:1031E00000A006400CA0044014C00440F8B51D4BDC
:1031F0001B685A05064633D51B4B1B680BB10122D1
:103200001A701A4B1C780134402C1F4628BF00242A
:10321000174D2B78A34218D1FEF710FC40280FDC85
:10322000144A13791B06F3D52B7813490133402B2D
:1032300028BF0023C95CDBB2C9B2D1712B70E7E7AC
:10324000FF28E5DDFFF71CFCE2E70B4BF6B21E554D
:103250000A4B01221A70074BE4B2BC223C70DA70B0
:10326000F8BD00BF348004405C97FF1F6097FF1FCC
:103270005897FF1F00A00640D696FF1FD496FF1F49
:10328000274B1B685A052DE9F04707468A4644D567
:10329000244B1B680BB101221A703D4607EB0A0351
:1032A0009D4237D2DFF890801F4E98F8004096F884
:1032B00000900134402C28BF00245FFA89F9A14511
:1032C0001DD11A4BBC22DA70FEF7B8FB40280FDC88
:1032D000164A13791B060FD5337815490133402B55
:1032E00028BF0023C95CDBB2C9B2D171337003E0DF
:1032F000FF2801DDFFF7C4FB33784B45E4D00C4BCE
:1033000015F8012B1A550B4B0122E4B21A7088F8FC
:103310000040C3E7054BBC22DA70BDE8F08700BF70
:10332000348004405C97FF1F5897FF1F00A00640A1
:10333000D696FF1FD496FF1F6097FF1F08B5034B5B
:103340001B7813B1FFF79CFBF9E708BDD496FF1F6C
:10335000064A074B1B781078DBB2C0B283422CBF01
:103360003F3000F1FF30C01A704700BF5897FF1F71
:103370006097FF1F054B1878054B1B78C0B2DBB276
:10338000984238BF4030C01A704700BF5797FF1FA0
:10339000D596FF1F10B5104B10491A780B78D2B292
:1033A000DBB29A4214D00133402B28BF00230C48D3
:1033B000DCB2C05C0C700B490968C0B251B19A42D2
:1033C00038BF4032D31A1A2B04DC00230B7010BD17
:1033D0004FF0FF3010BD00BF5797FF1FD596FF1F5E
:1033E0001797FF1FD096FF1F084B1A78084B1B78C2
:1033F000DBB29A4207D00133402B28BF0023054A95
:10340000D05CC0B270474FF0FF3070475797FF1F36
:10341000D596FF1F1797FF1F0C4B1B685B0514D534
:103420000B4BDA7802F0CB02DA7040225A74DA7869
:1034300042F03402DA70074B1A78074BD2B21A7096
:10344000064B1B680BB100221A7070473480044091
:1034500000A00640D596FF1F5797FF1FD096FF1F6D
:1034600030B5374B1A7912F0300F31D072B69A7DE1
:1034700002F0FF0022B9DA7940225A7462B627E0DE
:1034800062B6304A304913780978DBB2C9B21446C3
:103490002B4AD5795A1C402A28BF00228A42EDB215
:1034A00002D02A4B9D541346421E12F0FF00EFD16A
:1034B000DAB22270264A126852B18B4236BFC1F18D
:1034C0004001C1EB03035B18272BC4BF012313701A
:1034D0001B4BD978C9B20C0620D51B7918061DD50F
:1034E0001C4B1D4A1D781378EDB2DBB21046AB427F
:1034F0000CD0134A0133402B1479184C28BF0023F9
:10350000E45CE4B2D471127D072AF0D9DBB2037017
:103510000B4B1A79120644BF7C22DA704B060ED58B
:10352000074B1A7912F0400F194608D00C4B0022B5
:103530001A700C4B1B6803B11A703C23CB7030BD62
:1035400000A006405797FF1FD596FF1F1797FF1F34
:10355000D096FF1F6097FF1F5897FF1FD696FF1F3B
:10356000D496FF1F5C97FF1F234B1A6842F400623A
:103570001A60224A00231370214A1370214A1370E3
:10358000214A1370214A1370214B1B78092B05D057
:103590001A2B07D140F213321E4B02E01E4B40F2B1
:1035A00013321A601D4B1B780A2B05D01F2B07D135
:1035B0004FF451721A4B02E01A4B4FF451721A60D9
:1035C000194BC0F344321A70C0F347125A7000F01E
:1035D0001F000422022198729A70D9745A758822A9
:1035E0001A743C22DA70114B40221A70A3F22B336A
:1035F0004FF400421A60704734800440D297FF1F96
:103600006997FF1FD897FF1FD397FF1F6897FF1F6A
:103610003F89FF1F04D004400CB004404089FF1FC5
:1036200000D0044010B0044000B006402FE400E099
:10363000134A937800F0030103F0EC030B434107B6
:1036400048BF43F01003937000F00F03042B0C49A4
:1036500003D18B7943F040038B715379C20603F099
:10366000EF03074A48BF43F0100353719379810673
:1036700003F0EF0348BF43F010039371704700BF9E
:1036800000B0064008B51E4B1B681B0500D408BDE2
:103690001C4B1B7803F0FF0213B1FFF7F1F9F7E7BA
:1036A000194B4FF400411960184BDA70184B1B7816
:1036B000092B05D01A2B07D140F20312154B02E05B
:1036C000154B40F203121A60144B1B7803F07F0372
:1036D0000A2B05D01F2B07D140F20312104B02E03A
:1036E000104B40F203121A600F4A002313700F4A66
:1036F00013700F4B1B680BB101221A7008BD00BF7D
:10370000348004406897FF1F84E100E000B0064069
:103710003F89FF1F04D004400CB004404089FF1FC4
:1037200000D0044010B00440D297FF1F6997FF1FDC
:103730006497FF1F38B50446094B1B7803F0FF055B
:10374000002BF9D120460121FEF75CFA20462946DC
:10375000FEF738FA034B53F83420034B1A6038BD98
:103760006897FF1F9C560000D497FF1F10B509B142
:1037700040F08000144A13789842144622D0134A2D
:10378000126812051DD503F07F030A2B04D01F2BEE
:1037900005D100220E4B01E00E4B00221A600029D9
:1037A00000F07F020CBF442360230A2A05D01F2AA1
:1037B00007D143F44073064A02E0064A43F44073DB
:1037C0001360207010BD00BF4089FF1F348004408B
:1037D00000D0044010B004400F4A137898421AD029
:1037E0000E490968090515D5092B04D01A2B05D1F6
:1037F00000210B4B01E00B4B00211960092805D07B
:103800001A2807D140F21331054B02E0054B40F274
:1038100013311960107070473F89FF1F34800440D6
:1038200004D004400CB004400D4A38B5146814F4B8
:1038300000624FF0000410D021280A4D0AD80A4A2D
:10384000012152F830302B60FEF7DCF92B681C7038
:10385000012038BD2C60204638BD104638BD00BF61
:10386000348004406497FF1F9C5600000B4B1B687C
:1038700013F4006310D01728094B09D1094A40F20C
:10388000023111605A7B42F001025A7301207047E5
:103890005A7B02F0FE025A730020704734800440C5
:1038A00000B0064008B00440F8B51D4B1B681A056F
:1038B000064633D51B4B1B680BB101221A701A4BFD
:1038C0001C780134282C1F4628BF0024174D2B7864
:1038D000A34218D1FEF7B2F840280FDC144A13793E
:1038E0001B06F3D52B7813490133282B28BF00235F
:1038F000C95CDBB2C9B2D1712B70E7E7FF28E5DD07
:10390000FFF7BEF8E2E70B4BF6B21E550A4B012259
:103910001A70074BE4B2BC223C70DA70F8BD00BFED
:1039200034800440D497FF1FD897FF1FD397FF1F01
:1039300000B006406A97FF1F6897FF1F274B1B6860
:103940001A052DE9F04707468A4644D5244B1B68E3
:103950000BB101221A703D4607EB0A039D4237D294
:10396000DFF890801F4E98F8004096F800900134E0
:10397000282C28BF00245FFA89F9A1451DD11A4BD4
:10398000BC22DA70FEF75AF840280FDC164A137989
:103990001B060FD5337815490133282B28BF002388
:1039A000C95CDBB2C9B2D171337003E0FF2801DD1D
:1039B000FFF766F833784B45E4D00C4B15F8012B34
:1039C0001A550B4B0122E4B21A7088F80040C3E785
:1039D000054BBC22DA70BDE8F08700BF348004409C
:1039E000D497FF1FD397FF1F00B006406A97FF1FB1
:1039F0006897FF1FD897FF1F08B5034B1B7813B1BB
:103A0000FFF73EF8F9E708BD6897FF1F064A074B26
:103A10001B781078DBB2C0B283422CBF273000F194
:103A2000FF30C01A704700BFD397FF1FD897FF1F02
:103A3000054B1878054B1B78C0B2DBB2984238BFF3
:103A40004030C01A704700BFD297FF1F6997FF1F11
:103A500010B5104B10491A780B78D2B2DBB29A42EB
:103A600014D00133402B28BF00230C48DCB2C05CCB
:103A70000C700B490968C0B251B19A4238BF40324C
:103A8000D31A1A2B04DC00230B7010BD4FF0FF304B
:103A900010BD00BFD297FF1F6997FF1F9297FF1FAE
:103AA0006497FF1F084B1A78084B1B78DBB29A42C9
:103AB00007D00133402B28BF0023054AD05CC0B299
:103AC00070474FF0FF307047D297FF1F6997FF1F75
:103AD0009297FF1F0C4B1B681B0514D50B4BDA7814
:103AE00002F0CB02DA7040225A74DA7842F03402E3
:103AF000DA70074B1A78074BD2B21A70064B1B6864
:103B00000BB100221A7070473480044000B00640A8
:103B10006997FF1FD297FF1F6497FF1F30B5374B80
:103B20001A7912F0300F31D072B69A7D02F0FF0090
:103B300022B9DA7940225A7462B627E062B6304A76
:103B4000304913780978DBB2C9B214462B4AD579CB
:103B50005A1C402A28BF00228A42EDB202D02A4BCA
:103B60009D541346421E12F0FF00EFD1DAB22270CC
:103B7000264A126852B18B4236BFC1F14001C1EBF7
:103B800003035B18272BC4BF012313701B4BD97889
:103B9000C9B20C0620D51B7918061DD51C4B1D4A31
:103BA0001D781378EDB2DBB21046AB420CD0134A4D
:103BB0000133282B1479184C28BF0023E45CE4B2AD
:103BC000D471127D072AF0D9DBB203700B4B1A793E
:103BD000120644BF7C22DA704B060ED5074B1A79C9
:103BE00012F0400F194608D00C4B00221A700C4BF3
:103BF0001B6803B11A703C23CB7030BD00B0064087
:103C0000D297FF1F6997FF1F9297FF1F6497FF1FAF
:103C1000D897FF1FD397FF1F6A97FF1F6897FF1F53
:103C2000D497FF1F174B1A6842F480521A60164A45
:103C300000231370154A1370154A1370154A137038
:103C4000154A1370154A40F2133111604FF4517147
:103C50005160134AC0F344311170C0F3471100F0B2
:103C60001F0051709072937013742C23D3700D4BFE
:103C700040226FF44B711A700B444FF400321A60FB
:103C8000704700BF348004404A98FF1FE197FF1F30
:103C90005098FF1F4B98FF1FE097FF1F08C004407C
:103CA00000C0064031E400E0134A937800F00301BD
:103CB00003F0EC030B43410748BF43F0100393703C
:103CC00000F00F03042B0C4903D18B7943F0400320
:103CD0008B715379C20603F0EF03074A48BF43F0E4
:103CE000100353719379810603F0EF0348BF43F04B
:103CF00010039371704700BF00C0064008B5114B18
:103D00001B68DB0400D408BD0F4B1A7802F0FF03D8
:103D100012B1FEF7B5FEF7E70C4A4FF4003111601F
:103D20000B4A0C49D37040F203120A604A600A4AF7
:103D300013700A4A13700A4B1B680BB101221A70E8
:103D400008BD00BF34800440E097FF1F84E100E01D
:103D500000C0064008C004404A98FF1FE197FF1FBB
:103D6000DC97FF1F38B50446094B1B7803F0FF05AD
:103D7000002BF9D120460121FDF744FF20462946BA
:103D8000FDF720FF034B53F83420034B1A6038BD76
:103D9000E097FF1F9C5600004C98FF1F10B509B11B
:103DA00040F080000E4A1378984217D00D4C2468DA
:103DB000E40412D503F07F03082B02D10A4B002440
:103DC0001C60002900F07F030CBF44216021082BF8
:103DD00003D1054B41F440711960107010BD00BF54
:103DE0004189FF1F348004400CC004407047FFFF2E
:103DF0000D4A38B5146814F480524FF0000410D006
:103E000021280A4D0AD80A4A012152F830302B6085
:103E1000FDF7F8FE2B681C70012038BD2C60204691
:103E200038BD104638BD00BF34800440DC97FF1F0A
:103E30009C5600000B4B1B6813F4805310D00E28C7
:103E4000094B09D1094A40F2023111605A7B42F014
:103E500001025A73012070475A7B02F0FE025A7326
:103E6000002070473480044000C0064004C0044075
:103E7000F8B51D4B1B68DA04064633D51B4B1B688F
:103E80000BB101221A701A4B1C780134282C1F46E2
:103E900028BF0024174D2B78A34218D1FDF7CEFD83
:103EA00040280FDC144A13791B06F3D52B781349ED
:103EB0000133282B28BF0023C95CDBB2C9B2D17102
:103EC0002B70E7E7FF28E5DDFEF7DAFDE2E70B4BB5
:103ED000F6B21E550A4B01221A70074BE4B2AC220F
:103EE0003C70DA70F8BD00BF348004404C98FF1F6E
:103EF0005098FF1F4B98FF1F00C00640E297FF1F1E
:103F0000E097FF1F38B504464518AC4204D014F8BA
:103F1000010BFFF7ADFFF8E738BDFFFF08B5034B16
:103F20001B7813B1FEF7ACFDF9E708BDE097FF1F62
:103F3000064A074B1B781078DBB2C0B283422CBF15
:103F4000273000F1FF30C01A704700BF4B98FF1FA9
:103F50005098FF1F054B1878054B1B78C0B2DBB299
:103F6000984238BF4030C01A704700BF4A98FF1FC0
:103F7000E197FF1F10B5104B10491A780B78D2B299
:103F8000DBB29A4214D00133402B28BF00230C48E7
:103F9000DCB2C05C0C700B490968C0B251B19A42E6
:103FA00038BF4032D31A1A2B04DC00230B7010BD2B
:103FB0004FF0FF3010BD00BF4A98FF1FE197FF1F71
:103FC0000A98FF1FDC97FF1F084B1A78084B1B78D5
:103FD000DBB29A4207D00133402B28BF0023054AA9
:103FE000D05CC0B270474FF0FF3070474A98FF1F57
:103FF000E197FF1F0A98FF1F054B1A78054BD2B2B5
:104000001A70054B1B680BB100221A70704700BF75
:10401000E197FF1F4A98FF1FDC97FF1F10B5294B40
:104020001A79920620D5284AD8791378274901337E
:10403000402B097828BF00238B42C0B203D024490B
:10404000C854D9B21170234A116869B1224A127852
:10405000D2B2934236BFC2F14002C2EB03039B18B7
:10406000272BC4BF01230B70164AD178C9B20C06A6
:1040700016D51379180613D5184B17481C780378F2
:10408000DBB29C4202D16C23D37009E00133282BB0
:1040900028BF0023124CE45CDBB2E4B2D47103709D
:1040A0004B060ED5074B1A7912F0400F194608D06F
:1040B0000C4B00221A700C4B1B6803B11A702C2396
:1040C000CB7010BD00C006404A98FF1FE197FF1F4C
:1040D0000A98FF1FDC97FF1F4B98FF1F5098FF1F88
:1040E000E297FF1FE097FF1F4C98FF1F1FB572B6A6
:1040F000154B70221A70154A412111700F2102F8D8
:10410000011C80221A701A781206FCD5104B186810
:1041100062B6104B984298BF0A2301AC98BF58432F
:1041200021460A2200F01AF80023E15C0A4A29B16C
:1041300002EB430001330A2B4180F6D101335B00CF
:10414000137004B010BD00BF000002400700024021
:10415000080002407F969800CA89FF1F10B500230F
:10416000B0FBF2F402FB1400092894BF3030373062
:10417000C0B2C85420460CB10133F1E7CA185470DC
:1041800022469A4206DA885CCC5C8C54C8540132D0
:10419000013BF6E7084610BD81F0004102E000BF98
:1041A00083F0004330B54FEA41044FEA430594EAF7
:1041B000050F08BF90EA020F1FBF54EA000C55EA32
:1041C000020C7FEA645C7FEA655C00F0E2804FEA03
:1041D0005454D4EB5555B8BF6D420CDD2C4480EAE5
:1041E000020281EA030382EA000083EA010180EA15
:1041F000020281EA0303362D88BF30BD11F0004F63
:104200004FEA01314FF4801C4CEA113102D0404298
:1042100061EB410113F0004F4FEA03334CEA1333D3
:1042200002D0524263EB430394EA050F00F0A780EB
:10423000A4F10104D5F1200E0DDB02FA0EFC22FAE6
:1042400005F2801841F1000103FA0EF2801843FADA
:1042500005F359410EE0A5F120050EF1200E012ACB
:1042600003FA0EFC28BF4CF0020C43FA05F3C01809
:1042700051EBE37101F0004507D54FF0000EDCF182
:10428000000C7EEB00006EEB0101B1F5801F1BD32B
:10429000B1F5001F0CD349085FEA30004FEA3C0C2F
:1042A00004F101044FEA445212F5800F80F09A8025
:1042B000BCF1004F08BF5FEA500C50F1000041EB29
:1042C000045141EA050130BD5FEA4C0C404141EB2D
:1042D000010111F4801FA4F10104E9D191F0000F54
:1042E00004BF01460020B1FA81F308BF2033A3F1D7
:1042F0000B03B3F120020CDA0C3208DD02F1140CCE
:10430000C2F10C0201FA0CF021FA02F10CE002F108
:104310001402D8BFC2F1200C01FA02F120FA0CFC01
:10432000DCBF41EA0C019040E41AA2BF01EB04514A
:10433000294330BD6FEA04041F3C1CDA0C340EDC48
:1043400004F11404C4F1200220FA04F001FA02F38B
:1043500040EA030021FA04F345EA030130BDC4F149
:104360000C04C4F1200220FA02F001FA04F340EA3E
:104370000300294630BD21FA04F0294630BD94F0EF
:10438000000F83F4801306BF81F480110134013DD6
:104390004EE77FEA645C18BF7FEA655C29D094EA47
:1043A000050F08BF90EA020F05D054EA000C04BFC5
:1043B0001946104630BD91EA030F1EBF00210020B0
:1043C00030BD5FEA545C05D14000494128BF41F04F
:1043D000004130BD14F580043CBF01F5801130BDB3
:1043E00001F0004545F0FE4141F470014FF000003E
:1043F00030BD7FEA645C1ABF194610467FEA655CEF
:104400001CBF0B46024650EA013406BF52EA033590
:1044100091EA030F41F4002130BD00BF90F0000F7E
:1044200004BF0021704730B54FF4806404F13204BA
:104430004FF000054FF0000150E700BF90F0000F73
:1044400004BF0021704730B54FF4806404F132049A
:1044500010F0004548BF40424FF000013EE700BF6A
:1044600042004FEAE2014FEA31014FEA02701FBFFA
:1044700012F07F4393F07F4F81F06051704792F0CC
:10448000000F14BF93F07F4F704730B54FF4607446
:1044900001F0004521F0004120E700BF50EA010291
:1044A00008BF704730B54FF000050AE050EA01023E
:1044B00008BF704730B511F0004502D5404261EBAE
:1044C00041014FF4806404F132045FEA915C3FF4EF
:1044D000DCAE4FF003025FEADC0C18BF03325FEA88
:1044E000DC0C18BF033202EBDC02C2F1200300FA3D
:1044F00003FC20FA02F001FA03FE40EA0E0021FA62
:1045000002F11444C1E600BF70B54FF0FF0C4CF44B
:10451000E06C1CEA11541DBF1CEA135594EA0C0F01
:1045200095EA0C0F00F0DEF82C4481EA030621EA3C
:104530004C5123EA4C5350EA013518BF52EA033577
:1045400041F4801143F4801338D0A0FB02CE4FF029
:104550000005E1FB02E506F00042E0FB03E54FF059
:104560000006E1FB03569CF0000F18BF4EF0010E51
:10457000A4F1FF04B6F5007F64F5407404D25FEA4D
:104580004E0E6D4146EB060642EAC62141EA555100
:104590004FEAC52040EA5E504FEACE2EB4F1FD0C42
:1045A00088BFBCF5E06F1ED8BEF1004F08BF5FEAC0
:1045B000500E50F1000041EB045170BD06F0004672
:1045C00046EA010140EA020081EA0301B4EB5C041F
:1045D000C2BFD4EB0C0541EA045170BD41F4801117
:1045E0004FF0000E013C00F3AB8014F1360FDEBF3C
:1045F000002001F0004170BDC4F10004203C35DA18
:104600000C341BDC04F11404C4F1200500FA05F39A
:1046100020FA04F001FA05F240EA020001F000423B
:1046200021F0004110EBD37021FA04F642EB0601B1
:104630005EEA430E08BF20EAD37070BDC4F10C04DB
:10464000C4F1200500FA04F320FA05F001FA04F29F
:1046500040EA020001F0004110EBD37041F100018B
:104660005EEA430E08BF20EAD37070BDC4F1200596
:1046700000FA05F24EEA020E20FA04F301FA05F2FE
:1046800043EA020321FA04F001F0004121FA04F2A6
:1046900020EA020000EBD3705EEA430E08BF20EA76
:1046A000D37070BD94F0000F0FD101F000464000B0
:1046B00041EB010111F4801F08BF013CF7D041EA32
:1046C000060195F0000F18BF704703F00046520036
:1046D00043EB030313F4801F08BF013DF7D043EA07
:1046E0000603704794EA0C0F0CEA135518BF95EABD
:1046F0000C0F0CD050EA410618BF52EA4306D1D144
:1047000081EA030101F000414FF0000070BD50EA62
:10471000410606BF1046194652EA430619D094EAEC
:104720000C0F02D150EA013613D195EA0C0F05D1D6
:1047300052EA03361CBF104619460AD181EA03012A
:1047400001F0004141F0FE4141F470014FF00000E2
:1047500070BD41F0FE4141F4780170BD70B54FF07D
:10476000FF0C4CF4E06C1CEA11541DBF1CEA1355FD
:1047700094EA0C0F95EA0C0F00F0A7F8A4EB0504DF
:1047800081EA030E52EA03354FEA013100F08880D6
:104790004FEA03334FF0805545EA131343EA12639F
:1047A0004FEA022245EA111545EA10654FEA002654
:1047B0000EF000419D4208BF964244F1FD0404F50D
:1047C000407402D25B084FEA3202B61A65EB030569
:1047D0005B084FEA32024FF480104FF4002CB6EB26
:1047E000020E75EB030E22BFB61A754640EA0C00A6
:1047F0005B084FEA3202B6EB020E75EB030E22BFE6
:10480000B61A754640EA5C005B084FEA3202B6EB26
:10481000020E75EB030E22BFB61A754640EA9C00E5
:104820005B084FEA3202B6EB020E75EB030E22BFB5
:10483000B61A754640EADC0055EA060E18D04FEA73
:10484000051545EA16754FEA06164FEAC30343EA13
:1048500052734FEAC2025FEA1C1CC0D111F4801FE0
:104860000BD141EA00014FF000004FF0004CB6E7D9
:1048700011F4801F04BF01430020B4F1FD0C88BF78
:10488000BCF5E06F3FF6AFAEB5EB030C04BFB6EB83
:10489000020C5FEA500C50F1000041EB045170BD76
:1048A0000EF0004E4EEA113114EB5C04C2BFD4EBA3
:1048B0000C0541EA045170BD41F480114FF0000E27
:1048C000013C90E645EA060E8DE60CEA135594EAA3
:1048D0000C0F08BF95EA0C0F3FF43BAF94EA0C0FA6
:1048E0000AD150EA01347FF434AF95EA0C0F7FF41B
:1048F00025AF104619462CE795EA0C0F06D152EA6F
:1049000003353FF4FDAE1046194622E750EA410652
:1049100018BF52EA43067FF4C5AE50EA41047FF463
:104920000DAF52EA43057FF4EBAE12E74FF0FF3CC8
:1049300006E000BF4FF0010C02E000BF4FF0010C99
:104940004DF804CD4FEA410C7FEA6C5C4FEA430C12
:1049500018BF7FEA6C5C1BD001B050EA410C0CBF61
:1049600052EA430C91EA030F02BF90EA020F0020C3
:10497000704710F1000F91EA030F58BF994208BF2A
:1049800090422CBFD8176FEAE37040F001007047E7
:104990004FEA410C7FEA6C5C02D150EA013C07D13E
:1049A0004FEA430C7FEA6C5CD6D152EA033CD3D089
:1049B0005DF8040B704700BF8446104662468C4683
:1049C0001946634600E000BF01B5FFF7B7FF0028B6
:1049D00048BF10F1000F01BD4DF808EDFFF7F4FFDF
:1049E0000CBF012000205DF808FB00BF4DF808ED6A
:1049F000FFF7EAFF34BF012000205DF808FB00BF8D
:104A00004DF808EDFFF7E0FF94BF012000205DF8AE
:104A100008FB00BF4DF808EDFFF7CEFF94BF012063
:104A200000205DF808FB00BF4DF808EDFFF7C4FF5C
:104A300034BF012000205DF808FB00BF094B1B7844
:104A400013B9094B1B782BB1084A1378202B03D9D3
:104A50000123037100207047581C1070044A012084
:104A6000D1547047B698FF1F7998FF1FB798FF1F62
:104A70005898FF1F7047FFFF024B1878024B1B78B6
:104A8000C01A7047B598FF1FB498FF1F064A074920
:104A900013780978994204D9591C1170044AD05CE2
:104AA00070474FF0FF307047B498FF1FB598FF1F55
:104AB0007A98FF1F054B064A1B7812789A4286BFE8
:104AC000044AD05C4FF0FF30704700BFB498FF1F1E
:104AD000B598FF1F7A98FF1F70B50E4B1B781446D0
:104AE00013B90D4B1B7893B10C4A1578C5F121030E
:104AF0009C42164602D9012202711C4608482246F1
:104B000028442544FCF7CAFE3570204670BD18467F
:104B100070BD00BFB698FF1F7998FF1FB798FF1FA1
:104B20005898FF1F10B5114BDB7803F0200303F0FA
:104B3000FF045BB91220FDF717F80D4B1B68A3B1FA
:104B40000C4A14700C4A1078984710BD0B4A137821
:104B50000133DBB2012B137002D8094B1B7823B948
:104B60001220BDE81040FCF7FFBF10BD00600640FA
:104B70005498FF1FB498FF1FB598FF1FA098FF1F00
:104B80007998FF1F002202714FF47A710273024A72
:104B900081600260704700BF58590000094B1B68D4
:104BA0005B060DD5084B9942084B01D8282204E03A
:104BB000074A914294BF19220A225A7003229A711D
:104BC000704700BF348004407F1A06000060064032
:104BD0003F420F00174A08B500231370164A1168A8
:104BE00041F040011160154A9370154B1B78122B50
:104BF00003D14FF41972134B04E0112B03D1124B64
:104C00004FF419721A60114B1B78132B03D14FF418
:104C100019720F4B04E0102B03D10E4B4FF4197295
:104C20001A600D49FFF7BAFF044B20225A71802207
:104C30009A7008BD7998FF1F3480044000600640D8
:104C4000E089FF1F0CA0044004A00440E189FF1F7D
:104C500008A0044000A00440A086010010B5364919
:104C6000CB78DBB213F0100F03F0400201D12AB968
:104C70002CE01020C870002AF9D110BD03F0040305
:104C800003F0FF012D4AC3B1002313702C4A1370A7
:104C90002C4B1B68144603B1984723782A4A1BB94A
:104CA0002749137001200870234BD0219970127886
:104CB0001A71264B01221A7039E001231370244B1C
:104CC00019701D4BC0229A701B7930E01A4CA278E3
:104CD00002F0100202F0FF01AAB113F001030ED19D
:104CE0001A4917480A780078904203D9531C0B7070
:104CF000154B9B5C2371104BD0229A7017E0C02398
:104D0000A370237913E0134B032219701220124968
:104D1000FCF7E0FE0E4A217913781F2BC9B206D8A2
:104D20000648007818B1581C10700C4AD154024B38
:104D30000222DA7010BD00BF006006405198FF1FCC
:104D4000B798FF1F9C98FF1F5898FF1FB898FF1F28
:104D5000B598FF1FA098FF1F254B00007A98FF1FF2
:104D60000148FFF70FBF00BFA498FF1FF8B5044626
:104D700016460F46C8B201211D46FCF743FFF0B2AC
:104D80000121FCF73FFFE8B20121FCF73BFFA762DE
:104D9000E66225632046F8BD2DE9F3411A4B06462D
:104DA00080691B680193081A8846FFF747FB174B79
:104DB000019F044618680D46FFF740FB02460B466C
:104DC00020462946FFF7CAFC0446306C381A0D46C7
:104DD000FFF724FB0AA3D3E90023FFF7BFFC024639
:104DE0000B4620462946FFF7B9FCC6F81880C6E9ED
:104DF0000001376402B0BDE8F08100BFAFF300806E
:104E000000000000004CED409095FF1F4C88FF1FF4
:104E10004D4B2DE9F047D3F80080D0E9024582469A
:104E2000C8F10000FFF70AFB06460F462046294658
:104E300032463B46FFF7DAFD58B94046FFF7FEFA27
:104E400006460F462046294632463B46FFF7ECFD14
:104E500010B13046394601E020462946DAE9002300
:104E6000FFF79EF90026002732463B4604460D46D2
:104E7000DAE90E89FFF7B0FD40B9404649462246BF
:104E80002B46FFF78FF9CAE90E0103E0CAE90E6766
:104E9000CAE908672D4B1868FFF7E2FA22462B464D
:104EA000FFF732FB2A4B064618680F46FFF7D8FA81
:104EB000DAE90E23FFF728FB02460B463046394657
:104EC000FFF770F9234B064618680F46FFF7C8FA3C
:104ED000DAE908238046894620462946FFF760F92B
:104EE00002460B4640464946FFF70EFB02460B467C
:104EF00030463946FFF756F9CAE908450EA3D3E90B
:104F0000002306460F46FFF771FD58B93046394673
:104F10000BA3D3E90023FFF787FD38B108A1D1E93E
:104F2000000105E004A1D1E9000101E03046394665
:104F3000CAE90401BDE8F0870000000000E06FC08E
:104F40000000000000E06F403C88FF1F4488FF1F06
:104F50004888FF1F4088FF1FF8B5D0E90445064682
:104F60002946204600220023FFF75EFD074640B198
:104F700096F82C000121FCF725FE96F83000002160
:104F80000EE02046294600220023FFF72FFD48B1FE
:104F900096F82C003946FCF715FE96F830000121F2
:104FA000FCF710FED6E904450022204629460023DE
:104FB00096F82870FFF738FD18B9204605F1004132
:104FC00001E02046294600F015F801463846BDE8C4
:104FD000F840FCF755BEFFFF30B5054A0C68056880
:104FE000B4FBF2F31D4402FB134305600B6030BDBC
:104FF00000CA9A3B4FEA410212F5001215D211D5B0
:105000006FF47873B3EB625212D94FEAC12343F0C5
:10501000004343EA505311F0004F23FA02F018BF47
:10502000404270474FF00000704750EA013005D110
:1050300011F0004008BF6FF0004070474FF00000D3
:10504000704700BF70B50E4B0E4DED1AAD10002429
:105050001E46AC4204D056F8242090470134F8E7AD
:1050600000F0B8FC084D094BED1AAD1000241E46A7
:10507000AC4204D056F8242090470134F8E770BDC4
:10508000E0590000E0590000FC590000E059000020
:1050900030B500293CD051F8042C0B1F1D49002AC3
:1050A000B8BF9B180A680C4612B95A600B6030BD35
:1050B00093420DD219685818904203D15A5811449E
:1050C000426819605A60236030BD994203D80A468D
:1050D00051680029F9D1146815199D420AD11B683D
:1050E0002344D0188842136012D108680344136027
:1050F0004B680CE002D90C23036030BD18681C1803
:105100008C4203D10C684968204418605960536090
:1051100030BD00BFC098FF1F70B5CD1C25F0030542
:1051200008350C2D38BF0C25002D06463FDB8D427F
:105130003DD3214B1C6818462146A1B10B685B1B6F
:105140000ED40B2B03D90B60CC18CD501FE08C4232
:1051500002D1626802601AE04B6863600C4616E098
:105160000C464968E9E7154C23681BB9304600F046
:1051700031F820602946304600F02CF8431C0146E7
:1051800015D0C41C24F0030484420AD1256004F124
:105190000B00231D20F00700C31A0BD05A42E25027
:1051A00070BD3046611A00F015F80130EED10C23C5
:1051B0003360002070BD00BFC098FF1FBC98FF1F68
:1051C0000A46034903460868194600F01BB800BFA9
:1051D000448AFF1F38B5064C002305460846236065
:1051E000FCF724FC431C02D1236803B12B6038BDBB
:1051F000D898FF1F034613F8012B002AFBD1181A79
:1052000001387047F8B5064614460D4621B91146D7
:10521000BDE8F840FFF780BF1AB9FFF739FF204615
:10522000F8BD00F015F8A0420ED230462146FFF737
:1052300073FF074650B129462246FCF72FFB304644
:105240002946FFF725FF01E02846F8BD3846F8BD9E
:1052500051F8040C002802DA04390B5818440438B9
:105260007047FFFFFFFFFFFF00000000000000008D
:10527000650400008D040000C9040000D104000092
:105280000000000000000000CD0800005D090000E3
:10529000D9040000E104000000000000000000004C
:1052A000050A0000330A0000E9040000F1040000D0
:1052B0000000000000000000670A0000E70C00008A
:1052C000F9040000010500000000000000000000DB
:1052D000450B0000050C0000090500001105000049
:1052E000000000000000000019050000ED050000AE
:1052F000150700001D07000000000000000000006E
:10530000A70B0000890C0000250700002D070000F6
:1053100000000000000000003507000051070000F9
:105320006D0700007507000000000000000000008D
:105330007D070000B1070000F90700000108000028
:105340000000000000000000C30B0000A50C0000DE
:105350000908000011080000000000000000000023
:10536000ED1400006D120000710800000000000044
:105370000000000000000000A1080000B7080000C5
:10538000BD080000C508000000000000000000008B
:10539000770800008D0800009108000099080000BF
:1053A0007374645F6D7367732F54696D6500636414
:1053B00037313636633734633535326333313166EE
:1053C0006263633266653561376263323839007211
:1053D0006F7373657269616C5F6D7367732F546F60
:1053E000706963496E666F003061643531663838C4
:1053F00066633434383932663863313036383430A5
:10540000373736343630303500726F7373657269F2
:10541000616C5F6D7367732F4C6F67003131616230
:10542000643733316332353933333236316364367E
:10543000313833626431326436323935003966309E
:1054400065393862646136353938313938366464E3
:1054500066353361666137613430653439007374A1
:10546000645F6D7367732F486561646572003231E4
:1054700037366465636165636263653738616263AB
:105480003362393665663034396661626564006757
:10549000656F6D657472795F6D7367732F566563A1
:1054A000746F7233003461383432623635663431A9
:1054B0003330383464633262313066623438346594
:1054C00061376631370067656F6D657472795F6D3E
:1054D0007367732F566563746F72335374616D70A5
:1054E00065640037623332346337333235653638BA
:1054F0003362663032613962313462303130393092
:105500006563370067656F6D657472795F6D73678A
:10551000732F5477697374003966313935663838BA
:105520003132343666646661323739386431643317
:105530006565626361383461006C696E6F5F7069C4
:10554000642F6C696E6F504944006135353964666B
:1055500031383762646636336634323664356633E2
:105560003034623662323862623400726F735F6167
:10557000726475696E6F5F6D7367732F52617749DF
:105580006D7500336263306561333737383164617C
:1055900035316164343161363836386666363266A4
:1055A000616139004D6573736167652066726F6D67
:1055B000206465766963652064726F707065643A13
:1055C000206D657373616765206C61726765722019
:1055D0007468616E206275666665722E004C494E75
:1055E0004F4241534520434F4E4E4543544544009E
:1055F000456E636F646572204C6566743A20256C55
:105600006400456E636F6465722052696768743A1E
:1056100020256C6400636D645F76656C007069645E
:10562000007261775F696D75007261775F76656C96
:1056300000416363656C65726F6D65746572204EC1
:105640004F5420464F554E4421004779726F736383
:105650006F7065204E4F5420464F554E4421004DEB
:1056600061676E65746F6D65746572204E4F54206E
:10567000464F554E442100696D755F6C696E6B0035
:10568000726F7373657269616C5F6D7367732F52AC
:10569000657175657374506172616D004008FE43F9
:1056A00040A004404408FE4344A004400018FE43C8
:1056B00000C004403000FE43309004403400FE43FC
:1056C000349004401C18FE431CC004401018FE43D4
:1056D00010C004400818FE4308C004400C18FE43E4
:1056E0000CC004400C10FE430CB004401010FE43EC
:1056F00010B004401810FE4318B004401C10FE43C4
:105700001CB004401410FE4314B004400418FE43BF
:1057100004C004400010FE4300B004400008FE43F3
:1057200000A004400408FE4304A004400C08FE430B
:105730000CA004400808FE4308A004401418FE43CF
:1057400014C004401818FE4318C004400410FE435F
:1057500004B004400810FE4308B004401400FE43A7
:10576000149004404C08FE434CA004400420FE4327
:1057700004D004402410FE4324B004402010FE4313
:1057800020B004402810FE4328B004402C10FE43F3
:105790002CB004400020FE4300D004404808FE43E3
:1057A00048A004401000FE4310900440FFFFFFFF9C
:1057B0000000000000000000792700007F270000A3
:1057C00065270000692700006D2700007127000091
:1057D000752700000000000000000000000000002D
:1057E000752B00008D2B00005D2B0000652B000049
:1057F000612B0000692B0000F12A0000052B00003E
:10580000252B0000292B00002F2B0000352B00003A
:105810003D2B00004D2B00006D2B0000712B000074
:10582000C12A0000CD2A0000D92A0000E52A000084
:105830009D2B0000812B00000000000000000000F4
:10584000892C0000A12C0000712C0000792C000094
:10585000752C00007D2C0000052C0000192C000088
:10586000392C00003D2C0000432C0000492C000086
:10587000512C0000612C0000812C0000852C0000C0
:10588000D52B0000E12B0000ED2B0000F92B0000D0
:10589000B12C0000952C000000000000000000006A
:1058A0009D2D0000B52D0000852D00008D2D0000E0
:1058B000892D0000912D0000192D00002D2D0000D4
:1058C0004D2D0000512D0000572D00005D2D0000D2
:1058D000652D0000752D0000952D0000992D00000C
:1058E000E92C0000F52C0000012D00000D2D00001A
:1058F000C52D0000A92D000000151915000100009C
:105900004289FF1F12000000000200006C89FF1F87
:105910004300000000030000C689FF1F00000000D4
:10592000010309045489FF1F000000000203090459
:10593000B089FF1F0000000003030904CA89FF1F8C
:105940000000000000000000000000000000000057
:1059500000000000000000003D4A0000D94A00009D
:10596000794A00008D4A0000B54A0000754A0000DF
:105970004300FFFF000000000000000000000000E6
:105980000000000000000000000000000000000017
:105990000000000000000000000000000000000007
:1059A00000000000000000000000000000000000F7
:1059B00000000000000000000000000000000000E7
:1059C00000000000000000000000000000000000D7
:1059D00000000000F8B500BFF8BC08BC9E46704748
:1059E00035040000CD16000089270000B92B000007
:0C59F000CD2C0000E12D0000614D0000F6
:1059FC00084B10B51C681C6054B194FAA4F2B2FAAE
:105A0C0082F2054B53F822309847631E1C40F4D1A8
:105A1C0010BD00BFA0D004402C89FF1F084B10B54F
:105A2C001C681C6054B194FAA4F2B2FA82F2054BD1
:105A3C0053F822309847631E1C40F4D110BD00BFB0
:105A4C00A0C004400C89FF1F084B10B51C681C60DB
:105A5C0054B194FAA4F2B2FA82F2054B53F8223004
:105A6C009847631E1C40F4D110BD00BFA0B0044089
:105A7C00DC88FF1F084B10B51C681C6054B194FAED
:105A8C00A4F2B2FA82F2054B53F822309847631E07
:105A9C001C40F4D110BD00BFA0A004408C88FF1F97
:105AAC00084B10B51C681C6054B194FAA4F2B2FAFD
:105ABC0082F2054B53F822309847631E1C40F4D1F8
:105ACC0010BD00BFA09004405488FF1FE6000000EA
