:1000000000800020BD01000025200000F11F00003D
:10001000F11F0000F11F0000F11F0000F11F0000A0
:10002000F11F0000F11F0000F11F0000252000005B
:1000300025200000F11F000025200000E11F000026
:10004000252000002520000025200000252000009C
:10005000252000002520000025200000252000008C
:10006000252000002520000025200000252000007C
:10007000252000002520000025200000252000006C
:10008000252000002520000025200000252000005C
:10009000252000002520000025200000252000004C
:1000A000E952000025200000252000002520000046
:1000B000252000002520000025200000252000002C
:1000C000252000002520000025200000252000001C
:1000D000252000002520000025200000252000000C
:1000E00025200000252000002520000025200000FC
:1000F00025200000D12A000025200000D13F00006B
:1001000025200000D144000025200000252000000B
:1001100025200000252000002520000025200000CB
:1001200025200000252000002520000025200000BB
:1001300025200000252000002520000025200000AB
:10014000252000002520000025200000252000009B
:10015000252000002520000025200000252000008B
:10016000252000006D2D0000252000002520000026
:10017000252000002520000025200000252000006B
:10018000252000002520000025200000252000005B
:10019000252000002520000025200000252000004B
:1001A000252000002520000025200000252000003B
:1001B000252000002520000025200000564B4CF291
:1001C000205210B51A804DF628121A8000BF00BFC9
:1001D00001F02CFF514B4FF010621A60504A9A60A8
:1001E000504ADA60A3F53043203B1A6812F480725B
:1001F00004D14D490A604FF4A8521A604B4B1A784B
:10020000110703D51A7842F008021A70484B2A22C7
:100210001A700023474A48499818884204D247492F
:10022000595899500433F5E7454A464B9A424FF0E6
:10023000000302D242F8043BF7E74349434A5958C6
:1002400099500433B3F5DE7FF7D1414B802103F899
:10025000011B40498B42F9D13F4B1A603F4B8A2228
:100260001A70A3F5805324225A70A0221A709A792A
:100270009207FCD59A79D406FCD4394B9A7902F0CE
:100280000C02082AF9D105221A7143225A719A796F
:100290009006FCD5324B9A795106FBD5314A4FF086
:1002A000817111600521516020221A702C4B9B79BD
:1002B00003F00C030C2BF9D12B4B2C4A1A602C4B5E
:1002C0002C4A1A6000225A60072243F8042C2A4A5A
:1002D000C3F80C2D62B602F0EFF8134B1B68DA0777
:1002E00005D5264801F01CFF254B264A1A60264BEF
:1002F0001B785B0609D5224C224A2368934204D11D
:100300001E4801F00DFF0023236006F0F5FE01F00A
:1003100093FE01F0C3FDFEE70E200540308004404F
:10032000823F04000100002B14D0034002D007409C
:1003300000E007406087FF1F408AFF1F68810000C0
:10034000408AFF1F1C96FF1F000000000082FF1F55
:1003500000E400E05FE400E008ED00E0005006404B
:10036000004006404480044004800440C010050062
:1003700014E000E03F190100000020207078EC58E4
:100380001CE00340A5C3945A00F00740FFFFFFFFA5
:10039000FFFFFFFFFFFFFFFFFFFFFFFFFFFFFFFF6D
:1003A000FFFFFFFFFFFFFFFFFFFFFFFFFFFFFFFF5D
:1003B000FFFFFFFFFFFFFFFFFFFFFFFFFFFFFFFF4D
:1003C000FFFFFFFFFFFFFFFFFFFFFFFFFFFFFFFF3D
:1003D000FFFFFFFFFFFFFFFFFFFFFFFFFFFFFFFF2D
:1003E000FFFFFFFFFFFFFFFFFFFFFFFFFFFFFFFF1D
:1003F000FFFFFFFFFFFFFFFFFFFFFFFFFFFFFFFF0D
:10040000FFFFFFFFFFFFFFFFFFFFFFFFDEF9FFFF23
:1004100010B5054C237833B9044B13B10448AFF33E
:1004200000800123237010BD408AFF1F00000000E0
:100430006881000008B5064B1BB106480649AFF3BA
:1004400000800648036813B1054B03B1984708BD07
:100450000000000068810000448AFF1F408AFF1FDF
:100460000000000043680B7043681B0A4B70C38890
:100470008B70C379CB7083680B7183681B0A4B71D7
:1004800043898B71C37ACB71082070470B78436026
:100490004A7843EA022343608A7843EA024343608E
:1004A000CA7843EA026343600B7983604A7943EA7E
:1004B000022383608A7943EA02438360CA7943EA6C
:1004C000026383600820704700487047907A0000FC
:1004D000004870479E7A000000487047BF7A0000CD
:1004E00000487047D87A000000487047F97A000049
:1004F000004870470C7B000000487047657D000095
:10050000004870472D7B000043680B701A0A4A7040
:100510001A0C1B0E8A70CB7083680B711A0A4A7111
:100520001A0C1B0E8A71CB71C3680B721A0A4A72BD
:100530001A0C1B0E8A72CB720C2070478B784A788B
:100540001B0443EA02230A781343CA7843EA02638E
:1005500043608B794A791B0443EA02230A791343E7
:10056000CA7943EA026383608B7A4A7A1B0443EABE
:1005700002230A7A1343CA7A43EA0263C3600C2057
:100580007047FFFF004870474E7B000000487047EF
:10059000637B00002DE9F74F8C460190D0E9020102
:1005A000040E44EA01244FEA1028060C8CF803409C
:1005B00048EA01684FEA112946EA01460F0C0D0E80
:1005C000019C8CF801808CF802608CF805908CF806
:1005D00006708CF807508CF800008CF80410D4E9F1
:1005E0000401040E44EA01244FEA1028060C48EAEC
:1005F00001684FEA112946EA01460F0C0D0E8CF8EE
:100600000B40019C8CF809808CF80A608CF80D90E6
:100610008CF80E708CF80F508CF808008CF80C10C9
:10062000D4E906014FEA1028060C040E8CF81000DD
:1006300048EA01684FEA112946EA01460F0C44EAEC
:1006400001240D0E18208CF811808CF812608CF8A3
:1006500013408CF814108CF815908CF816708CF8E8
:10066000175003B0BDE8F08F2DE9F0434A788E783B
:1006700091F805800025002314022B433204002743
:100680000E7822431F43CC7800231F430B794FEA97
:100690000825164391F80680220616431F430022C0
:1006A00016432F434FEA084591F807801643164337
:1006B0002F434FEA086542EA06043D43C0E902457C
:1006C0004C7A91F80A8026024FEA084491F8088093
:1006D000264346EA080691F80B804FEA0864344343
:1006E000144342EA02074FF000094E7B47EA09072C
:1006F00042EA040891F80C908C7B42EA070545EA2F
:10070000090527044FEA0629CC7B49EA050948EA8E
:10071000020849EA0709270642EA080647EA0907E4
:10072000C0E904674C7C91F8128026024FEA084425
:1007300091F81080264346EA080691F813804FEAA4
:1007400008643443144342EA02074FF000094E7D27
:1007500047EA090742EA040891F814908C7D42EABE
:10076000070545EA090527044FEA0629CC7D49EA31
:10077000050949EA070948EA0208270642EA080685
:1007800047EA0907C0E906671820BDE8F083FFFFC4
:1007900000487047847B0000004870479A7B000047
:1007A00070B5054608300E46FFF7F4FE04463119D1
:1007B00005F12800FFF7EEFE204470BD70B5054638
:1007C00008300E46FFF750FF0446311905F12800A6
:1007D000FFF74AFF204470BD00487047BB7B000014
:1007E00000487047CF7B000043680B701A0A4A70BC
:1007F0001A0C1B0E8A70CB7083680B711A0A4A712F
:100800001A0C1B0E8A71CB71C3680B721A0A4A72DA
:100810001A0C1B0E8A72CB720C2070478B784A78A8
:100820001B0443EA02230A781343CA7843EA0263AB
:1008300043608B794A791B0443EA02230A79134304
:10084000CA7943EA026383608B7A4A7A1B0443EADB
:1008500002230A7A1343CA7A43EA0263C3600C2074
:100860007047FFFF00487047F07B0000004870476A
:10087000FE7B0000004870471F7C00000048704766
:100880002F7C000000487047507C000000487047F3
:10089000687C0000D0E904230849C1E90023D0E9BD
:1008A00010230749C1E90023064B82B01B6801935E
:1008B000019A054B1A6002B0704700BF8092FF1F7B
:1008C000E090FF1FE092FF1F0C8BFF1F90F8F404D5
:1008D000704738B5054600F10C042046FFF79EFF2F
:1008E000EB692046984738BD006A7047004870475A
:1008F000F07B000000487047FE7B000038B50546DD
:1009000000F110042046FFF759FFAB6D20469847D1
:1009100038BDC06D7047FFFF00487047BB7B0000CB
:1009200000487047CF7B00002DE9FF4183880B70A2
:1009300083881B0A4B70054680680C4606F0F4FC61
:1009400004AB064643F80C0D1868C4F80200A96809
:100950003246A01D01F0AAFAE86806F0E5FC04ABF7
:1009600006F1060843F8080D0746186844F8080021
:100970000A36E9683A46A01901F098FA286906F0A3
:10098000D3FC04AB3E4443F8040D07461868A0515D
:100990000436A0193A46296901F088FAF0196B6902
:1009A000235404441A0A627004301A0C1B0EA270FD
:1009B000E37004B0BDE8F0817FB50A788280034619
:1009C000487842EA00229A80D1F80200019001980A
:1009D0008A1D841D551AA54204D212F8015B02F843
:1009E000025CF7E70844002242714A1D9A600859E8
:1009F0000290201D029C02460444A24205D28D189A
:100A00008E5C05F8016C0132F7E70A1901380844D9
:100A1000002502F8015CD860106803900398043444
:100A200020442246824205D28D188E5C05F8016C66
:100A30000132F7E70A18013C0C44002502F8015C7A
:100A40001C6195785478D2782D0445EA04250C5C15
:100A500045EA040141EA026204305A6104B070BD03
:100A600073B503790B70054680680E4606F05CFC92
:100A700002AB044643F8040D1868C6F80100A968E3
:100A8000701D224601F012FA601D02B070BD37B52C
:100A90000B46024613F8010B107118680190019C77
:100AA0004B1D601D5D1A854204D213F8015B03F8EB
:100AB000025CF7E70C44002304312371916003B01A
:100AC00030BD2DE9F74303790B70002305460C4632
:100AD0004B708B70CB700A1D28795E1CDBB298427C
:100AE000C4EB020102F104020FD9E96851F8233086
:100AF00002F8043C190A02F8031C190C1B0E02F838
:100B0000013C02F8021C3346E6E72B7C6354631871
:100B100000225A709A70DA700B1D2344297C501CF5
:100B2000D2B29142C4EB030603F104030FD9A969C1
:100B300051F8222003F8042C110A03F8031C110CAD
:100B4000120E03F8012C03F8021C0246E6E72B7F85
:100B5000A355A2190023537093700436D3702A7FD3
:100B60005FFA83F8424503F1010915D96B6A53F81E
:100B7000280006F0D9FB02AB074643F8040D1868BD
:100B8000A0516B6A0436A01953F828103A4601F0B8
:100B90008DF93E444B46E2E7304603B0BDE8F083B2
:100BA000436873B50B7043681B0A4B70C3888B7026
:100BB000C379CB7083680B7183681B0A4B714389BF
:100BC0008B71C37ACB71C3680B72C3681B0A4B72FB
:100BD000C3898B72C37BCB72044600690D4606F055
:100BE000A3FB02AB064643F8040D1868E8602169D0
:100BF00005F11000324601F059F906F1100002B07B
:100C000070BD70B5044604300D46FFF7C9FF237E62
:100C10002B542B18627E5A70A27E9A70C61CA9199A
:100C200004F12000FFF7B6FC0644A91904F14000C6
:100C3000FFF7B0FC0644A91904F16000FFF7AAFC15
:100C4000304470BD37B50A7842600346487842EABE
:100C500000225A60887842EA00425A60C87842EA24
:100C600000625A600A799A60487942EA00229A60E2
:100C7000887942EA00429A60C87942EA00629A6042
:100C80000A7ADA60487A42EA0022DA60887A42EA2E
:100C90000042DA60C87A42EA0062DA60C86801900D
:100CA000019C01F1100204F11000551A854204D292
:100CB00012F8015B02F8025CF7E70C4400220F31E6
:100CC000E273196103B030BD70B5044604300D46BF
:100CD000FFF7B8FF2B5C23762B18C61C5A78627678
:100CE0009B78A376A91904F12000FFF7BDFC064408
:100CF000A91904F14000FFF7B7FC0644A91904F153
:100D00006000FFF7B1FC304470BDF7B50E78037991
:100D1000B34204460D4604D2C068B10006F0C6FADC
:100D2000E06026712A1D00212379481CC9B28B423C
:100D3000C5EB020702F1040214D912F8023C12F8C2
:100D4000036C1B0443EA062312F8046C334312F8C5
:100D5000016C43EA0663A360E368A66843F8216078
:100D60000146E1E7EE5D237CB34204D2A069B10005
:100D700006F09CFAA0613B1D26742B440022217CC6
:100D8000501CD2B29142C5EB030703F1040314D9FE
:100D900013F8021C13F8036C090441EA062113F846
:100DA000046C314313F8016C41EA06616161A16989
:100DB000666941F822600246E1E7EE5D237FB342B7
:100DC00004D2606AB10006F071FA60623B1D2677BA
:100DD0000022217FD6B2B1421CD9E8580190019976
:100DE000181D014403468B4206D2EF1815F803C0C4
:100DF00007F801CC0133F6E76B180027013803F838
:100E0000017C284420620B46616A206A41F8260072
:100E10000132DEE7184603B0F0BDFFFF10B504460F
:100E200006486168E268A36804F0DFFC6168E26874
:100E3000A3680348BDE8104004F0D7BCA891FF1F89
:100E40001892FF1F064B1B68002B03DD054B1A6829
:100E5000013203E003D0034B1A68013A1A6070476D
:100E6000988BFF1FA48BFF1F064B1B68002B03DD15
:100E7000054B1A68013203E003D0034B1A68013AAC
:100E80001A607047588BFF1F908BFF1F034B82B077
:100E90001B680193019802B0704700BFE092FF1FEA
:100EA000034610B5C06804680A4624689968A047DC
:100EB00010BDFFFF054B036000220023C0E90223A1
:100EC000C0E90423C0E90623704700BFD8790000B9
:100ED000F0B5274B274F284E87B0D3E9000103F028
:100EE000B5FD264B0446D3E9000103F0AFFD002316
:100EF00022462349009002A804F0AEFC02986FF04D
:100F0000E504E628A8BFE620A042B8BF204603F0CB
:100F1000A7FE0546386803F0A3FE29460246194895
:100F2000194D04F0E3FB03F069FD28600398E628FF
:100F3000A8BFE620A042B8BF204603F091FE0446B9
:100F4000306803F08DFE214602461048104C04F034
:100F5000CDFB03F053FD29682060384604F0A0FB68
:100F60002168304607B0BDE8F04004F099BB00BFEF
:100F70008092FF1FCC8AFF1FEC8AFF1FE090FF1FAB
:100F8000188BFF1FA891FF1F988BFF1F1892FF1F40
:100F9000588BFF1F0B490C4810B500220023C1E9F4
:100FA00000230A490A4CC1E900230A4B00212160B1
:100FB000196004F039FB21680748BDE8104004F0CF
:100FC00033BB00BF8092FF1FCC8AFF1FE090FF1F42
:100FD000908BFF1FA48BFF1FEC8AFF1F30B50F4BB8
:100FE0000F4D19680F4C85B0284604F01DFB0E4BC1
:100FF0002046196804F018FB01A82A6823680B49E9
:1010000004F082FC0A49019B4B6000238B60094875
:10101000039BCB60FFF744FF05B030BDA48BFF1FDF
:10102000CC8AFF1FEC8AFF1F908BFF1F188BFF1FBE
:10103000C092FF1F6892FF1F1FB5084B019300234A
:101040000293039303680A211B6801AA0446984788
:10105000FFF71CFFE06004B010BD00BF6079000026
:10106000F0B587B02C4B009300222C4BADF8042038
:101070000446029303930493059200F16406054627
:10108000D5F81834DBB158689A68ADF804201A68AE
:10109000036802929B689847D5F818340390586803
:1010A0000368DB6898474FF4007322680593D5F80E
:1010B000183404901768196920466A46B847043501
:1010C000B542DDD12546D5F87C04E0B14368ADF8E2
:1010D00004308368029303689B6898470390D5F8AF
:1010E0007C040368DB6898474FF400730490059311
:1010F000D5F87C0423681F6803685B6898476A46D4
:1011000001462046B8470435B542DCD1012384F8B6
:10111000F43407B0F0BD00BF78790000AF80000064
:10112000F0B585B01C4B0193044600230293039352
:101130000D46FFF7ABFEE668184F2946861B01A84F
:10114000FFF7A4F94FF47A75029AB6FBF5F31A4447
:101150000292039A05FB136607FB06220392FFF730
:1011600095FE029B0399B0FBF5F2013B9B1A2361AC
:101170000B4B05FB12050B4407FB1533636104F1B0
:10118000100004F1140104F00BFCFFF77FFEC4F81B
:10119000FC0405B0F0BD00BF6079000040420F00C4
:1011A00000CA9A3B70B50446FFF770FED4F8FC34D1
:1011B00042F6F822C31A934284BF002384F8F43421
:1011C000D4F8E034064633B1D4F80035984202D959
:1011D0000023C4F8E03460680368DB68984700289F
:1011E000C0F2C080D4F8F024D4F8E0540244072DB3
:1011F000C4F8F0240CD1D4F8EC24D4F8E434511C15
:101200002244013BC4F8EC141076C4F8E4345DE0E9
:101210009DB9FF2807D10123C4F8E03406F1140377
:10122000C4F80035D7E7FFF731FE801B0528D2D977
:1012300084F8F4546FF0010070BD012D0ED1FE282A
:1012400001D10223C5E70023C4F8E03494F8F43454
:10125000002BC0D12046FFF7EFFEBCE7022D06D1E0
:101260000022C4F8EC24C4F8E40403221CE0032D9B
:1012700007D1D4F8E42402EB0023C4F8E4340423B7
:10128000A7E7042D0BD1404B1340002B03DA013BA1
:1012900063F0FF030133FF2B9AD1052399E7052D56
:1012A00007D1C4F8E8040622C4F8E024C4F8F00426
:1012B00091E7062D0ED1D4F8E82402EB0023C4F800
:1012C000E8340723C4F8E034D4F8E434002B82D1A6
:1012D00008237EE7082D7FF47EAF0023C4F8E034B6
:1012E000294B1340002B03DA013B63F0FF0301336A
:1012F000FF2B7FF470AFD4F8E83463B92046FFF7D2
:101300009BFE2046FFF7ACFEC4F8F864C4F8FC640A
:101310004FF0FF3070BD0A2B05D1204604F11801B3
:10132000FFF7FEFE57E7062B09D104F5A16004F193
:101330001801FFF7EAFC012384F804354BE70B2B77
:1013400003D1002384F8F43445E704EB8303D3F896
:10135000EC0200283FF43FAF036804F118011B685A
:10136000984738E794F8F40460B1D4F8F83440F6BC
:10137000C412F31A934204D92046FFF75DFEC4F865
:10138000F864002070BD00BFFF0000801FB5064B51
:10139000019303688DF8081003921B68072101AAC6
:1013A000984705B05DF804FB9079000063292DE9AA
:1013B000F04104460D4603DD90F8F464002E48D059
:1013C000136810461B6804F21F219847FF2283B25E
:1013D00084F81822FE22C0B284F819221A0A84F86E
:1013E0001B220244D24384F81D5245F3072584F89A
:1013F0001C2284F81A0284F81E5205220021981D2E
:10140000904205DBA018013290F818020144F6E77B
:1014100003F108070733BFB214FA83F3C943B7F5E2
:10142000007F83F818120DD804F506783E46002593
:10143000BD420EDA606818F8051003681B6898470B
:101440000135F5E720460321034AFFF79FFF4FF0E0
:10145000FF363046BDE8F081897C000010B50C20D5
:10146000002100F08DFE0B20002100F089FE0C20F1
:10147000022100F085FE0B2002213D4C00F080FE91
:101480000C203C49032200F0ADFE03220B203A4918
:1014900000F0A8FE6068A16803689B699847002374
:1014A0004FF46142C4F8E034C4F8E434C4F8EC34D6
:1014B000C4F8E834A26004EB8302D2F87C2442B979
:1014C0002B492E4A01EB83016433C1F87C2453601D
:1014D00002E00133192BEED1002304EB8302D2F892
:1014E0007C2442B92249264A01EB83016433C1F8C6
:1014F0007C24536002E00133192BEED1002304EB6E
:1015000083021B49D2F8182442B91E4A03F583709E
:101510007D3341F820209360D16002E00133192B24
:10152000EDD1002304EB83021149D2F8182442B90B
:10153000154A03F583707D3341F820209360D16014
:1015400002E00133192BEDD194F8F434084813B9B3
:10155000FFF728FEF8E701210C4AFFF717FF0C48B8
:1015600003F07EFE0520BDE8104000F08FBF00BFF5
:10157000AC8BFF1F450E0000690E00008892FF1F14
:10158000608AFF1F6892FF1FAC92FF1FC27C0000A1
:10159000E495FF1F38B50C4C0C4B0D4D1A680D49E6
:1015A000204605F09DFE284622460121FFF7EEFE6B
:1015B000094B0A491A68204605F092FE2846012187
:1015C0002246FFF7E3FE38BDDC91FF1FA48BFF1F0F
:1015D000AC8BFF1FD57C0000908BFF1FE77C0000C9
:1015E00073B56248624E634DFFF764FC6248FFF7D3
:1015F00061FC6248FFF75EFC4FF42A7300931721E9
:101600000E220F235E4803F0F5FF4FF45C73009346
:101610001621102211235B4803F0ECFF08234FF042
:101620007C540093E621584A584B594804F0E4F89A
:101630005849594A009623460195584804F04DF8F8
:101640005449554A009623460195554804F045F8FB
:10165000544B01935449554B00944FF07E525448DB
:1016600004F03BF8534B544A1A60544A5A604FF402
:1016700061429A605249C3F80815002283F8F424A5
:1016800083F80C25C3F8142583F81825C3F8202502
:1016900083F82425C3F82C25981804320021642AE5
:1016A000C0F81814F8D10A46981804320021642AA8
:1016B000C0F87C14F8D1581801310022B1F5007F30
:1016C0000276F8D1991801320025B2F5007F81F831
:1016D0001852F7D13B4C3C4B23603C4B236104F147
:1016E0001800FFF7E7FB04F13800FFF7E3FB384B86
:1016F000A365384BA360384B38491960012238493B
:10170000E2650026374CD9601A623749374AD961F9
:101710009A601E615E619E61354B2360354B63604C
:10172000354B6361A560E560256104F120002576F5
:101730006576A576FFF7BEFB04F14000FFF7BAFB24
:1017400004F16000FFF7B6FB2C4B2D4A1D6183E8C6
:1017500014002C4B2C4A1A602C492D4A5E609E6066
:10176000DE6082E80A00156102B070BD4892FF1F7A
:10177000CDCCCC3DCDCC4C3EE890FF1F8891FF1FD7
:10178000CC8AFF1FEC8AFF1FCDCC4C3D52B81E3EC9
:10179000188BFF1F00007FC300007F43A891FF1F2D
:1017A0001892FF1F9A99993E000080BFCDCC4C3F04
:1017B000608BFF1FAC8BFF1F507A0000D092FF1F81
:1017C000A8790000608AFF1F687A0000F0790000A5
:1017D00095080000FA7C00008892FF1F807A0000C4
:1017E000087A00000891FF1F1D0E0000027D000016
:1017F000387A0000207A0000AF800000AC92FF1F12
:10180000067D0000C092FF1FC07900000E7D000021
:101810006892FF1F38B5084C03460D46204619460E
:1018200003F0DBFE2046294603F04EFC2046BDE8CF
:10183000384003F0D5BE00BFE495FF1F70B50A4CD9
:1018400003460D4620461946164603F0C6FE2946B5
:10185000204603F039FC2046314603F035FC204693
:10186000BDE8704003F0BCBEE495FF1F08B5012140
:1018700020221E20FFF7E2FF052000F007FE0021D6
:1018800018221E20FFF7DAFF052000F0FFFD0221DD
:1018900001221E20FFF7D2FF052000F0F7FD0120F6
:1018A00008BDFFFF70B50D4C05460E462046294683
:1018B00003F093FE3146204603F006FC204603F079
:1018C0008FFE142000F0E2FD29460122204603F09D
:1018D0007FFE204603F020FCC0B270BDE495FF1FE0
:1018E00008B553200021FFF7DDFFE52819D12D2190
:1018F00008225320FFF7A2FF052000F0C7FD312189
:1019000009225320FFF79AFF052000F0BFFD2C218C
:1019100009225320FFF792FF052000F0B7FD0120B8
:1019200008BD002008BD10B568200021FFF7BAFFF0
:1019300000F07E04682C21D120463E218022FFF752
:101940007DFF052000F0A2FD204616211B22FFF797
:1019500075FF052000F09AFD204615211322FFF7A0
:101960006DFF052000F092FD20463E210322FFF787
:1019700065FF0A2000F08AFD012010BD002010BD87
:1019800010B5FFF7ADFF104C2076FFF7CCFF607667
:10199000FFF76CFF237EA07623B90C480C4A032185
:1019A000FFF7F4FC637E23B908480A4A0321FFF7D6
:1019B000EDFCA37E23B90548074A0321FFF7E6FCA7
:1019C000064B00221A7010BD0891FF1FAC8BFF1F41
:1019D000167D00002F7D0000447D00003C88FF1F25
:1019E00070B5234D0023532032212B70FFF712FFD7
:1019F00020485321062203F0EBFD1E481E4C03F045
:101A000081FB40B11B482E7803F086FB2B78A05554
:101A100001332B70F1E723786078184D43EA0020FA
:101A200000B203F01DF9164903F022FA02F092FF0A
:101A3000A378C5E90201E07843EA002000B203F090
:101A40000FF90F4903F014FA02F084FF2379C5E976
:101A50000401607943EA002000B203F001F908496B
:101A600003F006FA02F076FFC5E9060170BD00BF7B
:101A7000958BFF1FE495FF1F108BFF1F4892FF1FE0
:101A8000CDCCCC4170B5234D002368201D212B7097
:101A9000FFF7C0FE20486821062203F099FD1E488A
:101AA0001E4C03F02FFB40B11B482E7803F034FB93
:101AB0002B78A05501332B70F1E763782078184D0F
:101AC00043EA002000B203F0CBF8164903F01CF9FA
:101AD00002F040FFE378C5E90201A07843EA002064
:101AE00000B203F0BDF80F4903F00EF902F032FF27
:101AF0006379C5E90401207943EA002000B203F0CC
:101B0000AFF8084903F000F902F024FFC5E9060127
:101B100070BD00BF1492FF1FE495FF1F9C8BFF1F39
:101B2000E890FF1FD9239F3A70B5264D00231E2051
:101B300003212B70FFF76EFE23481E21062203F0BF
:101B400047FD2148214C03F0DDFA40B11E482E78B4
:101B500003F0E2FA2B78A05501332B70F1E763789C
:101B600094F900001A4D43EA002003F079F819496E
:101B700003F0CAF802F0EEFE6379C5E9020194F9B8
:101B8000040043EA002003F06BF8124903F0BCF8AC
:101B900002F0E0FEE378C5E9040194F9020043EAAB
:101BA000002003F05DF80B4903F0AEF802F0D2FE1E
:101BB0000122C5E906011E200221BDE87040FFF7A1
:101BC0003DBE00BF948BFF1FE495FF1FC08AFF1F1F
:101BD0008891FF1F1F856B3F37B5314C237E002B4B
:101BE0005BD0637E002B58D0A37E002B55D0FFF72F
:101BF0004DF92C4B4FF47A711D695B69B0FBF1F222
:101C0000154401FB12022849009501FB0232684687
:101C100001A9019203F0C4FE9DE8030004F10C0346
:101C200083E80300214B6361237E73B1FFF7D8FE85
:101C30001F49D1E90223C4E90A23D1E90423C4E9F5
:101C40000C23D1E90623C4E90E23637E144D73B13E
:101C5000FFF718FF1749D1E90223C5E91223D1E99B
:101C60000423C5E91423D1E90623C5E91623A37E7D
:101C70000B4D73B1FFF758FF0F49D1E90223C5E9B6
:101C80001A23D1E90423C5E91C23D1E90623C5E9B8
:101C90001E230A480249FFF703F903B030BD00BF15
:101CA0000891FF1FAC8BFF1F40420F005C7D0000BE
:101CB0004892FF1FE890FF1F8891FF1FAC92FF1F03
:101CC00030B5294C294D23688BB00193019A2B68BC
:101CD000D31A632B05D9FFF7FBF823680293029B05
:101CE0002B6023680393224B039A1B68D31AB3F526
:101CF000C87F01D3FFF74EF923681E4D0493049A61
:101D00002B68D31A632B06D9FFF768F9164B1B68AB
:101D10000593059B2B6023680693174B06991A6859
:101D20008A1A632A1D460BD9144B1B7813B1FFF78F
:101D300027FE01E0FFF750FF23680793079B2B6006
:101D400023680F4C0893089A2368D31AC72B06D927
:101D5000FFF720FC044B1B680993099B236009488B
:101D6000FFF720FA0BB030BDE092FF1FD891FF1FA4
:101D70000C8BFF1F1092FF1FC88AFF1F3C88FF1F9C
:101D8000A88BFF1FAC8BFF1F08B50368C9B21B6887
:101D9000984708BD08B50368C9B21B68984708BDD5
:101DA00008B50368C9B21B68984708BD08B5036841
:101DB000C9B21B68984708BD034800EB5100B0FB4F
:101DC000F1F000F0C9BB00BF0044950810B506480B
:101DD00000EB51001446B0FBF1F000F0BDFB2046D3
:101DE000BDE8104000F01CBC0044950800F042BC67
:101DF000084600F073BC084600F0C2BC0846114615
:101E000000F088BC08B5084600F0E0FC003018BFC0
:101E1000012008BD08B5084600F0FAFC003018BFE4
:101E2000012008BD00F0DEBD00F016BE00F0EABDE6
:101E300000F0BCBD00F028BE00F0C2BD08B50846E9
:101E400000F00CFD012008BD08B5084600F006FDB5
:101E5000012008BD10B508461446114600F048FDA3
:101E6000204610BD38B508460D4605F05DFA04461B
:101E70002146284600F03CFD204638BD7047FFFF54
:101E8000044B00221A714FF47A711A73024A996056
:101E90001A607047D092FF1F907D000008B5FFF7D1
:101EA000DDFAFFF70DFF01F00FFCFAE7844641EA87
:101EB000000313F003036DD1403A41D351F8043BC2
:101EC00040F8043B51F8043B40F8043B51F8043B14
:101ED00040F8043B51F8043B40F8043B51F8043B04
:101EE00040F8043B51F8043B40F8043B51F8043BF4
:101EF00040F8043B51F8043B40F8043B51F8043BE4
:101F000040F8043B51F8043B40F8043B51F8043BD3
:101F100040F8043B51F8043B40F8043B51F8043BC3
:101F200040F8043B51F8043B40F8043B51F8043BB3
:101F300040F8043B51F8043B40F8043B403ABDD222
:101F4000303211D351F8043B40F8043B51F8043BC4
:101F500040F8043B51F8043B40F8043B51F8043B83
:101F600040F8043B103AEDD20C3205D351F8043B53
:101F700040F8043B043AF9D2043208D0D2071CBF1F
:101F800011F8013B00F8013B01D30B880380604648
:101F9000704700BF082A13D38B078DD010F00303BE
:101FA0008AD0C3F10403D21ADB071CBF11F8013B2E
:101FB00000F8013B80D331F8023B20F8023B7BE77D
:101FC000043AD9D3013A11F8013B00F8013BF9D2A8
:101FD0000B7803704B7843708B7883706046704742
:101FE000024B1A6801321A60704700BFE092FF1F6F
:101FF00008B50B4C2368580301D500F0B7FE2368E1
:10200000590501D500F064FD23681A0501D501F0DA
:10201000DFFF2368DB04ECD502F05AFAE9E700BFE2
:102020003480044008B5FFF7E3FFFFFF014B1022A7
:102030001A807047002005407047FFFF024A13686E
:1020400018441060184670474088FF1FEFF3138351
:102050009BB9EFF3108098B9EFF3058323B10F2BF1
:1020600004D9084A985C01E04FF48070EFF31183C3
:102070003BB1834238BF184670474FF0FF3070477E
:1020800018467047F0E300E07047FFFF00F1404062
:10209000A0F592237C2B14D9A0F594237C2B12D984
:1020A000A0F596237C2B10D9A0F598237C2B06D97C
:1020B000A0F59A207D28064828BF002070470548D3
:1020C000704705487047054870470548704700BF8E
:1020D0001C89FF1FFC88FF1F4488FF1F7C88FF1F8F
:1020E000CC88FF1F0C4B03EBC00010B544682046A2
:1020F000FFF7CCFF70B172B6236823F0877323F427
:10210000803343F080732360C4F38404034B40F8AE
:10211000243062B610BD00BFE87D000089200000B9
:10212000044B054900221A600A60044A106010221C
:102130001A60704714D0034004D0034000D003401D
:10214000212810B518D80D4A52F8303093F8804243
:102150003CB1012211B183F8802010BD83F8002129
:1021600010BD02EBC00043681A6811B142F00302CF
:1021700001E022F002021A6010BD00BFE87D0000FD
:10218000212810B52BD8164A02EBC00301295B6841
:10219000144601D004290FD154F83020012082F8D0
:1021A00080024FF4A2721A601A6804290CBF42F030
:1021B000200222F0200211E052F83000002280F8C4
:1021C000802211B94FF4807208E0022902D140F256
:1021D000031203E0032908BF4FF481721A6010BD97
:1021E000E87D0000212870B50D463CD8042A3AD875
:1021F000DFE802F00709050B03000B2306E00A23C2
:1022000004E0082302E00C2300E009231E04164B1F
:1022100003EBC0035C68216811F4E06101D1FFF7B2
:10222000AFFF124B124AC3F89C21124AC3F8A021F7
:10223000114AC3F8A421114AC3F8A8212046104A24
:10224000C3F8AC21FFF722FF68B172B6226822F40E
:1022500070222260C4F3840342F08072164340F877
:102260002350266062B670BDE87D00000082FF1F2B
:102270001188FF1FE587FF1FB987FF1F8D87FF1F8D
:102280006187FF1F282838B5604A04460B4611D1E4
:1022900012780B2A04D8C2F10C0201FA02F304E00E
:1022A0000C2A1CBF0C3A41FA02F31846BDE838402C
:1022B00001F09ABB11780125002B05FA01F2D8BF75
:1022C000002102DD934205D32946FFF739FF20465E
:1022D000294697E00338C2B2012A01D84C4A06E0E9
:1022E000202C01D0192C01D14A4A00E04A4A126838
:1022F00002FB0332CA401D287BD8DFE800F0575F9D
:102300004E337A7A212A7A7A7A7A7A7A7A7A7A3C87
:10231000450F187A707A7A7A7A7A7A673F4B1A6020
:1023200003F5973340F2444203F5FA735FE03C4B08
:102330001A6003F5973340F2444203F5F87356E010
:10234000384B1A6003F5973340F2444203F5F673B5
:102350004DE0354B1A6003F5973340F2444203F5E4
:10236000F47344E0314B1A6003F59F3340F244426A
:1023700003F5F0733BE02E4B1A6003F59F3340F2F8
:10238000444203F5EE7332E02A4B1A6003F59F33A3
:1023900040F2444203F5EC7329E0274B1A6003F541
:1023A0009F3340F2444203F5EA7320E0234B1A6066
:1023B00003F580334FF45172203318E0204B1A603C
:1023C00003F580334FF451721C3310E01D4B1A603B
:1023D000A3F5DB234FF45172A3F5F96307E01A4B21
:1023E0001A60A3F5DB234FF45172A3F2CC731A6089
:1023F00038BD7F2B2046D4BF00210121FFF7A0FE6E
:1024000020460121BDE83840FFF7BABE2489FF1FEE
:102410000890034008800B40088003401080034070
:102420001880034020800340288003403080034010
:1024300038800340408003404880034010900340B0
:102440001890034010800B4018800B4072B60C4B64
:102450000C491A680C4B1B68096862B6490102D521
:10246000322A88BF0133C2F58C32482102F23F1272
:10247000B2FBF1F24FF47A7000FB0320704700BF0B
:1024800018E000E004ED00E0E092FF1F38B50446DC
:10249000FFF7DCFF054624B938BD013C0AD005F53D
:1024A0007A75FFF7D3FF401BB0F57A7FF5D201F0C4
:1024B0000BF9F6E738BDFFFF204B4FF4000210B5D3
:1024C0001A604FF080721A604FF000721A604FF07D
:1024D00080621A604FF000621A60194B194A1A4C58
:1024E000002048F6FF71186059602823136093603C
:1024F00013619361136293621363936309222260F1
:1025000004F58054043420606160A360236144F8C2
:10251000042C04F5FE2420600C4801600C490B607B
:102520008B600C4B1A6001F003FA4FF4C870FFF790
:10253000ADFFBDE8104000F017BF00BF08E100E0AC
:10254000048003400C8003400080034008800B405F
:102550000C800B4000800B40234B1A6842F48062D1
:102560001A60224A00231370214A1370214A137003
:10257000214A1370214A1370214B1B782BB1152B64
:1025800007D140F213321F4B02E01F4B40F21332CF
:102590001A601E4B1B78012B05D0052B07D14FF479
:1025A00051721B4B02E01B4B4FF451721A601A4BD5
:1025B000C0F344321A70C0F347125A700221042249
:1025C00000F01F0098729A70D9745A7588221A7494
:1025D0003C22DA70114B40226FF44A711A700B449E
:1025E0004FF400521A607047348004406B93FF1F11
:1025F000E992FF1F7493FF1F6C93FF1FE892FF1F68
:102600002A93FF1F18C0044040A004402589FF1FE3
:102610001CC0044044A0044000A006402DE400E09B
:10262000134A937800F0030103F0EC030B434107D6
:1026300048BF43F01003937000F00F03042B0C49C4
:1026400003D18B7943F040038B715379C20603F0B9
:10265000EF03074A48BF43F0100353719379810693
:1026600003F0EF0348BF43F010039371704700BFBE
:1026700000A0064008B5114B1B685B0500D408BDDF
:102680000F4B1A7802F0FF0312B101F01DF8F7E7C3
:102690000C4A4FF4005111600B4A0C49D37040F2C0
:1026A00003120A604A600A4A13700A4A13700A4BFE
:1026B0001B680BB101221A7008BD00BF34800440B2
:1026C000E892FF1F84E100E000A0064040A0044023
:1026D0006B93FF1FE992FF1FE492FF1F38B504467A
:1026E000094B1B7803F0FF05002BF9D1204601218F
:1026F000FFF746FD20462946FFF722FD034B53F81E
:102700003420034B1A6038BDE892FF1FE87D0000BB
:102710007093FF1F10B509B140F08000144A137880
:102720009842144622D0134A126852051DD503F070
:102730007F03012B04D0052B05D100220E4B01E0B5
:102740000E4B00221A60002900F07F020CBF4423C8
:102750006023012A05D0052A07D143F44073064AB5
:1027600002E0064A43F440731360207010BD00BFBE
:102770002589FF1F348004401CC0044044A004404D
:102780000E4A1378984218D00D490968490513D5A7
:102790002BB1152B05D10B4B0021196001E00A4923
:1027A0000B6028B1152807D140F21331054B02E028
:1027B000054B40F213311960107070472A93FF1FC8
:1027C0003480044018C0044040A004400D4A38B58D
:1027D000146814F480624FF0000410D021280A4DD0
:1027E0000AD80A4A012152F830302B60FFF7C8FCA2
:1027F0002B681C70012038BD2C60204638BD104667
:1028000038BD00BF34800440E492FF1FE87D000023
:102810000E4B1B6813F4806316D012280C4B03D1A7
:1028200040F202310B4A04E0142809D10A4A40F26E
:10283000023111605A7B42F001025A730120704745
:102840005A7B02F0FE025A73002070473480044025
:1028500000A006400CA0044014C00440F8B51D4B75
:102860001B685A05064633D51B4B1B680BB101226A
:102870001A701A4B1C780134402C1F4628BF0024C4
:10288000174D2B78A34218D1FFF7E0FB40280FDC4F
:10289000144A13791B06F3D52B7813490133402BC7
:1028A00028BF0023C95CDBB2C9B2D1712B70E7E746
:1028B000FF28E5DD00F008FFE2E70B4BF6B21E55FE
:1028C0000A4B01221A70074BE4B2BC223C70DA704A
:1028D000F8BD00BF348004407093FF1F7493FF1F46
:1028E0006C93FF1F00A00640EA92FF1FE892FF1FB3
:1028F000274B1B685A052DE9F04707468A4644D501
:10290000244B1B680BB101221A703D4607EB0A03EA
:102910009D4237D2DFF890801F4E98F8004096F81D
:1029200000900134402C28BF00245FFA89F9A145AA
:102930001DD11A4BBC22DA70FFF788FB40280FDC50
:10294000164A13791B060FD5337815490133402BEE
:1029500028BF0023C95CDBB2C9B2D171337003E078
:10296000FF2801DD00F0B0FE33784B45E4D00C4B7E
:1029700015F8012B1A550B4B0122E4B21A7088F896
:102980000040C3E7054BBC22DA70BDE8F08700BF0A
:10299000348004407093FF1F6C93FF1F00A006401B
:1029A000EA92FF1FE892FF1F7493FF1F08B5034BC5
:1029B0001B7813B100F088FEF9E708BDE892FF1F0D
:1029C000064A074B1B781078DBB2C0B283422CBF9B
:1029D0003F3000F1FF30C01A704700BF6C93FF1FFB
:1029E0007493FF1F054B1878054B1B78C0B2DBB200
:1029F000984238BF4030C01A704700BF6B93FF1F2A
:102A0000E992FF1F10B5104B10491A780B78D2B21B
:102A1000DBB29A4214D00133402B28BF00230C486C
:102A2000DCB2C05C0C700B490968C0B251B19A426B
:102A300038BF4032D31A1A2B04DC00230B7010BDB0
:102A40004FF0FF3010BD00BF6B93FF1FE992FF1FD7
:102A50002B93FF1FE492FF1F084B1A78084B1B783B
:102A6000DBB29A4207D00133402B28BF0023054A2E
:102A7000D05CC0B270474FF0FF3070476B93FF1FC0
:102A8000E992FF1F2B93FF1F0C4B1B685B0514D5AE
:102A90000B4BDA7802F0CB02DA7040225A74DA7803
:102AA00042F03402DA70074B1A78074BD2B21A7030
:102AB000064B1B680BB100221A707047348004402B
:102AC00000A00640E992FF1F6B93FF1FE492FF1FD7
:102AD00030B5374B1A7912F0300F31D072B69A7D7B
:102AE00002F0FF0022B9DA7940225A7462B627E078
:102AF00062B6304A304913780978DBB2C9B214465D
:102B00002B4AD5795A1C402A28BF00228A42EDB2AE
:102B100002D02A4B9D541346421E12F0FF00EFD103
:102B2000DAB22270264A126852B18B4236BFC1F126
:102B30004001C1EB03035B18272BC4BF01231370B3
:102B40001B4BD978C9B20C0620D51B7918061DD5A8
:102B50001C4B1D4A1D781378EDB2DBB21046AB4218
:102B60000CD0134A0133402B1479184C28BF002392
:102B7000E45CE4B2D471127D072AF0D9DBB20370B1
:102B80000B4B1A79120644BF7C22DA704B060ED525
:102B9000074B1A7912F0400F194608D00C4B00224F
:102BA0001A700C4B1B6803B11A703C23CB7030BDFC
:102BB00000A006406B93FF1FE992FF1F2B93FF1F9E
:102BC000E492FF1F7493FF1F6C93FF1FEA92FF1F95
:102BD000E892FF1F7093FF1FF0B50C4B0C4C1A7856
:102BE00042F0020504EBC50682F00102706009485C
:102BF0001A700678002E0CBF8827C82786F00106B9
:102C000047EA0141067044F83510F0BDE093FF1F1C
:102C10000080FF1F5894FF1F431E032B10B510D8D0
:102C200072B6094A52F8230048B1416842F82310AD
:102C3000064A018832F81340611A22F8131062B66E
:102C400010BD002010BD00BFD093FF1F0496FF1FD2
:102C5000013803280AD872B6054B53F820300020FB
:102C600013B101305B68FBE762B670470020704724
:102C70002494FF1F10B572B60123174A1A4412F8A4
:102C8000012C12071CD59900144A52F831402CB976
:102C900002EB431308305860114B09E041F0010189
:102CA00052F8314064B902EBC103083058600D4B53
:102CB00042F831300C4B1A78013A1A7062B610BDE6
:102CC0000133052BD9D162B6074B00221A70BDE83B
:102CD000104000F0A7BB00BFB87F00000080FF1FBE
:102CE00088004000C80040004E94FF1F431E032B85
:102CF00030B532D8194A400140F01000104472B685
:102D0000174CE25C032A09D8DFE802F01602180526
:102D10000830022213E00830042210E01148124A61
:102D200050F8234014B940F8231002E052F8230071
:102D3000416042F823100FE0032200E00522E25434
:102D400010F0080F01F108030A8843600CBF8823C4
:102D5000C82343EA0243036062B630BD0080FF1F10
:102D60008C93FF1F2494FF1F3494FF1F2DE9F84F0D
:102D7000AB4F3C78E4B214F0040F3D4619D0A94B98
:102D80001B78A3B1A84A117801F0FF0321B1013BE0
:102D9000DBB2137003B900BEA44A117801F0FF033F
:102DA00029B1013BDBB213700BB900F069FC0423BD
:102DB0003B7004F0080303F0FF02002B00F0678271
:102DC0009B4B9C4C1A78D2B215094FEA920840F0FE
:102DD000E48104EBC803596854F83830C3F3830323
:102DE000013B0C2B00F2D681DFE813F09501950131
:102DF000D401D401D401D401D401D401B001D4014F
:102E0000D401D4010D008C4D0A684B688B486B606F
:102E100001218B4B44F838302A60DFF85082017072
:102E200092B240F2816000238242C8F800302361F0
:102E3000A36117D8B2F5D06F80F01E81B2F5817F03
:102E400000F0CF8006D8802A00F0BA80822A00F0F5
:102E5000BB8031E140F202339A4200F0D180B2F5FA
:102E6000A06F1CE042F22100824200F051810ED896
:102E7000B2F5086F00F09E80B2F5106F40F01C8133
:102E8000684B6C4EAA781A7006F180090AE042F28B
:102E900021218A4200F0088142F221339A4200F057
:102EA0000F8109E1336A1B0603D5706A083800F008
:102EB000B9FA08364E45F5D10026B146DFF8B0A183
:102EC00056F80A0028B1D0F804B000F0ABFA584622
:102ED000F8E74AF806005B4BDFF898A1F05056F887
:102EE0000A0028B1D0F804B000F09CFA5846F8E780
:102EF000554B4AF80600F050544B23F81900544B38
:102F000019F80320023A032A08D8DFE802F0020485
:102F10000204002200E0012203F8092009F101095E
:102F2000B9F1040F06F10406C8D14A4B00221A7009
:102F300001269A46484A494B3244334412F8012C40
:102F40009B0012F0080F1A704FEA860925D000F096
:102F50004BFA38B104EB461308305860404B44F844
:102F6000393006E09AF8003044F8390001338AF825
:102F7000003000F039FA49F0010338B104EBC30224
:102F8000083050602E4A44F8332006E044F83300FD
:102F90009AF8003001338AF8003049F00202013615
:102FA00049F003090023052E44F8323044F8393043
:102FB000C0D186E01B4B2B4C1B7823700B4683E063
:102FC000284C237063707EE0AA88042A74D8254CAC
:102FD000920023706370244B9B5C9E0773D5217015
:102FE00071E0AA8802F07F02042A65DC6B88002B5E
:102FF00062D191001C4A0A44117821F0020159E083
:10300000AA8802F07F02042A56DC6B88002B53D179
:103010009100154A0A44117841F002014AE000BFCC
:10302000802007405794FF1FE193FF1F5994FF1F13
:10303000902007400080FF1F4494FF1F5894FF1FFB
:10304000C80040007C93FF1F3494FF1F0496FF1FAD
:103050008C93FF1F4E94FF1FB87F000030C80110F3
:10306000880040004F94FF1FC02007407893FF1F47
:10307000D093FF1F2494FF1F6A88A9889F4B53F8A1
:10308000084CA3F10C00BCB133F80C6C964209D18A
:1030900033F80A6C8E4205D1120A032A0CBF23783A
:1030A000038911E00C33EAE7954A1168954A1160EB
:1030B000A978954A117004E0944B0F221A7027E00A
:1030C00000231C4600E00223EE88B34238BF1E46B0
:1030D000402E34BF3546402520462946FFF77CFD6B
:1030E000761B2C4403D1402D12D1354603E0402EEF
:1030F00034BF3546402520462946FFF76DFD761B37
:103100002C4401D1402D03D1814AC8F800401680DB
:103110000122804B3DE0804B1A8842F221039A4203
:1031200010D100237D4AC85C98540133072BF9D194
:103130001368862B02D17A4B0F221A7000200146A9
:10314000FFF74AFD774B44F8383023E0764E356878
:10315000B5B1DFF8BC81B8F80090B9F1400F34BFC9
:103160004C46402428462146FFF736FDC4EB0903B0
:103170009BB2A8F800300BB9402C00D12B1933605A
:10318000654B1A88B2F5A06F04D100225A709A7864
:10319000664B1A7001225F4B6CE004EBC806013DE0
:1031A000736802F00802A3F10800EDB202F0FF011B
:1031B000002A36D000F036F95D485E4B50F82520E5
:1031C000EAB1516840F8251002F108017160595DBB
:1031D00003290BD8DFE801F002040608032104E00C
:1031E000022102E0052100E00421595516F0080FE4
:1031F00012880CBF8823C82343EA024342E05A5D89
:10320000032A07D8DFE802F040400204002206E06B
:10321000012204E016F0080F0CBF022203225A55C7
:1032200032E054F83820120C23F8082C22B3DFF8CF
:1032300034E123F8061C43F8041C5EF825303E49AF
:1032400013B94EF8250002E051F8253058603B4B89
:1032500041F8250033F815100A4423F8152000F032
:10326000C3F810B10830706006E0354B44F8380000
:103270001A7801321A7007E02A4B324A16F0080F0A
:1032800008BF134644F8383008233B7070E5E00768
:103290001FD520492B482C4C02230B702B4B1A7046
:1032A0002B4B186098602B48D8601A619A615C605B
:1032B000164B0D2018702848FF2303702B700274E2
:1032C000264A1370264B9F221A7001230B70BDE80B
:1032D000F88F210604D50D4B0D221A7080232B7018
:1032E000A20705D51C4B1A78D2B21A7002232B7094
:1032F000E30644BF10232B70BDE8F88FC87F0000A1
:10330000E092FF1F1496FF1F6894FF1FC020074024
:103310004C94FF1F942007404494FF1F0C96FF1FFE
:10332000E193FF1FC80040007893FF1F98200740DB
:103330002494FF1F8C93FF1F7C93FF1F0496FF1F95
:103340004E94FF1F880040009093FF1FE093FF1FE3
:103350000080FF1FE493FF1F882007408C20074058
:1033600084200740D093FF1F08B501F019F900220F
:103370001A4B0021D15098180832882A4160F7D1A1
:10338000174A106840F48020106002F52832683235
:10339000C3F307201070C3F307401B0E107513769C
:1033A000FF2302F81C3C02F8143C02F88C3C012379
:1033B00002F8083C82F8641002F8183C094B7022AD
:1033C0006FF450711A700B444FF400721A6003F1DD
:1033D000C04303F5C82310221A7008BD0080FF1FE8
:1033E0003480044049E400E072B60C4A1168B1FA36
:1033F00081F30B2B02D962B6002070474FF00040DA
:10340000D84021EA0001116062B6054948225343C1
:10341000C8180022CA504260704700BF2889FF1FA9
:103420000084FF1F0C4B4822C31AB3FBF2F30B2B93
:1034300011D80A4A127822B1094A12780AB1FFF764
:1034400019BC72B6074A4FF0004121FA03F3116824
:103450001943116062B670470084FF1F4E94FF1F2E
:103460005794FF1F2889FF1F10B5104C23686BB1BC
:1034700020684288531C0244147A0288934212D373
:10348000FFF7D0FF094B00221A600DE0084B1B78B4
:1034900013B94FF0FF3010BD0320FFF7BDFB2060D4
:1034A0000028E5D1F5E74380204610BD6494FF1F56
:1034B0005794FF1F10B50B4C236813B123686BB9E9
:1034C00002E0094B1B7813B94FF0FF3010BD032009
:1034D000FFF7A2FB20600028F0D1F5E75A881344DB
:1034E000187A10BD6494FF1F5794FF1F044B9888EF
:1034F000044B1B681BB11A885B88D31A18447047A9
:103500000496FF1F6494FF1F10B5094B1B786BB125
:10351000084C206818B1FFF785FF002323600320C3
:10352000FFF77AFB10B1FFF77DFFF8E710BD00BF92
:103530005794FF1F6494FF1F2DE9F0472E4E01237F
:103540000746894633700C46002C50D02B4D2B6813
:10355000AA462BBB48F60148294B1B7803F0FF0213
:103560000BB9327015E00420FFF772FB072808D86A
:1035700001233370FFF738FFCAF8000080B91E4BF3
:103580001870B8F101081F4B01D01A782AB1012236
:103590001A704FF0FF30BDE8F08700F095F8DBE7D8
:1035A000184B00221A702B685888C0F140018C42D9
:1035B00038BF214600F1080C08449C445880641A26
:1035C0008A4204D0B85C0CF802000132F8E71744D4
:1035D0005A883F2A07D940221A8019460420FFF74B
:1035E00085FB00232B60084B05221A70ACE7347072
:1035F0004846BDE8F08700BF5A94FF1F5C94FF1F48
:103600005794FF1F6094FF1F5994FF1F07B502AB2B
:10361000012103F8010D1846FFF78EFF03B05DF896
:1036200004FBFFFF2DE9F041114B1B78F3B1114E64
:10363000114B3468114D01271F7098464CB100277B
:1036400063882F70042023802146FFF74FFB3760EB
:1036500009E0FFF7C9FE014620B104202C70FFF7F6
:1036600045FB00E02F70002388F80030BDE8F081B2
:103670005794FF1F5C94FF1F5A94FF1F5994FF1F1C
:1036800038B50E4B1B7803F0FF05ABB90C4C216825
:1036900031B14B880B800420FFF728FB256038BD33
:1036A000FFF7A2FE014620B10420BDE83840FFF735
:1036B0001DBB044B01221A7038BD00BF5A94FF1F76
:1036C0005C94FF1F5994FF1F10B50E4C2378BBB9B3
:1036D00001232370FFF70AFF08B100F0AAFFFFF7EC
:1036E00081F908B1FEF7CAFB00F0FCFB08B100F05D
:1036F00085F800F089FE08B100F00AF90023237074
:1037000010BD00BF6994FF1F08B50368C9B21B68EC
:10371000984708BD08B50368C9B21B68984708BD3B
:1037200008B50368C9B21B68984708BD08B50368A7
:10373000C9B21B68984708BD034800EB5100B0FBB5
:10374000F1F000F06BB900BF0044950810B50648D1
:1037500000EB51001446B0FBF1F000F05FF9204699
:10376000BDE8104000F0BEB90044950800F0E4B98F
:10377000084600F039BA084600F088BA08461146F3
:1037800000F04EBA08B5084600F0A8FA003018BF9D
:10379000012008BD08B5084600F0C2FA003018BF85
:1037A000012008BD00F09EBB00F0D6BB00F0AABB14
:1037B00000F07CBB00F0E8BB00F082BB08B5084617
:1037C00000F0CCFA012008BD08B5084600F0C6FAA2
:1037D000012008BD10B508461446114600F008FB4C
:1037E000204610BD38B508460D4603F09DFD044641
:1037F0002146284600F0FCFA204638BD7047FFFFFE
:10380000044B00221A714FF47A711A73024A9960BC
:103810001A6070476C94FF1F007F000008B50368B2
:10382000C9B21B68984708BD08B50368C9B21B68D0
:10383000984708BD08B50368C9B21B68984708BD1A
:1038400008B50368C9B21B68984708BD034800EB78
:103850005100B0FBF1F000F03FBC00BF00A24A04F1
:1038600010B5064800EB51001446B0FBF1F000F033
:1038700033FC2046BDE8104000F070BC00A24A04B2
:1038800000F096BC084600F0C7BC084600F008BD32
:103890000846114600F0DCBC08B5084600F002FD01
:1038A000003018BF012008BD08B5084600F01CFD17
:1038B000003018BF012008BD00F0A6BD00F0DEBD3D
:1038C00000F0B2BD00F084BD00F0F0BD00F08ABD94
:1038D00008B5084600F026FD012008BD08B50846D9
:1038E00000F020FD012008BD10B508461446114621
:1038F00000F062FD204610BD38B508460D4603F0C5
:1039000013FD04462146284600F056FD204638BDEA
:103910007047FFFF044B00221A714FF47A711A733B
:10392000024A99601A6070477C94FF1F607F000014
:1039300010B5204B2048214960221A70E1225A70AC
:103940001F4B204A1C78204B082C01D1012402E097
:103950000A2C03D119240460132005E00C2C0CBFA1
:1039600015243D2404601220086014601860174B71
:1039700017491B78174A03B101230B601360164BDC
:10398000164A1978164B012901D880210BE0042929
:1039900001D8842107E0082901D8852103E01029F6
:1039A00094BF86218721116019600E4B01221A7085
:1039B00010BD00BF0040074008B003400CB00340FA
:1039C0002C89FF1F08B00B400CB00B408D94FF1FDB
:1039D00020B0034020B00B402D89FF1F24B00340CE
:1039E00024B00B408C94FF1F084B1A6842F480529D
:1039F0001A60074B1A78074B0AB1802200E0C022F8
:103A00001A70054B80F30C00188070472C8004401E
:103A10008D94FF1F21C00C4000C00C40234B1A683E
:103A200042F400621A60224A00231370214A137084
:103A3000214A1370214A1370214A1370214B1B78BD
:103A4000092B05D01A2B07D140F213321E4B02E08E
:103A50001E4B40F213321A601D4B1B780A2B05D007
:103A60001F2B07D14FF451721A4B02E01A4B4FF43F
:103A700051721A60194BC0F344321A70C0F34712E6
:103A80005A7000F01F000422022198729A70D974B3
:103A90005A7588221A743C22DA70114B40221A702F
:103AA000A3F22B334FF400421A6070473480044075
:103AB000FE94FF1F9594FF1F0495FF1FFF94FF1FA7
:103AC0009494FF1F2E89FF1F04D004400CB00440C3
:103AD0002F89FF1F00D0044010B0044000B0064002
:103AE0002FE400E0134A937800F0030103F0EC03A5
:103AF0000B43410748BF43F01003937000F00F03DE
:103B0000042B0C4903D18B7943F040038B7153791B
:103B1000C20603F0EF03074A48BF43F01003537196
:103B20009379810603F0EF0348BF43F010039371CC
:103B3000704700BF00B0064008B51E4B1B681B0550
:103B400000D408BD1C4B1B7803F0FF0213B1FFF734
:103B5000BBFDF7E7194B4FF400411960184BDA70C1
:103B6000184B1B78092B05D01A2B07D140F20312F2
:103B7000154B02E0154B40F203121A60144B1B78F0
:103B800003F07F030A2B05D01F2B07D140F203124D
:103B9000104B02E0104B40F203121A600F4A002350
:103BA00013700F4A13700F4B1B680BB101221A7070
:103BB00008BD00BF348004409494FF1F84E100E0FE
:103BC00000B006402E89FF1F04D004400CB0044012
:103BD0002F89FF1F00D0044010B00440FE94FF1F47
:103BE0009594FF1F9094FF1F38B50446094B1B782E
:103BF00003F0FF05002BF9D120460121FEF7C0FAA2
:103C000020462946FEF79CFA034B53F83420034B19
:103C10001A6038BD9494FF1FE87D00000095FF1FD7
:103C200010B509B140F08000144A13789842144648
:103C300022D0134A126812051DD503F07F030A2B08
:103C400004D01F2B05D100220E4B01E00E4B0022A9
:103C50001A60002900F07F020CBF442360230A2A67
:103C600005D01F2A07D143F44073064A02E0064AF2
:103C700043F440731360207010BD00BF2F89FF1FF5
:103C80003480044000D0044010B004400F4A137840
:103C900098421AD00E490968090515D5092B04D098
:103CA0001A2B05D100210B4B01E00B4B00211960B1
:103CB000092805D01A2807D140F21331054B02E03C
:103CC000054B40F213311960107070472E89FF1FA9
:103CD0003480044004D004400CB004400D4A38B590
:103CE000146814F400624FF0000410D021280A4D2B
:103CF0000AD80A4A012152F830302B60FEF740FA08
:103D00002B681C70012038BD2C60204638BD104641
:103D100038BD00BF348004409094FF1FE87D000050
:103D20000B4B1B6813F4006310D01728094B09D103
:103D3000094A40F2023111605A7B42F001025A7383
:103D4000012070475A7B02F0FE025A730020704730
:103D50003480044000B0064008B00440F8B51D4B64
:103D60001B681A05064633D51B4B1B680BB1012295
:103D70001A701A4B1C780134282C1F4628BF0024C7
:103D8000174D2B78A34218D1FEF760F940280FDCBD
:103D9000144A13791B06F3D52B7813490133282BCA
:103DA00028BF0023C95CDBB2C9B2D1712B70E7E731
:103DB000FF28E5DDFFF788FCE2E70B4BF6B21E5566
:103DC0000A4B01221A70074BE4B2BC223C70DA7035
:103DD000F8BD00BF348004400095FF1F0495FF1F0D
:103DE000FF94FF1F00B006409694FF1F9494FF1F9E
:103DF000274B1B681A052DE9F04707468A4644D52C
:103E0000244B1B680BB101221A703D4607EB0A03D5
:103E10009D4237D2DFF890801F4E98F8004096F808
:103E200000900134282C28BF00245FFA89F9A145AD
:103E30001DD11A4BBC22DA70FEF708F940280FDCBE
:103E4000164A13791B060FD5337815490133282BF1
:103E500028BF0023C95CDBB2C9B2D171337003E063
:103E6000FF2801DDFFF730FC33784B45E4D00C4BE5
:103E700015F8012B1A550B4B0122E4B21A7088F881
:103E80000040C3E7054BBC22DA70BDE8F08700BFF5
:103E9000348004400095FF1FFF94FF1F00B00640D0
:103EA0009694FF1F9494FF1F0495FF1F08B5034BC2
:103EB0001B7813B1FFF708FCF9E708BD9494FF1FC6
:103EC000064A074B1B781078DBB2C0B283422CBF86
:103ED000273000F1FF30C01A704700BFFF94FF1F6A
:103EE0000495FF1F054B1878054B1B78C0B2DBB259
:103EF000984238BF4030C01A704700BFFE94FF1F81
:103F00009594FF1F10B5104B10491A780B78D2B258
:103F1000DBB29A4214D00133402B28BF00230C4857
:103F2000DCB2C05C0C700B490968C0B251B19A4256
:103F300038BF4032D31A1A2B04DC00230B7010BD9B
:103F40004FF0FF3010BD00BFFE94FF1F9594FF1F80
:103F5000BE94FF1F9094FF1F084B1A78084B1B78E4
:103F6000DBB29A4207D00133402B28BF0023054A19
:103F7000D05CC0B270474FF0FF307047FE94FF1F17
:103F80009594FF1FBE94FF1F0C4B1B681B0514D597
:103F90000B4BDA7802F0CB02DA7040225A74DA78EE
:103FA00042F03402DA70074B1A78074BD2B21A701B
:103FB000064B1B680BB100221A7070473480044016
:103FC00000B006409594FF1FFE94FF1F9094FF1FC2
:103FD00030B5374B1A7912F0300F31D072B69A7D66
:103FE00002F0FF0022B9DA7940225A7462B627E063
:103FF00062B6304A304913780978DBB2C9B2144648
:104000002B4AD5795A1C402A28BF00228A42EDB299
:1040100002D02A4B9D541346421E12F0FF00EFD1EE
:10402000DAB22270264A126852B18B4236BFC1F111
:104030004001C1EB03035B18272BC4BF012313709E
:104040001B4BD978C9B20C0620D51B7918061DD593
:104050001C4B1D4A1D781378EDB2DBB21046AB4203
:104060000CD0134A0133282B1479184C28BF002395
:10407000E45CE4B2D471127D072AF0D9DBB203709C
:104080000B4B1A79120644BF7C22DA704B060ED510
:10409000074B1A7912F0400F194608D00C4B00223A
:1040A0001A700C4B1B6803B11A703C23CB7030BDE7
:1040B00000B00640FE94FF1F9594FF1FBE94FF1FA3
:1040C0009094FF1F0495FF1FFF94FF1F9694FF1FFE
:1040D0009494FF1F0095FF1F174B1A6842F48052FB
:1040E0001A60164A00231370154A1370154A13708C
:1040F000154A1370154A1370154A40F213311160B6
:104100004FF451715160134AC0F344311170C0F340
:10411000471100F01F0051709072937013742C239C
:10412000D3700D4B40226FF44B711A700B444FF457
:1041300000321A60704700BF348004407695FF1F3C
:104140000D95FF1F7C95FF1F7795FF1F0C95FF1F97
:1041500008C0044000C0064031E400E0134A9378F0
:1041600000F0030103F0EC030B43410748BF43F0A9
:104170001003937000F00F03042B0C4903D18B79CB
:1041800043F040038B715379C20603F0EF03074AF3
:1041900048BF43F0100353719379810603F0EF0396
:1041A00048BF43F010039371704700BF00C0064042
:1041B00008B5114B1B68DB0400D408BD0F4B1A78FF
:1041C00002F0FF0312B1FFF77FFAF7E70C4A4FF452
:1041D000003111600B4A0C49D37040F203120A609F
:1041E0004A600A4A13700A4A13700A4B1B680BB1E3
:1041F00001221A7008BD00BF348004400C95FF1FD7
:1042000084E100E000C0064008C004407695FF1F2E
:104210000D95FF1F0895FF1F38B50446094B1B7805
:1042200003F0FF05002BF9D120460121FDF7A8FF7F
:1042300020462946FDF784FF034B53F83420034BF7
:104240001A6038BD0C95FF1FE87D00007895FF1FB0
:1042500010B509B140F080000E4A1378984217D08B
:104260000D4C2468E40412D503F07F03082B02D11F
:104270000A4B00241C60002900F07F030CBF44217E
:104280006021082B03D1054B41F440711960107077
:1042900010BD00BF3089FF1F348004400CC00440B3
:1042A0007047FFFF0D4A38B5146814F480524FF080
:1042B000000410D021280A4D0AD80A4A012152F8D8
:1042C00030302B60FDF75CFF2B681C70012038BD7F
:1042D0002C60204638BD104638BD00BF34800440F5
:1042E0000895FF1FE87D00000B4B1B6813F48053FB
:1042F00010D00E28094B09D1094A40F20231116051
:104300005A7B42F001025A73012070475A7B02F037
:10431000FE025A73002070473480044000C00640FB
:1043200004C00440F8B51D4B1B68DA04064633D5BB
:104330001B4B1B680BB101221A701A4B1C780134FD
:10434000282C1F4628BF0024174D2B78A34218D1D4
:10435000FDF77CFE40280FDC144A13791B06F3D5C9
:104360002B7813490133282B28BF0023C95CDBB20B
:10437000C9B2D1712B70E7E7FF28E5DDFFF7A4F99B
:10438000E2E70B4BF6B21E550A4B01221A70074B9F
:10439000E4B2AC223C70DA70F8BD00BF3480044057
:1043A0007895FF1F7C95FF1F7795FF1F00C0064083
:1043B0000E95FF1F0C95FF1F38B504464518AC42FB
:1043C00004D014F8010BFFF7ADFFF8E738BDFFFF8D
:1043D00008B5034B1B7813B1FFF776F9F9E708BD71
:1043E0000C95FF1F064A074B1B781078DBB2C0B252
:1043F00083422CBF273000F1FF30C01A704700BF46
:104400007795FF1F7C95FF1F054B1878054B1B7890
:10441000C0B2DBB2984238BF4030C01A704700BF0C
:104420007695FF1F0D95FF1F10B5104B10491A7898
:104430000B78D2B2DBB29A4214D00133402B28BFA2
:1044400000230C48DCB2C05C0C700B490968C0B298
:1044500051B19A4238BF4032D31A1A2B04DC0023E0
:104460000B7010BD4FF0FF3010BD00BF7695FF1FE1
:104470000D95FF1F3695FF1F0895FF1F084B1A78F3
:10448000084B1B78DBB29A4207D00133402B28BF80
:104490000023054AD05CC0B270474FF0FF30704730
:1044A0007695FF1F0D95FF1F3695FF1F054B1A7858
:1044B000054BD2B21A70054B1B680BB100221A7063
:1044C000704700BF0D95FF1F7695FF1F0895FF1FD2
:1044D00010B5294B1A79920620D5284AD879137835
:1044E00027490133402B097828BF00238B42C0B2F3
:1044F00003D02449C854D9B21170234A116869B154
:10450000224A1278D2B2934236BFC2F14002C2EBC5
:1045100003039B18272BC4BF01230B70164AD178C5
:10452000C9B20C0616D51379180613D5184B1748BF
:104530001C780378DBB29C4202D16C23D37009E073
:104540000133282B28BF0023124CE45CDBB2E4B219
:10455000D47103704B060ED5074B1A7912F0400F39
:10456000194608D00C4B00221A700C4B1B6803B183
:104570001A702C23CB7010BD00C006407695FF1F2B
:104580000D95FF1F3695FF1F0895FF1F7795FF1F9D
:104590007C95FF1F0E95FF1F0C95FF1F7895FF1F41
:1045A0001FB572B6154B70221A70154A4121117051
:1045B0000F2102F8011C80221A701A781206FCD50D
:1045C000104B186862B6104B984298BF0A2301AC92
:1045D00098BF584321460A2200F03AF80023E15CD4
:1045E0000A4A29B102EB430001330A2B4180F6D17C
:1045F00001335B00137004B010BD00BF0000024027
:1046000007000240080002407F969800BA89FF1F09
:10461000FEF76CBFFEF728BFFEF74CBFFFF702B8EE
:10462000FEF772BF0846FEF7F1BF08461146FEF7D7
:1046300083BF7047044B00221A714FF47A711A73CA
:10464000024A99601A6070478095FF1F1880000029
:1046500010B50023B0FBF2F402FB1400092894BF4C
:1046600030303730C0B2C85420460CB10133F1E7C6
:10467000CA18547022469A4206DA885CCC5C8C5484
:10468000C8540132013BF6E7084610BD81F00041F5
:1046900002E000BF83F0004330B54FEA41044FEA27
:1046A000430594EA050F08BF90EA020F1FBF54EAC2
:1046B000000C55EA020C7FEA645C7FEA655C00F05E
:1046C000E2804FEA5454D4EB5555B8BF6D420CDD2F
:1046D0002C4480EA020281EA030382EA000083EAB2
:1046E000010180EA020281EA0303362D88BF30BD52
:1046F00011F0004F4FEA01314FF4801C4CEA1131A8
:1047000002D0404261EB410113F0004F4FEA033306
:104710004CEA133302D0524263EB430394EA050F91
:1047200000F0A780A4F10104D5F1200E0DDB02FA00
:104730000EFC22FA05F2801841F1000103FA0EF294
:10474000801843FA05F359410EE0A5F120050EF15A
:10475000200E012A03FA0EFC28BF4CF0020C43FA8B
:1047600005F3C01851EBE37101F0004507D54FF098
:10477000000EDCF1000C7EEB00006EEB0101B1F5E8
:10478000801F1BD3B1F5001F0CD349085FEA30002E
:104790004FEA3C0C04F101044FEA445212F5800F39
:1047A00080F09A80BCF1004F08BF5FEA500C50F1D6
:1047B000000041EB045141EA050130BD5FEA4C0CB9
:1047C000404141EB010111F4801FA4F10104E9D142
:1047D00091F0000F04BF01460020B1FA81F308BF39
:1047E0002033A3F10B03B3F120020CDA0C3208DD05
:1047F00002F1140CC2F10C0201FA0CF021FA02F1E0
:104800000CE002F11402D8BFC2F1200C01FA02F14F
:1048100020FA0CFCDCBF41EA0C019040E41AA2BF74
:1048200001EB0451294330BD6FEA04041F3C1CDA3C
:104830000C340EDC04F11404C4F1200220FA04F05C
:1048400001FA02F340EA030021FA04F345EA030106
:1048500030BDC4F10C04C4F1200220FA02F001FAC8
:1048600004F340EA0300294630BD21FA04F029464A
:1048700030BD94F0000F83F4801306BF81F48011E3
:104880000134013D4EE77FEA645C18BF7FEA655C56
:1048900029D094EA050F08BF90EA020F05D054EA28
:1048A000000C04BF1946104630BD91EA030F1EBF2D
:1048B0000021002030BD5FEA545C05D14000494131
:1048C00028BF41F0004130BD14F580043CBF01F524
:1048D000801130BD01F0004545F0FE4141F470010A
:1048E0004FF0000030BD7FEA645C1ABF19461046E5
:1048F0007FEA655C1CBF0B46024650EA013406BFE6
:1049000052EA033591EA030F41F4002130BD00BFA4
:1049100090F0000F04BF0021704730B54FF4806461
:1049200004F132044FF000054FF0000150E700BFE2
:1049300090F0000F04BF0021704730B54FF4806441
:1049400004F1320410F0004548BF40424FF000012E
:104950003EE700BF42004FEAE2014FEA31014FEA71
:1049600002701FBF12F07F4393F07F4F81F06051C0
:10497000704792F0000F14BF93F07F4F704730B52F
:104980004FF4607401F0004521F0004120E700BFC2
:1049900050EA010208BF704730B54FF000050AE049
:1049A00050EA010208BF704730B511F0004502D54A
:1049B000404261EB41014FF4806404F132045FEA4C
:1049C000915C3FF4DCAE4FF003025FEADC0C18BFF1
:1049D00003325FEADC0C18BF033202EBDC02C2F1E7
:1049E000200300FA03FC20FA02F001FA03FE40EA79
:1049F0000E0021FA02F11444C1E600BF4FEA410261
:104A000012F5001215D211D56FF47873B3EB625220
:104A100012D94FEAC12343F0004343EA505311F047
:104A2000004F23FA02F018BF404270474FF00000D9
:104A3000704750EA013005D111F0004008BF6FF017
:104A4000004070474FF00000704700BF4FEA41023E
:104A5000B2F1E04324BFB3F5001CDCF1FE5C0DD9DC
:104A600001F0004C4FEAC0024CEA5070B2F1004F26
:104A700040EB830008BF20F00100704711F0804F29
:104A800021D113F13872BCBF01F00040704741F4EE
:104A900080114FEA5252C2F11802C2F1200C10FAF2
:104AA0000CF320FA02F018BF40F001004FEAC123D6
:104AB0004FEAD32303FA0CFC40EA0C0023FA02F37A
:104AC0004FEA4303CCE77FEA625307D150EA013350
:104AD0001EBF4FF0FE4040F44000704701F0004020
:104AE00040F0FE4040F40000704700BF80F00040FE
:104AF00002E000BF81F0004142001FBF5FEA4103B6
:104B000092EA030F7FEA226C7FEA236C6AD04FEAB5
:104B10001262D2EB1363C1BFD218414048404140FA
:104B2000B8BF5B42192B88BF704710F0004F40F4AC
:104B3000000020F07F4018BF404211F0004F41F4C8
:104B4000000121F07F4118BF494292EA030F3FD094
:104B5000A2F1010241FA03FC10EB0C00C3F12003A7
:104B600001FA03F100F0004302D5494260EB400036
:104B7000B0F5000F13D3B0F1807F06D340084FEAA1
:104B8000310102F10102FE2A51D2B1F1004F40EB96
:104B9000C25008BF20F0010040EA030070474900FE
:104BA00040EB000010F4000FA2F10102EDD1B0FAC9
:104BB00080FCACF1080CB2EB0C0200FA0CF0AABFBE
:104BC00000EBC25052421843BCBFD040184370475C
:104BD00092F0000F81F4000106BF80F40000013262
:104BE000013BB5E74FEA41037FEA226C18BF7FEA39
:104BF000236C21D092EA030F04D092F0000F08BF7B
:104C00000846704790EA010F1CBF0020704712F061
:104C10007F4F04D1400028BF40F00040704712F1A0
:104C200000723CBF00F50000704700F0004343F005
:104C3000FE4040F4000070477FEA226216BF08463B
:104C40007FEA23630146420206BF5FEA412390EAFE
:104C5000010F40F4800070474FF0000304E000BFF4
:104C600010F0004348BF40425FEA000C08BF7047A5
:104C700043F0964301464FF000001CE050EA010269
:104C800008BF70474FF000030AE000BF50EA01027E
:104C900008BF704711F0004302D5404261EB41016B
:104CA0005FEA010C02BF84460146002043F0B64390
:104CB00008BFA3F18053A3F50003BCFA8CF2083AB5
:104CC000A3EBC25310DB01FA02FC634400FA02FCBE
:104CD000C2F12002BCF1004F20FA02F243EB0200C5
:104CE00008BF20F00100704702F1200201FA02FC27
:104CF000C2F1200250EA4C0021FA02F243EB02001A
:104D000008BF20EADC7070474FF0FF0C1CEAD0525D
:104D10001EBF1CEAD15392EA0C0F93EA0C0F6FD01E
:104D20001A4480EA010C400218BF5FEA41211ED0FC
:104D30004FF0006343EA501043EA5111A0FB0131E8
:104D40000CF00040B1F5000F3EBF490041EAD371BD
:104D50005B0040EA010062F17F02FD2A1DD8B3F139
:104D6000004F40EBC25008BF20F00100704790F0A8
:104D7000000F0CF0004C08BF49024CEA502040EAFA
:104D800051207F3AC2BFD2F1FF0340EAC2507047C0
:104D900040F400004FF00003013A5DDC12F1190FFE
:104DA000DCBF00F000407047C2F10002410021FA70
:104DB00002F1C2F1200200FA02FC5FEA310040F188
:104DC000000053EA4C0308BF20EADC70704792F001
:104DD000000F00F0004C02BF400010F4000F013A39
:104DE000F9D040EA0C0093F0000F01F0004C02BF34
:104DF000490011F4000F013BF9D041EA0C018FE7A3
:104E00000CEAD15392EA0C0F18BF93EA0C0F0AD0A8
:104E100030F0004C18BF31F0004CD8D180EA0100CE
:104E200000F00040704790F0000F17BF90F0004F67
:104E3000084691F0000F91F0004F14D092EA0C0F49
:104E400001D142020FD193EA0C0F03D14B0218BFDC
:104E5000084608D180EA010000F0004040F0FE4022
:104E600040F40000704740F0FE4040F440007047BE
:104E70004FF0FF0C1CEAD0521EBF1CEAD15392EA3D
:104E80000C0F93EA0C0F69D0A2EB030280EA010C2D
:104E900049024FEA402037D04FF0805343EA1111C6
:104EA00043EA10130CF000408B4238BF5B0042F124
:104EB0007D024FF4000C8B4224BF5B1A40EA0C00C9
:104EC000B3EB510F24BFA3EB510340EA5C00B3EBFB
:104ED000910F24BFA3EB910340EA9C00B3EBD10FE9
:104EE00024BFA3EBD10340EADC001B0118BF5FEA3B
:104EF0001C1CE0D1FD2A3FF650AF8B4240EBC25064
:104F000008BF20F0010070470CF0004C4CEA502024
:104F10007F32C2BFD2F1FF0340EAC250704740F473
:104F200000004FF00003013A37E792F0000F00F065
:104F3000004C02BF400010F4000F013AF9D040EAE3
:104F40000C0093F0000F01F0004C02BF490011F477
:104F5000000F013BF9D041EA0C0195E70CEAD1536F
:104F600092EA0C0F08D142027FF47DAF93EA0C0F56
:104F70007FF470AF084676E793EA0C0F04D14B023A
:104F80003FF44CAF08466EE730F0004C18BF31F0EC
:104F9000004CCAD130F000427FF45CAF31F00043E6
:104FA0007FF43CAF5FE700BF4FF0FF3C06E000BF7F
:104FB0004FF0010C02E000BF4FF0010C4DF804CDA2
:104FC0004FEA40024FEA41037FEA226C18BF7FEAB2
:104FD000236C11D001B052EA530C18BF90EA010FB4
:104FE00058BFB2EB030088BFC81738BF6FEAE17043
:104FF00018BF40F0010070477FEA226C02D15FEADF
:10500000402C05D17FEA236CE4D15FEA412CE1D04A
:105010005DF8040B704700BF844608466146FFE711
:105020000FB5FFF7C9FF002848BF10F1000F0FBDF3
:105030004DF808EDFFF7F4FF0CBF012000205DF8EC
:1050400008FB00BF4DF808EDFFF7EAFF34BF012071
:1050500000205DF808FB00BF4DF808EDFFF7E0FF0A
:1050600094BF012000205DF808FB00BF4DF808ED5B
:10507000FFF7D2FF94BF012000205DF808FB00BFBE
:105080004DF808EDFFF7C8FF34BF012000205DF8A0
:1050900008FB00BF044BD878044B1A68C0B290429A
:1050A00018BF1860704700BF00600640D489FF1F1A
:1050B00008B5FFF7EFFF8307FBD5024B0222DA703A
:1050C00008BD00BF00600640094B1B7813B9094BAF
:1050D0001B782BB1084A1378202B03D901230371C5
:1050E00000207047581C1070044A0120D1547047AA
:1050F000F695FF1FB995FF1FF795FF1F9895FF1FA6
:105100007047FFFF024B1878024B1B78C01A70479C
:10511000F595FF1FF495FF1F064A07491378097894
:10512000994204D9591C1170044AD05C70474FF061
:10513000FF307047F495FF1FF595FF1FBA95FF1FCD
:10514000054B064A1B7812789A4286BF044AD05C07
:105150004FF0FF30704700BFF495FF1FF595FF1F1C
:10516000BA95FF1F70B50E4B1B78144613B90D4B43
:105170001B7893B10C4A1578C5F121039C42164661
:1051800002D9012202711C460848224628442544BF
:10519000FCF78CFE3570204670BD184670BD00BF10
:1051A000F695FF1FB995FF1FF795FF1F9895FF1FF5
:1051B00010B5114BDB7803F0200303F0FF045BB95B
:1051C0001220FCF78FFF0D4B1B68A3B10C4A147023
:1051D0000C4A1078984710BD0B4A13780133DBB2A4
:1051E000012B137002D8094B1B7823B91220BDE89C
:1051F0001040FCF777BF10BD006006409495FF1F7C
:10520000F495FF1FF595FF1FE095FF1FB995FF1F50
:10521000002202714FF47A710273024A81600260C7
:10522000704700BF40800000094B1B685B060DD52E
:10523000084B9942084B01D8282204E0074A9142C2
:1052400094BF19220A225A7003229A71704700BF34
:10525000348004407F1A0600006006403F420F0081
:10526000174A08B500231370164A116841F040012F
:105270001160154A9370154B1B78122B03D14FF414
:105280001972134B04E0112B03D1124B4FF4197216
:105290001A60114B1B78132B03D14FF419720F4B6B
:1052A00004E0102B03D10E4B4FF419721A600D4914
:1052B000FFF7BAFF044B20225A7180229A7008BD72
:1052C000B995FF1F3480044000600640D089FF1F5D
:1052D0000CA0044004A00440D889FF1F08A004408B
:1052E00000A00440A086010010B53649CB78DBB29F
:1052F00013F0100F03F0400201D12AB92CE0102066
:10530000C870002AF9D110BD03F0040303F0FF01B7
:105310002D4AC3B1002313702C4A13702C4B1B6809
:10532000144603B1984723782A4A1BB927491370BA
:1053300001200870234BD021997012781A71264BE6
:1053400001221A7039E001231370244B19701D4B90
:10535000C0229A701B7930E01A4CA27802F0100239
:1053600002F0FF01AAB113F001030ED11A49174848
:105370000A780078904203D9531C0B70154B9B5C44
:105380002371104BD0229A7017E0C023A3702379A9
:1053900013E0134B0322197012201249FCF722FF6D
:1053A0000E4A217913781F2BC9B206D80648007817
:1053B00018B1581C10700C4AD154024B0222DA70FA
:1053C00010BD00BF006006409095FF1FF795FF1FBE
:1053D000DC95FF1F9895FF1FF895FF1FF595FF1FA0
:1053E000E095FF1FB1510000BA95FF1F044B054A1D
:1053F0004900197001231370034A1370704700BFEE
:105400009895FF1FF695FF1FF795FF1FF7B52D4BDA
:105410001222DA709A7892060F4601D5B4221CE067
:10542000294B1A680092009C1D46FFF733FE00F0DE
:10543000200000F0FF0360B12B680193019B1B1B50
:105440000F2BF2D91F4B00229A7080229A700420F1
:1054500036E01E4A13701B4BB0229A70FFF71AFEFB
:105460008306FBD500251A4B1B78ECB2A3421FD94B
:10547000184B1A5D134B1A71FFF70CFE860701D407
:105480008006F9D40F4E0223F370FFF703FEC10626
:1054900001D4820603D48023B370042009E0C3073B
:1054A00005F10105DFD5002C0CBF0220032001E02F
:1054B000002017B1034B80229A70074B00221A700C
:1054C00003B0F0BD00600640E092FF1FB995FF1FDA
:1054D000F795FF1F9895FF1FF695FF1F2DE9F041E7
:1054E0001546364A1F4600231370354A1370354B54
:1054F0000C461221D970997811F0200F904601D0F6
:10550000B4220BE0FFF7C6FD00F0200000F0FF0220
:105510000028F7D12C4B1A702A4BB022640044F0BB
:105520000104284E9A70E4B23471FFF7C1FDFFF711
:10553000B1FD10F0110004D08023B3700020BDE84D
:10554000F08135B9002F0CBFA0238023B370BDE8D4
:10555000F081012D0CBFA823A023B3703379002460
:10556000012D184E12D0013DFFF7A2FDEDB2012D25
:1055700004BFA823B3701F2C06D8124A1179134A0E
:10558000631C1155DCB2EBE73379E9E7FFF790FDD7
:10559000B0231F2C2546B37005D80C4B32795A55D1
:1055A0000134E4B200E0337917B1064B80229A70DF
:1055B00088F800402046BDE8F08100BFF495FF1F49
:1055C000F595FF1F00600640B995FF1FBA95FF1FB4
:1055D000C9B2D2B20123FFF781BFC9B2FFF706BF3C
:1055E0000121FFF713BFFFFF0148FFF711BE00BF06
:1055F000E495FF1FF8B51D4600230371069BC361A8
:10560000044616460F46C8B20121FCF7B9FDF0B2B8
:105610000121FCF7B5FDE8B20121FCF7B1FD2761DE
:105620006661A5612046F8BD2DE9F3411A4B064697
:1056300080681B680193081A8846FFF779F90446C9
:10564000F069019F0D46FFF773F902460B462046AD
:10565000294600F0DDFA0446F068381A0D46FFF7D7
:1056600057F90BA3D3E9002300F0D2FA02460B4608
:105670002046294600F0CCFAFFF7C0F9F760306009
:10568000C6F8088002B0BDE8F08100BFAFF300802B
:1056900000000000004CED40E092FF1FAFF30080DF
:1056A00038B50D1E044606DD007D0121FCF748FDDE
:1056B000207E002106E007D0007D0021FCF740FDA0
:1056C000207E0121FCF73CFD207C85EAE571A1EB01
:1056D000E571BDE83840FCF7D5BD10B58360029B8D
:1056E000C360039B01604260036110BD2DE9F04778
:1056F0008246884608461146FFF7FCF9FFF72AF96B
:1057000004460D462246DAE906012B46FEF7C4FFA1
:10571000DAE90A23CAE9060120462946FEF7BAFF5C
:1057200006460F46CAE9086740460021FFF780FC9D
:1057300060B14FF000084FF000092046294642466C
:105740004B4600F0A3FB08B1CAE90689DAF8080065
:10575000FFF700F922462B4600F030F98046DAF8D0
:105760000C008946FFF7F6F8DAE9062300F026F97F
:1057700002460B4640464946FEF78EFF8046DAF861
:1057800010008946FFF7E6F832463B4600F016F96E
:1057900002460B4640464946FEF77EFFCAE90A45E7
:1057A0000646DAF80000DAF804800F46FFF7D2F870
:1057B00004460D463046394622462B4600F070FB23
:1057C00058B94046FFF7C6F804460D4630463946FC
:1057D00022462B4600F082FB18B120462946BDE840
:1057E000F08730463946BDE8F0878160C2600361CA
:1057F0007047FFFFFFFFFFFF70B5044610461E46CF
:105800000D46FFF7A7F810A3D3E90023C4E90A0166
:1058100000F0D4F8FFF71AF92562E06026630498D7
:10582000FFF786F802460B4600204FF0804100F05B
:10583000ADFB0022064BFEF72DFFC4E90E0120460A
:1058400070BD00BFAFF3008000000060FB21094085
:105850000000F03FAFF300802DE9F8430C46054609
:10586000284910461E46FFF74FFA26492060804619
:105870003046FFF749FA2349606007460898FFF76A
:1058800043FA216BA060FFF73FFAE668206181468A
:1058900031464046FFF7ECFA3146804660613846B3
:1058A000FFF7E6FA31460746A0614846FFF7E0FAFF
:1058B00039460646E0614046FFF71CF9314604468A
:1058C000FFF718F900F014FB394628604046FFF74F
:1058D00013F931460746FFF70DF900F009FB314691
:1058E000A8603846FFF708F900F002FB314668600F
:1058F0002046FFF701F900F0FBFAE8602846BDE812
:10590000F88300BF000070422DE9F04706461746B5
:10591000984689461EA3D3E90023D1E90A0100F085
:105920004DF84FF0020A044607EB080090FBFAF02E
:105930000D46FEF7FDFF0022174B00F069F92246E5
:105940002B4600F03BF8FFF781F83060C7EB08000A
:1059500090FBFAF0FEF7ECFF00220F4B00F058F935
:1059600022462B4600F02AF80446D9F830000D46AE
:10597000FEF7F0FF02460B462046294600F048F9A4
:10598000FFF764F8B0603046BDE8F087AFF3008001
:1059900000000060FB21094000004E40AFF3008092
:1059A00030B5054A0C680568B4FBF2F31D4402FBF0
:1059B000134305600B6030BD00CA9A3B70B54FF0D1
:1059C000FF0C4CF4E06C1CEA11541DBF1CEA13558B
:1059D00094EA0C0F95EA0C0F00F0DEF82C4481EAF3
:1059E000030621EA4C5123EA4C5350EA013518BF13
:1059F00052EA033541F4801143F4801338D0A0FB00
:105A000002CE4FF00005E1FB02E506F00042E0FBAC
:105A100003E54FF00006E1FB03569CF0000F18BFB2
:105A20004EF0010EA4F1FF04B6F5007F64F540745A
:105A300004D25FEA4E0E6D4146EB060642EAC621ED
:105A400041EA55514FEAC52040EA5E504FEACE2E5A
:105A5000B4F1FD0C88BFBCF5E06F1ED8BEF1004F5D
:105A600008BF5FEA500E50F1000041EB045170BDD9
:105A700006F0004646EA010140EA020081EA03011D
:105A8000B4EB5C04C2BFD4EB0C0541EA045170BD19
:105A900041F480114FF0000E013C00F3AB8014F193
:105AA000360FDEBF002001F0004170BDC4F10004DC
:105AB000203C35DA0C341BDC04F11404C4F120055D
:105AC00000FA05F320FA04F001FA05F240EA0200B8
:105AD00001F0004221F0004110EBD37021FA04F6EE
