:1000000000800020BD010000211B0000ED1A00004F
:10001000ED1A0000ED1A0000ED1A0000ED1A0000C4
:10002000ED1A0000ED1A0000ED1A0000211B00007F
:10003000211B0000ED1A0000211B0000DD1A00004A
:10004000211B0000211B0000211B0000211B0000C0
:10005000211B0000211B0000211B0000211B0000B0
:10006000211B0000211B0000211B0000211B0000A0
:10007000211B0000211B0000211B0000211B000090
:10008000211B0000211B0000211B0000211B000080
:10009000211B0000211B0000211B0000211B000070
:1000A000B94D0000211B0000211B0000211B000096
:1000B000211B0000211B0000211B0000211B000050
:1000C000211B0000211B0000211B0000211B000040
:1000D000211B0000211B0000211B0000211B000030
:1000E000211B0000211B0000211B0000211B000020
:1000F000211B0000D9250000211B0000D53A00007B
:10010000211B0000D53F0000211B0000211B000027
:10011000211B0000211B0000211B0000211B0000EF
:10012000211B0000211B0000211B0000211B0000DF
:10013000211B0000211B0000211B0000211B0000CF
:10014000211B0000211B0000211B0000211B0000BF
:10015000211B0000211B0000211B0000211B0000AF
:10016000211B000075280000211B0000211B00003E
:10017000211B0000211B0000211B0000211B00008F
:10018000211B0000211B0000211B0000211B00007F
:10019000211B0000211B0000211B0000211B00006F
:1001A000211B0000211B0000211B0000211B00005F
:1001B000211B0000211B0000211B0000564B4CF2AC
:1001C000205210B51A804DF628121A8000BF00BFC9
:1001D00001F0AAFC514B4FF010621A60504A9A602D
:1001E000504ADA60A3F53043203B1A6812F480725B
:1001F00004D14D490A604FF4A8521A604B4B1A784B
:10020000110703D51A7842F008021A70484B2A22C7
:100210001A700023474A48499818884204D247492F
:10022000595899500433F5E7454A464B9A424FF0E6
:10023000000302D242F8043BF7E74349434A5958C6
:1002400099500433B3F5DE7FF7D1414B802103F899
:10025000011B40498B42F9D13F4B1A603F4B8A2228
:100260001A70A3F5805324225A70A0221A709A792A
:100270009207FCD59A79D406FCD4394B9A7902F0CE
:100280000C02082AF9D105221A7143225A719A796F
:100290009006FCD5324B9A795106FBD5314A4FF086
:1002A000817111600521516020221A702C4B9B79BD
:1002B00003F00C030C2BF9D12B4B2C4A1A602C4B5E
:1002C0002C4A1A6000225A60072243F8042C2A4A5A
:1002D000C3F80C2D62B601F073FE134B1B68DA07EE
:1002E00005D5264801F0E4FC254B264A1A60264B2A
:1002F0001B785B0609D5224C224A2368934204D11D
:100300001E4801F0D5FC0023236006F061FB01F0DC
:1003100011FC01F041FBFEE70E2005403080044057
:10032000823F04000100002B14D0034002D007409C
:1003300000E007406087FF1F348AFF1F407A0000FB
:10034000388AFF1FBC95FF1F000000000082FF1FBE
:1003500000E400E05FE400E008ED00E0005006404B
:10036000004006404480044004800440C010050062
:1003700014E000E03F190100000020205B6B6F5883
:100380001CE00340A5C3945A00F00740FFFFFFFFA5
:10039000FFFFFFFFFFFFFFFFFFFFFFFFFFFFFFFF6D
:1003A000FFFFFFFFFFFFFFFFFFFFFFFFFFFFFFFF5D
:1003B000FFFFFFFFFFFFFFFFFFFFFFFFFFFFFFFF4D
:1003C000FFFFFFFFFFFFFFFFFFFFFFFFFFFFFFFF3D
:1003D000FFFFFFFFFFFFFFFFFFFFFFFFFFFFFFFF2D
:1003E000FFFFFFFFFFFFFFFFFFFFFFFFFFFFFFFF1D
:1003F000FFFFFFFFFFFFFFFFFFFFFFFFFFFFFFFF0D
:10040000FFFFFFFFFFFFFFFFFFFFFFFFDEF9FFFF23
:1004100010B5054C237833B9044B13B10448AFF33E
:1004200000800123237010BD388AFF1F00000000E8
:10043000407A000008B5064B1BB106480649AFF3E9
:1004400000800648036813B1054B03B1984708BD07
:1004500000000000407A00003C8AFF1F348AFF1F22
:100460000000000043680B7043681B0A4B70C38890
:100470008B70C379CB7083680B7183681B0A4B71D7
:1004800043898B71C37ACB71082070470B78436026
:100490004A7843EA022343608A7843EA024343608E
:1004A000CA7843EA026343600B7983604A7943EA7E
:1004B000022383608A7943EA02438360CA7943EA6C
:1004C000026383600820704700487047687300002B
:1004D000004870477673000000487047977300002B
:1004E00000487047B073000000487047D1730000A7
:1004F00000487047E4730000004870473D760000F4
:10050000004870470574000043680B701A0A4A706F
:100510001A0C1B0E8A70CB7083680B711A0A4A7111
:100520001A0C1B0E8A71CB71C3680B721A0A4A72BD
:100530001A0C1B0E8A72CB720C2070478B784A788B
:100540001B0443EA02230A781343CA7843EA02638E
:1005500043608B794A791B0443EA02230A791343E7
:10056000CA7943EA026383608B7A4A7A1B0443EABE
:1005700002230A7A1343CA7A43EA0263C3600C2057
:100580007047FFFF0048704726740000004870471E
:100590003B7400002DE9F74F8C460190D0E9020131
:1005A000040E44EA01244FEA1028060C8CF803409C
:1005B00048EA01684FEA112946EA01460F0C0D0E80
:1005C000019C8CF801808CF802608CF805908CF806
:1005D00006708CF807508CF800008CF80410D4E9F1
:1005E0000401040E44EA01244FEA1028060C48EAEC
:1005F00001684FEA112946EA01460F0C0D0E8CF8EE
:100600000B40019C8CF809808CF80A608CF80D90E6
:100610008CF80E708CF80F508CF808008CF80C10C9
:10062000D4E906014FEA1028060C040E8CF81000DD
:1006300048EA01684FEA112946EA01460F0C44EAEC
:1006400001240D0E18208CF811808CF812608CF8A3
:1006500013408CF814108CF815908CF816708CF8E8
:10066000175003B0BDE8F08F2DE9F0434A788E783B
:1006700091F805800025002314022B433204002743
:100680000E7822431F43CC7800231F430B794FEA97
:100690000825164391F80680220616431F430022C0
:1006A00016432F434FEA084591F807801643164337
:1006B0002F434FEA086542EA06043D43C0E902457C
:1006C0004C7A91F80A8026024FEA084491F8088093
:1006D000264346EA080691F80B804FEA0864344343
:1006E000144342EA02074FF000094E7B47EA09072C
:1006F00042EA040891F80C908C7B42EA070545EA2F
:10070000090527044FEA0629CC7B49EA050948EA8E
:10071000020849EA0709270642EA080647EA0907E4
:10072000C0E904674C7C91F8128026024FEA084425
:1007300091F81080264346EA080691F813804FEAA4
:1007400008643443144342EA02074FF000094E7D27
:1007500047EA090742EA040891F814908C7D42EABE
:10076000070545EA090527044FEA0629CC7D49EA31
:10077000050949EA070948EA0208270642EA080685
:1007800047EA0907C0E906671820BDE8F083FFFFC4
:10079000004870475C7400000048704772740000A5
:1007A00070B5054608300E46FFF7F4FE04463119D1
:1007B00005F12800FFF7EEFE204470BD70B5054638
:1007C00008300E46FFF750FF0446311905F12800A6
:1007D000FFF74AFF204470BD004870479374000043
:1007E00000487047A774000043680B701A0A4A70EB
:1007F0001A0C1B0E8A70CB7083680B711A0A4A712F
:100800001A0C1B0E8A71CB71C3680B721A0A4A72DA
:100810001A0C1B0E8A72CB720C2070478B784A78A8
:100820001B0443EA02230A781343CA7843EA0263AB
:1008300043608B794A791B0443EA02230A79134304
:10084000CA7943EA026383608B7A4A7A1B0443EADB
:1008500002230A7A1343CA7A43EA0263C3600C2074
:100860007047FFFF00487047C87400000048704799
:10087000D674000000487047F774000000487047C5
:100880000775000000487047287500000048704751
:1008900040750000D0E904230849C1E90023D0E9EC
:1008A00010230749C1E90023064B82B01B6801935E
:1008B000019A054B1A6002B0704700BF2092FF1FDB
:1008C0008890FF1F8092FF1FF88AFF1F90F8F404A2
:1008D000704738B5054600F10C042046FFF79EFF2F
:1008E000EB692046984738BD006A7047004870475A
:1008F000C874000000487047D674000038B505463B
:1009000000F110042046FFF759FFAB6D20469847D1
:1009100038BDC06D7047FFFF0048704793740000FA
:1009200000487047A77400002DE9FF4183880B70D1
:1009300083881B0A4B70054680680C4606F060F9F8
:1009400004AB064643F80C0D1868C4F80200A96809
:100950003246A01D01F028F8E86806F051F904AB12
:1009600006F1060843F8080D0746186844F8080021
:100970000A36E9683A46A01901F016F8286906F027
:100980003FF904AB3E4443F8040D07461868A051F4
:100990000436A0193A46296901F006F8F0196B6986
:1009A000235404441A0A627004301A0C1B0EA270FD
:1009B000E37004B0BDE8F0817FB50A788280034619
:1009C000487842EA00229A80D1F80200019001980A
:1009D0008A1D841D551AA54204D212F8015B02F843
:1009E000025CF7E70844002242714A1D9A600859E8
:1009F0000290201D029C02460444A24205D28D189A
:100A00008E5C05F8016C0132F7E70A1901380844D9
:100A1000002502F8015CD860106803900398043444
:100A200020442246824205D28D188E5C05F8016C66
:100A30000132F7E70A18013C0C44002502F8015C7A
:100A40001C6195785478D2782D0445EA04250C5C15
:100A500045EA040141EA026204305A6104B070BD03
:100A600073B503790B70054680680E4606F0C8F82A
:100A700002AB044643F8040D1868C6F80100A968E3
:100A8000701D224600F090FF601D02B070BD37B5AA
:100A90000B46024613F8010B107118680190019C77
:100AA0004B1D601D5D1A854204D213F8015B03F8EB
:100AB000025CF7E70C44002304312371916003B01A
:100AC00030BD2DE9F74303790B70002305460C4632
:100AD0004B708B70CB700A1D28795E1CDBB298427C
:100AE000C4EB020102F104020FD9E96851F8233086
:100AF00002F8043C190A02F8031C190C1B0E02F838
:100B0000013C02F8021C3346E6E72B7C6354631871
:100B100000225A709A70DA700B1D2344297C501CF5
:100B2000D2B29142C4EB030603F104030FD9A969C1
:100B300051F8222003F8042C110A03F8031C110CAD
:100B4000120E03F8012C03F8021C0246E6E72B7F85
:100B5000A355A2190023537093700436D3702A7FD3
:100B60005FFA83F8424503F1010915D96B6A53F81E
:100B7000280006F045F802AB074643F8040D186854
:100B8000A0516B6A0436A01953F828103A4600F0B9
:100B90000BFF3E444B46E2E7304603B0BDE8F0832E
:100BA000436873B50B7043681B0A4B70C3888B7026
:100BB000C379CB7083680B7183681B0A4B714389BF
:100BC0008B71C37ACB71C3680B72C3681B0A4B72FB
:100BD000C3898B72C37BCB72044600690D4606F055
:100BE0000FF802AB064643F8040D1868E860216967
:100BF00005F11000324600F0D7FE06F1100002B0F9
:100C000070BD70B5044604300D46FFF7C9FF237E62
:100C10002B542B18627E5A70A27E9A70C61CA9199A
:100C200004F12000FFF7B6FC0644A91904F14000C6
:100C3000FFF7B0FC0644A91904F16000FFF7AAFC15
:100C4000304470BD37B50A7842600346487842EABE
:100C500000225A60887842EA00425A60C87842EA24
:100C600000625A600A799A60487942EA00229A60E2
:100C7000887942EA00429A60C87942EA00629A6042
:100C80000A7ADA60487A42EA0022DA60887A42EA2E
:100C90000042DA60C87A42EA0062DA60C86801900D
:100CA000019C01F1100204F11000551A854204D292
:100CB00012F8015B02F8025CF7E70C4400220F31E6
:100CC000E273196103B030BD70B5044604300D46BF
:100CD000FFF7B8FF2B5C23762B18C61C5A78627678
:100CE0009B78A376A91904F12000FFF7BDFC064408
:100CF000A91904F14000FFF7B7FC0644A91904F153
:100D00006000FFF7B1FC304470BDF7B50E78037991
:100D1000B34204460D4604D2C068B10005F032FF6C
:100D2000E06026712A1D00212379481CC9B28B423C
:100D3000C5EB020702F1040214D912F8023C12F8C2
:100D4000036C1B0443EA062312F8046C334312F8C5
:100D5000016C43EA0663A360E368A66843F8216078
:100D60000146E1E7EE5D237CB34204D2A069B10005
:100D700005F008FFA0613B1D26742B440022217C56
:100D8000501CD2B29142C5EB030703F1040314D9FE
:100D900013F8021C13F8036C090441EA062113F846
:100DA000046C314313F8016C41EA06616161A16989
:100DB000666941F822600246E1E7EE5D237FB342B7
:100DC00004D2606AB10005F0DDFE60623B1D26774B
:100DD0000022217FD6B2B1421CD9E8580190019976
:100DE000181D014403468B4206D2EF1815F803C0C4
:100DF00007F801CC0133F6E76B180027013803F838
:100E0000017C284420620B46616A206A41F8260072
:100E10000132DEE7184603B0F0BDFFFF10B504460F
:100E200006486168E268A36804F0E4F86168E26873
:100E3000A3680348BDE8104004F0DCB85091FF1FE0
:100E4000B891FF1F064B1B68002B03DD054B1A688A
:100E5000013203E003D0034B1A68013A1A6070476D
:100E60004C8BFF1F508BFF1F064B1B68002B03DDB5
:100E7000054B1A68013203E003D0034B1A68013AAC
:100E80001A607047408BFF1F448BFF1F034B82B0DB
:100E90001B680193019802B0704700BF8092FF1F4A
:100EA000034610B5C06804680A4624689968A047DC
:100EB00010BDFFFF054B036000220023C0E90223A1
:100EC000C0E90423C0E90623704700BFB0720000E8
:100ED000F0B5274B274F284E87B0D3E9000103F028
:100EE00037FB264B0446D3E9000103F031FB002316
:100EF00022462349009002A804F0B2F802986FF04D
:100F0000E504E628A8BFE620A042B8BF204603F0CB
:100F100029FC0546386803F025FC29460246194895
:100F2000194D03F0E8FF03F0EBFA28600398E62878
:100F3000A8BFE620A042B8BF204603F013FC044639
:100F4000306803F00FFC214602461048104C03F0B5
:100F5000D2FF03F0D5FA29682060384604F07CF906
:100F60002168304607B0BDE8F04004F075B900BF15
:100F70002092FF1FB88AFF1FD88AFF1F8890FF1F8B
:100F8000008BFF1F5091FF1F4C8BFF1FB891FF1F5D
:100F9000408BFF1F0B490C4810B500220023C1E90C
:100FA00000230A490A4CC1E900230A4B00212160B1
:100FB000196004F015F921680748BDE8104004F0F5
:100FC0000FB900BF2092FF1FB88AFF1F8890FF1F34
:100FD000448BFF1F508BFF1FD88AFF1F30B50F4B6C
:100FE0000F4D19680F4C85B0284604F0F9F80E4BE8
:100FF0002046196804F0F4F801A82A6823680B4910
:1010000004F086F80A49019B4B6000238B60094875
:10101000039BCB60FFF744FF05B030BD508BFF1F33
:10102000B88AFF1FD88AFF1F448BFF1F008BFF1F4A
:101030006092FF1F0892FF1F1FB5084B019300230A
:101040000293039303680A211B6801AA0446984788
:10105000FFF71CFFE06004B010BD00BF3872000055
:10106000F0B587B02C4B009300222C4BADF8042038
:101070000446029303930493059200F16406054627
:10108000D5F81834DBB158689A68ADF804201A68AE
:10109000036802929B689847D5F818340390586803
:1010A0000368DB6898474FF4007322680593D5F80E
:1010B000183404901768196920466A46B847043501
:1010C000B542DDD12546D5F87C04E0B14368ADF8E2
:1010D00004308368029303689B6898470390D5F8AF
:1010E0007C040368DB6898474FF400730490059311
:1010F000D5F87C0423681F6803685B6898476A46D4
:1011000001462046B8470435B542DCD1012384F8B6
:10111000F43407B0F0BD00BF5072000087790000C2
:10112000F0B585B01C4B0193044600230293039352
:101130000D46FFF7ABFEE668184F2946861B01A84F
:10114000FFF7A4F94FF47A75029AB6FBF5F31A4447
:101150000292039A05FB136607FB06220392FFF730
:1011600095FE029B0399B0FBF5F2013B9B1A2361AC
:101170000B4B05FB12050B4407FB1533636104F1B0
:10118000100004F1140103F09FFEFFF77FFEC4F886
:10119000FC0405B0F0BD00BF3872000040420F00F3
:1011A00000CA9A3B70B50446FFF770FED4F8FC34D1
:1011B00042F6F822C31A934284BF002384F8F43421
:1011C000D4F8E034064633B1D4F80035984202D959
:1011D0000023C4F8E03460680368DB68984700289F
:1011E000C0F2C080D4F8F024D4F8E0540244072DB3
:1011F000C4F8F0240CD1D4F8EC24D4F8E434511C15
:101200002244013BC4F8EC141076C4F8E4345DE0E9
:101210009DB9FF2807D10123C4F8E03406F1140377
:10122000C4F80035D7E7FFF731FE801B0528D2D977
:1012300084F8F4546FF0010070BD012D0ED1FE282A
:1012400001D10223C5E70023C4F8E03494F8F43454
:10125000002BC0D12046FFF7EFFEBCE7022D06D1E0
:101260000022C4F8EC24C4F8E40403221CE0032D9B
:1012700007D1D4F8E42402EB0023C4F8E4340423B7
:10128000A7E7042D0BD1404B1340002B03DA013BA1
:1012900063F0FF030133FF2B9AD1052399E7052D56
:1012A00007D1C4F8E8040622C4F8E024C4F8F00426
:1012B00091E7062D0ED1D4F8E82402EB0023C4F800
:1012C000E8340723C4F8E034D4F8E434002B82D1A6
:1012D00008237EE7082D7FF47EAF0023C4F8E034B6
:1012E000294B1340002B03DA013B63F0FF0301336A
:1012F000FF2B7FF470AFD4F8E83463B92046FFF7D2
:101300009BFE2046FFF7ACFEC4F8F864C4F8FC640A
:101310004FF0FF3070BD0A2B05D1204604F11801B3
:10132000FFF7FEFE57E7062B09D104F5A16004F193
:101330001801FFF7EAFC012384F804354BE70B2B77
:1013400003D1002384F8F43445E704EB8303D3F896
:10135000EC0200283FF43FAF036804F118011B685A
:10136000984738E794F8F40460B1D4F8F83440F6BC
:10137000C412F31A934204D92046FFF75DFEC4F865
:10138000F864002070BD00BFFF0000801FB5064B51
:10139000019303688DF8081003921B68072101AAC6
:1013A000984705B05DF804FB6872000063292DE9D9
:1013B000F04104460D4603DD90F8F464002E48D059
:1013C000136810461B6804F21F219847FF2283B25E
:1013D00084F81822FE22C0B284F819221A0A84F86E
:1013E0001B220244D24384F81D5245F3072584F89A
:1013F0001C2284F81A0284F81E5205220021981D2E
:10140000904205DBA018013290F818020144F6E77B
:1014100003F108070733BFB214FA83F3C943B7F5E2
:10142000007F83F818120DD804F506783E46002593
:10143000BD420EDA606818F8051003681B6898470B
:101440000135F5E720460321034AFFF79FFF4FF0E0
:10145000FF363046BDE8F0816175000010B50C2004
:10146000002100F055FC0B20002100F051FC0C2065
:10147000022100F04DFC0B2002213D4C00F048FC05
:101480000C203C49032200F0ABFB03220B203A491D
:1014900000F0A6FB6068A16803689B699847002379
:1014A0004FF46142C4F8E034C4F8E434C4F8EC34D6
:1014B000C4F8E834A26004EB8302D2F87C2442B979
:1014C0002B492E4A01EB83016433C1F87C2453601D
:1014D00002E00133192BEED1002304EB8302D2F892
:1014E0007C2442B92249264A01EB83016433C1F8C6
:1014F0007C24536002E00133192BEED1002304EB6E
:1015000083021B49D2F8182442B91E4A03F583709E
:101510007D3341F820209360D16002E00133192B24
:10152000EDD1002304EB83021149D2F8182442B90B
:10153000154A03F583707D3341F820209360D16014
:1015400002E00133192BEDD194F8F434084813B9B3
:10155000FFF728FEF8E701210C4AFFF717FF0C48B8
:1015600003F0E6FB0520BDE8104000F013BD00BF0E
:10157000588BFF1F450E0000690E00002892FF1FC8
:10158000588AFF1F0892FF1F4C92FF1F9A75000098
:101590008495FF1F38B50C4C0C4B0D4D1A680D4946
:1015A000204605F009FB284622460121FFF7EEFE02
:1015B000094B0A491A68204605F0FEFA284601211F
:1015C0002246FFF7E3FE38BD8491FF1F508BFF1FBB
:1015D000588BFF1FAD750000448BFF1FBF750000C7
:1015E00030B51F4C1F4D236889B00193019A2B68B9
:1015F000D31A632B05D9FFF76BFC23680293029B78
:101600002B6023680393184B039A1B68D31AB3F516
:10161000C87F01D3FFF7BEFC2368144D0493049ADE
:101620002B68D31A632B06D9FFF7D8FC0C4B1B6829
:101630000593059B2B6023680D4C0693069A23683F
:10164000D31AC72B06D9FFF7A5FF054B1B680793D5
:10165000079B23600748FFF7A5FD09B030BD00BF19
:101660008092FF1F8091FF1FF88AFF1F488BFF1F8A
:10167000548BFF1F588BFF1F73B55C485C4D5D4C4E
:10168000FFF718FC5C48FFF715FC5C48FFF712FCFD
:101690004FF42A73009317210E220F23584803F0AA
:1016A00083FD4FF45C7300931621102211235548DB
:1016B00003F07AFD08230093E621534A534B544824
:1016C00003F09EFC5349544A4F4B009501945348F4
:1016D00003F008FC4F49504A4B4B00950194504889
:1016E00003F000FC4F4B504A1A60504A5A604FF4C6
:1016F00061429A604E49C3F80815002283F8F42429
:1017000083F80C25C3F8142583F81825C3F8202581
:1017100083F82425C3F82C25981804320021642A64
:10172000C0F81814F8D10A46981804320021642A27
:10173000C0F87C14F8D1581801310022B1F5007FAF
:101740000276F8D1991801320025B2F5007F81F8B0
:101750001852F7D1374C384B2360384B236104F1D2
:101760001800FFF7A7FB04F13800FFF7A3FB344B89
:10177000A365344BA360344B3449196001223449CA
:10178000E2650026334CD9601A623349334AD96185
:101790009A601E615E619E61314B2360314B6360D4
:1017A000314B6361A560E560256104F12000257679
:1017B0006576A576FFF77EFB04F14000FFF77AFB24
:1017C00004F16000FFF776FB284B294A1D6183E88E
:1017D0001400284B284A1A602849294A5E609E60F6
:1017E000DE6082E80A00156102B070BDE891FF1F5B
:1017F000CDCC4C3ECDCCCC3D9090FF1F3091FF1F07
:10180000B88AFF1FD88AFF1FCDCC4C3D52B81E3E70
:10181000008BFF1F00007FC300007F435091FF1F1C
:10182000B891FF1F588BFF1F287300007092FF1F95
:1018300080720000588AFF1F40730000C8720000C9
:1018400095080000D27500002892FF1F5873000011
:10185000E0720000B090FF1F1D0E0000DA7500005E
:1018600010730000F8720000877900004C92FF1F8F
:10187000DE7500006092FF1F98720000E6750000A0
:101880000892FF1F08B50368C9B21B68984708BDD6
:1018900008B50368C9B21B68984708BD08B5036856
:1018A000C9B21B68984708BD08B50368C9B21B6870
:1018B000984708BD034800EB5100B0FBF1F000F081
:1018C000CFBB00BF0044950810B5064800EB51009F
:1018D0001446B0FBF1F000F0C3FB2046BDE8104019
:1018E00000F022BC0044950800F048BC084600F017
:1018F00079BC084600F0C8BC0846114600F08EBC12
:1019000008B5084600F0E6FC003018BF012008BD0D
:1019100008B5084600F000FD003018BF012008BDE2
:1019200000F0E4BD00F01CBE00F0F0BD00F0C2BD50
:1019300000F02EBE00F0C8BD08B5084600F012FD4C
:10194000012008BD08B5084600F00CFD012008BDC7
:1019500010B508461446114600F04EFD204610BD55
:1019600038B508460D4605F04BF904462146284691
:1019700000F042FD204638BD7047FFFF044B0022B7
:101980001A714FF47A711A73024A99601A6070479B
:101990007092FF1F6876000008B5FFF75FFDFFF744
:1019A0001FFE01F013FCFAE7844641EA000313F03E
:1019B00003036DD1403A41D351F8043B40F8043B56
:1019C00051F8043B40F8043B51F8043B40F8043B19
:1019D00051F8043B40F8043B51F8043B40F8043B09
:1019E00051F8043B40F8043B51F8043B40F8043BF9
:1019F00051F8043B40F8043B51F8043B40F8043BE9
:101A000051F8043B40F8043B51F8043B40F8043BD8
:101A100051F8043B40F8043B51F8043B40F8043BC8
:101A200051F8043B40F8043B51F8043B40F8043BB8
:101A300051F8043B40F8043B403ABDD2303211D358
:101A400051F8043B40F8043B51F8043B40F8043B98
:101A500051F8043B40F8043B51F8043B40F8043B88
:101A6000103AEDD20C3205D351F8043B40F8043B58
:101A7000043AF9D2043208D0D2071CBF11F8013B56
:101A800000F8013B01D30B8803806046704700BF1C
:101A9000082A13D38B078DD010F003038AD0C3F12B
:101AA0000403D21ADB071CBF11F8013B00F8013B0D
:101AB00080D331F8023B20F8023B7BE7043AD9D3CC
:101AC000013A11F8013B00F8013BF9D20B780370A1
:101AD0004B7843708B78837060467047024B1A686E
:101AE00001321A60704700BF8092FF1F08B50B4C8F
:101AF0002368580301D500F0BDFE2368590501D5C0
:101B000000F06AFD23681A0501D501F0E3FF2368A0
:101B1000DB04ECD502F05EFAE9E700BF3480044054
:101B200008B5FFF7E3FFFFFF014B10221A80704753
:101B3000002005407047FFFF024A136818441060F8
:101B4000184670473C88FF1FEFF313839BB9EFF3F0
:101B5000108098B9EFF3058323B10F2B04D9084AFD
:101B6000985C01E04FF48070EFF311833BB1834246
:101B700038BF184670474FF0FF307047184670471F
:101B8000F0E300E07047FFFF00F14040A0F5922332
:101B90007C2B14D9A0F594237C2B12D9A0F5962385
:101BA0007C2B10D9A0F598237C2B06D9A0F59A2080
:101BB0007D28064828BF0020704705487047054823
:101BC0007047054870470548704700BF1889FF1FD8
:101BD000F888FF1F4088FF1F7888FF1FC888FF1FF5
:101BE000212870B50D4636D8042A34D8DFE802F033
:101BF0000709050B03000B2306E00A2304E0082372
:101C000002E00C2300E009231E04134B134A03EBEC
:101C1000C000134B4468C3F89C21124AC3F8A021AA
:101C2000114AC3F8A421114AC3F8A8212046104A3A
:101C3000C3F8AC21FFF7A8FF68B172B6226822F49E
:101C400070222260C4F3840342F08072164340F88D
:101C50002350266062B670BDC07600001188FF1F59
:101C60000082FF1FE587FF1FB987FF1F8D87FF1FBA
:101C70006187FF1F0C4B03EBC00010B54468204682
:101C8000FFF782FF70B172B6236823F0877323F4E5
:101C9000803343F080732360C4F38404034B40F823
:101CA000243062B610BD00BFC0760000851B000066
:101CB000044B054900221A600A60044A1060102291
:101CC0001A60704714D0034004D0034000D0034092
:101CD000212810B518D80D4A52F8303093F88042B8
:101CE0003CB1012211B183F8802010BD83F800219E
:101CF00010BD02EBC00043681A6811B142F0030244
:101D000001E022F002021A6010BD00BFC0760000A0
:101D1000212810B537D81C4A02EBC00301295B68A3
:101D2000144601D004290FD154F83020012082F844
:101D300080024FF4A2721A601A6804290CBF42F0A4
:101D4000200222F020021DE052F83020002082F80C
:101D5000800211B18A1E012A12D84FF48072022922
:101D60001A6003D11A6842F003020BE003290AD17A
:101D70001A6842F002021A601A6822F0010201E0B9
:101D800040F203121A6010BDC0760000282838B552
:101D9000604A04460B4611D112780B2A04D8C2F1CE
:101DA0000C0201FA02F304E00C2A1CBF0C3A41FABF
:101DB00002F31846BDE8384001F098BB11780125C0
:101DC000002B05FA01F2D8BF002102DD934205D3B2
:101DD0002946FFF77DFF2046294697E00338C2B227
:101DE000012A01D84C4A06E0202C01D0192C01D13F
:101DF0004A4A00E04A4A126802FB0332CA401D28E0
:101E00007BD8DFE800F0575F4E337A7A212A7A7A5E
:101E10007A7A7A7A7A7A7A3C450F187A707A7A7A6C
:101E20007A7A7A673F4B1A6003F5973340F244425F
:101E300003F5FA735FE03C4B1A6003F5973340F209
:101E4000444203F5F87356E0384B1A6003F59733B4
:101E500040F2444203F5F6734DE0354B1A6003F54A
:101E6000973340F2444203F5F47344E0314B1A6077
:101E700003F59F3340F2444203F5F0733BE02E4BF1
:101E80001A6003F59F3340F2444203F5EE7332E0EB
:101E90002A4B1A6003F59F3340F2444203F5EC737A
:101EA00029E0274B1A6003F59F3340F2444203F5C3
:101EB000EA7320E0234B1A6003F580334FF451722C
:101EC000203318E0204B1A6003F580334FF4517231
:101ED0001C3310E01D4B1A60A3F5DB234FF4517245
:101EE000A3F5F96307E01A4B1A60A3F5DB234FF45F
:101EF0005172A3F2CC731A6038BD7F2B2046D4BF39
:101F000000210121FFF7E4FE20460121BDE8384011
:101F1000FFF7FEBE2089FF1F0890034008800B409A
:101F20000880034010800340188003402080034055
:101F300028800340308003403880034040800340C5
:101F400048800340109003401890034010800B40DD
:101F500018800B4072B60C4B0C491A680C4B1B686E
:101F6000096862B6490102D5322A88BF0133C2F539
:101F70008C32482102F23F12B2FBF1F24FF47A7038
:101F800000FB0320704700BF18E000E004ED00E014
:101F90008092FF1F38B50446FFF7DCFF054624B9E1
:101FA00038BD013C0AD005F57A75FFF7D3FF401B19
:101FB000B0F57A7FF5D201F009F9F6E738BDFFFFF9
:101FC000204B4FF4000210B51A604FF080721A6077
:101FD0004FF000721A604FF080621A604FF000629A
:101FE0001A60194B194A1A4C002048F6FF71186004
:101FF00059602823136093601361936113629362A5
:10200000136393630922226004F580540434206032
:102010006160A360236144F8042C04F5FE24206071
:102020000C4801600C490B608B600C4B1A6001F08E
:1020300001FA4FF4C870FFF7ADFFBDE8104000F0A3
:1020400017BF00BF08E100E0048003400C8003409C
:102050000080034008800B400C800B4000800B4048
:10206000234B1A6842F480621A60224A00231370DC
:10207000214A1370214A1370214A1370214A1370A8
:10208000214B1B782BB1152B07D140F213321F4B7C
:1020900002E01F4B40F213321A601E4B1B78012BDB
:1020A00005D0052B07D14FF451721B4B02E01B4B9F
:1020B0004FF451721A601A4BC0F344321A70C0F3D5
:1020C00047125A700221042200F01F0098729A7081
:1020D000D9745A7588221A743C22DA70114B402246
:1020E0006FF44A711A700B444FF400521A60704733
:1020F000348004400B93FF1F8992FF1F1493FF1F2E
:102100000C93FF1F8892FF1FCA92FF1F18C0044044
:1021100040A004402189FF1F1CC0044044A004408B
:1021200000A006402DE400E0134A937800F003017C
:1021300003F0EC030B43410748BF43F010039370D7
:1021400000F00F03042B0C4903D18B7943F04003BB
:102150008B715379C20603F0EF03074A48BF43F07F
:10216000100353719379810603F0EF0348BF43F0E6
:1021700010039371704700BF00A0064008B5114BD3
:102180001B685B0500D408BD0F4B1A7802F0FF03F3
:1021900012B101F01BF8F7E70C4A4FF4005111603F
:1021A0000B4A0C49D37040F203120A604A600A4A93
:1021B00013700A4A13700A4B1B680BB101221A7084
:1021C00008BD00BF348004408892FF1F84E100E016
:1021D00000A0064040A004400B93FF1F8992FF1F00
:1021E0008492FF1F38B50446094B1B7803F0FF05A6
:1021F000002BF9D120460121FFF78AFD2046294610
:10220000FFF766FD034B53F83420034B1A6038BDCB
:102210008892FF1FC07600001093FF1F10B509B110
:1022200040F08000144A13789842144622D0134A92
:10223000126852051DD503F07F03012B04D0052B36
:1022400005D100220E4B01E00E4B00221A6000293E
:1022500000F07F020CBF44236023012A05D0052A29
:1022600007D143F44073064A02E0064A43F4407340
:102270001360207010BD00BF2189FF1F348004400F
:102280001CC0044044A004400E4A1378984218D061
:102290000D490968490513D52BB1152B05D10B4BF9
:1022A0000021196001E00A490B6028B1152807D107
:1022B00040F21331054B02E0054B40F21331196037
:1022C00010707047CA92FF1F3480044018C0044049
:1022D00040A004400D4A38B5146814F480624FF0F1
:1022E000000410D021280A4D0AD80A4A012152F8C8
:1022F00030302B60FFF70CFD2B681C70012038BDBF
:102300002C60204638BD104638BD00BF34800440E4
:102310008492FF1FC07600000E4B1B6813F480638D
:1023200016D012280C4B03D140F202310B4A04E0C4
:10233000142809D10A4A40F2023111605A7B42F056
:1023400001025A73012070475A7B02F0FE025A7351
:10235000002070473480044000A006400CA00440D8
:1023600014C00440F8B51D4B1B685A05064633D50A
:102370001B4B1B680BB101221A701A4B1C780134DD
:10238000402C1F4628BF0024174D2B78A34218D19C
:10239000FFF7DAFB40280FDC144A13791B06F3D54C
:1023A0002B7813490133402B28BF0023C95CDBB2D3
:1023B000C9B2D1712B70E7E7FF28E5DD00F006FF19
:1023C000E2E70B4BF6B21E550A4B01221A70074B7F
:1023D000E4B2BC223C70DA70F8BD00BF3480044027
:1023E0001093FF1F1493FF1F0C93FF1F00A00640C4
:1023F0008A92FF1F8892FF1F274B1B685A052DE901
:10240000F04707468A4644D5244B1B680BB101228E
:102410001A703D4607EB0A039D4237D2DFF89080E1
:102420001F4E98F8004096F800900134402C28BFC9
:1024300000245FFA89F9A1451DD11A4BBC22DA703C
:10244000FFF782FB40280FDC164A13791B060FD5D5
:10245000337815490133402B28BF0023C95CDBB218
:10246000C9B2D171337003E0FF2801DD00F0AEFE88
:1024700033784B45E4D00C4B15F8012B1A550B4B18
:102480000122E4B21A7088F80040C3E7054BBC2271
:10249000DA70BDE8F08700BF348004401093FF1F5E
:1024A0000C93FF1F00A006408A92FF1F8892FF1F17
:1024B0001493FF1F08B5034B1B7813B100F086FE81
:1024C000F9E708BD8892FF1F064A074B1B78107872
:1024D000DBB2C0B283422CBF3F3000F1FF30C01AE4
:1024E000704700BF0C93FF1F1493FF1F054B187814
:1024F000054B1B78C0B2DBB2984238BF4030C01ADF
:10250000704700BF0B93FF1F8992FF1F10B5104B40
:1025100010491A780B78D2B2DBB29A4214D0013348
:10252000402B28BF00230C48DCB2C05C0C700B4968
:102530000968C0B251B19A4238BF4032D31A1A2B3F
:1025400004DC00230B7010BD4FF0FF3010BD00BF46
:102550000B93FF1F8992FF1FCB92FF1F8492FF1FD7
:10256000084B1A78084B1B78DBB29A4207D001332C
:10257000402B28BF0023054AD05CC0B270474FF003
:10258000FF3070470B93FF1F8992FF1FCB92FF1FF5
:102590000C4B1B685B0514D50B4BDA7802F0CB02B1
:1025A000DA7040225A74DA7842F03402DA70074B5B
:1025B0001A78074BD2B21A70064B1B680BB1002277
:1025C0001A7070473480044000A006408992FF1FB3
:1025D0000B93FF1F8492FF1F30B5374B1A7912F00F
:1025E000300F31D072B69A7D02F0FF0022B9DA794D
:1025F00040225A7462B627E062B6304A30491378F6
:102600000978DBB2C9B214462B4AD5795A1C402A44
:1026100028BF00228A42EDB202D02A4B9D541346B5
:10262000421E12F0FF00EFD1DAB22270264A126881
:1026300052B18B4236BFC1F14001C1EB03035B18BD
:10264000272BC4BF012313701B4BD978C9B20C06CA
:1026500020D51B7918061DD51C4B1D4A1D781378F3
:10266000EDB2DBB21046AB420CD0134A0133402B23
:102670001479184C28BF0023E45CE4B2D471127DB5
:10268000072AF0D9DBB203700B4B1A79120644BF4C
:102690007C22DA704B060ED5074B1A7912F0400FE8
:1026A000194608D00C4B00221A700C4B1B6803B162
:1026B0001A703C23CB7030BD00A006400B93FF1F67
:1026C0008992FF1FCB92FF1F8492FF1F1493FF1F5D
:1026D0000C93FF1F8A92FF1F8892FF1F1093FF1F0A
:1026E000F0B50C4B0C4C1A7842F0020504EBC50611
:1026F00082F00102706009481A700678002E0CBF43
:102700008827C82786F0010647EA0141067044F889
:102710003510F0BD8093FF1F0080FF1FF893FF1F4F
:10272000431E032B10B510D872B6094A52F8230085
:1027300048B1416842F82310064A018832F8134034
:10274000611A22F8131062B610BD002010BD00BF40
:102750007093FF1FA495FF1F013803280AD872B693
:10276000054B53F82030002013B101305B68FBE7C4
:1027700062B6704700207047C493FF1F10B572B651
:102780000123174A1A4412F8012C12071CD599008C
:10279000144A52F831402CB902EB43130830586008
:1027A000114B09E041F0010152F8314064B902EBEC
:1027B000C103083058600D4B42F831300C4B1A7889
:1027C000013A1A7062B610BD0133052BD9D162B639
:1027D000074B00221A70BDE8104000F0A7BB00BFF5
:1027E000907800000080FF1F88004000C800400073
:1027F000EE93FF1F431E032B30B532D8194A400118
:1028000040F01000104472B6174CE25C032A09D85D
:10281000DFE802F0160218050830022213E0083043
:10282000042210E01148124A50F8234014B940F82D
:10283000231002E052F82300416042F823100FE019
:10284000032200E00522E25410F0080F01F1080312
:102850000A8843600CBF8823C82343EA024303600D
:1028600062B630BD0080FF1F2C93FF1FC493FF1F73
:10287000D493FF1F2DE9F84FAB4F3C78E4B214F02E
:10288000040F3D4619D0A94B1B78A3B1A84A117873
:1028900001F0FF0321B1013BDBB2137003B900BEAD
:1028A000A44A117801F0FF0329B1013BDBB2137098
:1028B0000BB900F067FC04233B7004F0080303F03D
:1028C000FF02002B00F067829B4B9C4C1A78D2B21F
:1028D00015094FEA920840F0E48104EBC8035968F7
:1028E00054F83830C3F38303013B0C2B00F2D6813C
:1028F000DFE813F095019501D401D401D401D4018E
:10290000D401D401B001D401D401D4010D008C4D07
:102910000A684B688B486B6001218B4B44F8383058
:102920002A60DFF85082017092B240F28160002389
:102930008242C8F800302361A36117D8B2F5D06F86
:1029400080F01E81B2F5817F00F0CF8006D8802A0A
:1029500000F0BA80822A00F0BB8031E140F20233FD
:102960009A4200F0D180B2F5A06F1CE042F2210043
:10297000824200F051810ED8B2F5086F00F09E80BF
:10298000B2F5106F40F01C81684B6C4EAA781A703B
:1029900006F180090AE042F221218A4200F0088112
:1029A00042F221339A4200F00F8109E1336A1B069B
:1029B00003D5706A083800F0B9FA08364E45F5D1EB
:1029C0000026B146DFF8B0A156F80A0028B1D0F8C9
:1029D00004B000F0ABFA5846F8E74AF806005B4B43
:1029E000DFF898A1F05056F80A0028B1D0F804B0EA
:1029F00000F09CFA5846F8E7554B4AF80600F050AC
:102A0000544B23F81900544B19F80320023A032AB7
:102A100008D8DFE802F002040204002200E00122EC
:102A200003F8092009F10109B9F1040F06F10406C0
:102A3000C8D14A4B00221A7001269A46484A494B8F
:102A40003244334412F8012C9B0012F0080F1A7024
:102A50004FEA860925D000F04BFA38B104EB461353
:102A600008305860404B44F8393006E09AF800309E
:102A700044F8390001338AF8003000F039FA49F09F
:102A8000010338B104EBC302083050602E4A44F809
:102A9000332006E044F833009AF8003001338AF816
:102AA000003049F00202013649F003090023052EE7
:102AB00044F8323044F83930C0D186E01B4B2B4CFF
:102AC0001B7823700B4683E0284C237063707EE0F4
:102AD000AA88042A74D8254C920023706370244B72
:102AE0009B5C9E0773D5217071E0AA8802F07F027B
:102AF000042A65DC6B88002B62D191001C4A0A44D1
:102B0000117821F0020159E0AA8802F07F02042A1C
:102B100056DC6B88002B53D19100154A0A4411787A
:102B200041F002014AE000BF80200740F793FF1FF9
:102B30008193FF1FF993FF1F902007400080FF1F24
:102B4000E493FF1FF893FF1FC80040001C93FF1F72
:102B5000D493FF1FA495FF1F2C93FF1FEE93FF1F1D
:102B60009078000030C8011088004000EF93FF1FEC
:102B7000C02007401893FF1F7093FF1FC493FF1FCF
:102B80006A88A9889F4B53F8084CA3F10C00BCB18C
:102B900033F80C6C964209D133F80A6C8E4205D199
:102BA000120A032A0CBF2378038911E00C33EAE7E9
:102BB000954A1168954A1160A978954A117004E008
:102BC000944B0F221A7027E000231C4600E00223DA
:102BD000EE88B34238BF1E46402E34BF35464025EE
:102BE00020462946FFF77CFD761B2C4403D1402D5F
:102BF00012D1354603E0402E34BF354640252046ED
:102C00002946FFF76DFD761B2C4401D1402D03D1E1
:102C1000814AC8F8004016800122804B3DE0804B7D
:102C20001A8842F221039A4210D100237D4AC85CDF
:102C300098540133072BF9D11368862B02D17A4BB4
:102C40000F221A7000200146FFF74AFD774B44F827
:102C5000383023E0764E3568B5B1DFF8BC81B8F87E
:102C60000090B9F1400F34BF4C464024284621461D
:102C7000FFF736FDC4EB09039BB2A8F800300BB98F
:102C8000402C00D12B193360654B1A88B2F5A06F28
:102C900004D100225A709A78664B1A7001225F4B59
:102CA0006CE004EBC806013D736802F00802A3F172
:102CB0000800EDB202F0FF01002A36D000F036F92C
:102CC0005D485E4B50F82520EAB1516840F8251068
:102CD00002F108017160595D03290BD8DFE801F0AA
:102CE00002040608032104E0022102E0052100E0BD
:102CF0000421595516F0080F12880CBF8823C823E9
:102D000043EA024342E05A5D032A07D8DFE802F0B3
:102D100040400204002206E0012204E016F0080F01
:102D20000CBF022203225A5532E054F83820120C0C
:102D300023F8082C22B3DFF834E123F8061C43F80B
:102D4000041C5EF825303E4913B94EF8250002E018
:102D500051F8253058603B4B41F8250033F81510E9
:102D60000A4423F8152000F0C3F810B10830706051
:102D700006E0354B44F838001A7801321A7007E043
:102D80002A4B324A16F0080F08BF134644F8383071
:102D900008233B7070E5E0071FD520492B482C4CD9
:102DA00002230B702B4B1A702B4B186098602B482A
:102DB000D8601A619A615C60164B0D201870284823
:102DC000FF2303702B700274264A1370264B9F2238
:102DD0001A7001230B70BDE8F88F210604D50D4B46
:102DE0000D221A7080232B70A20705D51C4B1A7870
:102DF000D2B21A7002232B70E30644BF10232B704B
:102E0000BDE8F88FA07800008092FF1FB495FF1FE7
:102E10000894FF1FC0200740EC93FF1F9420074039
:102E2000E493FF1FAC95FF1F8193FF1FC800400074
:102E30001893FF1F98200740C493FF1F2C93FF1F78
:102E40001C93FF1FA495FF1FEE93FF1F88004000F7
:102E50003093FF1F8093FF1F0080FF1F8493FF1F8D
:102E6000882007408C200740842007407093FF1F74
:102E700008B501F017F900221A4B0021D15098181B
:102E80000832882A4160F7D1174A106840F4802040
:102E9000106002F528326832C3F307201070C3F3C4
:102EA00007401B0E10751376FF2302F81C3C02F836
:102EB000143C02F88C3C012302F8083C82F86410B0
:102EC00002F8183C094B70226FF450711A700B44D1
:102ED0004FF400721A6003F1C04303F5C8231022B7
:102EE0001A7008BD0080FF1F3480044049E400E0F0
:102EF00072B60C4A1168B1FA81F30B2B02D962B693
:102F0000002070474FF00040D84021EA00011160D6
:102F100062B6054948225343C8180022CA5042608D
:102F2000704700BF2489FF1F0084FF1F0C4B4822FD
:102F3000C31AB3FBF2F30B2B11D80A4A127822B151
:102F4000094A12780AB1FFF719BC72B6074A4FF066
:102F5000004121FA03F311681943116062B670470A
:102F60000084FF1FEE93FF1FF793FF1F2489FF1FAD
:102F700010B5104C23686BB120684288531C024482
:102F8000147A0288934212D3FFF7D0FF094B002234
:102F90001A600DE0084B1B7813B94FF0FF3010BDDD
:102FA0000320FFF7BDFB20600028E5D1F5E7438053
:102FB000204610BD0494FF1FF793FF1F10B50B4C64
:102FC000236813B123686BB902E0094B1B7813B96E
:102FD0004FF0FF3010BD0320FFF7A2FB2060002858
:102FE000F0D1F5E75A881344187A10BD0494FF1FF6
:102FF000F793FF1F044B9888044B1B681BB11A887A
:103000005B88D31A18447047A495FF1F0494FF1FD0
:1030100010B5094B1B786BB1084C206818B1FFF74D
:1030200085FF002323600320FFF77AFB10B1FFF731
:103030007DFFF8E710BD00BFF793FF1F0494FF1F4B
:103040002DE9F8432D4E012307460C463370002C22
:103050004FD02B4D2B68A9462BBB48F60148294B76
:103060001B7803F0FF020BB9327015E00420FFF764
:1030700073FB072808D801233370FFF739FFC9F81D
:10308000000080B91D4B1870B8F101081E4B01D02B
:103090001A782AB101221A704FF0FF30BDE8F88388
:1030A00000F094F8DBE72968174A4888002313707A
:1030B000C0F14002944238BF224600F1080C10448F
:1030C0008C444880A41A934204D0F85C0CF80300A6
:1030D0000133F8E71F444B883F2B06D940230B8070
:1030E0000420FFF787FB00232B60084B05221A7092
:1030F000ADE734702046BDE8F88300BFFA93FF1FA8
:10310000FC93FF1FF793FF1F0094FF1FF993FF1F0E
:1031100007B502AB012103F8010D1846FFF790FF38
:1031200003B05DF804FBFFFF2DE9F041114B1B7864
:10313000F3B1114E114B3468114D01271F709846A1
:103140004CB1002763882F70042023802146FFF7AD
:1031500051FB376009E0FFF7CBFE014620B10420A8
:103160002C70FFF747FB00E02F70002388F8003039
:10317000BDE8F081F793FF1FFC93FF1FFA93FF1F39
:10318000F993FF1F38B50E4B1B7803F0FF05ABB961
:103190000C4C216831B14B880B800420FFF72AFBCF
:1031A000256038BDFFF7A4FE014620B10420BDE82C
:1031B0003840FFF71FBB044B01221A7038BD00BF17
:1031C000FA93FF1FFC93FF1FF993FF1F10B50E4CDE
:1031D0002378BBB901232370FFF70CFF08B100F07F
:1031E000AAFFFFF783F908B1FEF7C6FB00F0FCFB6E
:1031F00008B100F085F800F089FE08B100F00AF986
:103200000023237010BD00BF0994FF1F08B5036899
:10321000C9B21B68984708BD08B50368C9B21B68E6
:10322000984708BD08B50368C9B21B68984708BD30
:1032300008B50368C9B21B68984708BD034800EB8E
:103240005100B0FBF1F000F06BB900BF00449508ED
:1032500010B5064800EB51001446B0FBF1F000F049
:103260005FF92046BDE8104000F0BEB90044950863
:1032700000F0E4B9084600F039BA084600F088BA10
:103280000846114600F04EBA08B5084600F0A8FA04
:10329000003018BF012008BD08B5084600F0C2FA8A
:1032A000003018BF012008BD00F09EBB00F0D6BB67
:1032B00000F0AABB00F07CBB00F0E8BB00F082BBD2
:1032C00008B5084600F0CCFA012008BD08B508464C
:1032D00000F0C6FA012008BD10B508461446114694
:1032E00000F008FB204610BD38B508460D4603F037
:1032F00087FC04462146284600F0FCFA204638BDEB
:103300007047FFFF044B00221A714FF47A711A7351
:10331000024A99601A6070470C94FF1FD87700002A
:1033200008B50368C9B21B68984708BD08B50368AB
:10333000C9B21B68984708BD08B50368C9B21B68C5
:10334000984708BD08B50368C9B21B68984708BD0F
:10335000034800EB5100B0FBF1F000F03FBC00BFB0
:1033600000A24A0410B5064800EB51001446B0FB19
:10337000F1F000F033FC2046BDE8104000F070BCD6
:1033800000A24A0400F096BC084600F0C7BC0846FC
:1033900000F008BD0846114600F0DCBC08B5084640
:1033A00000F002FD003018BF012008BD08B5084636
:1033B00000F01CFD003018BF012008BD00F0A6BDC4
:1033C00000F0DEBD00F0B2BD00F084BD00F0F0BD45
:1033D00000F08ABD08B5084600F026FD012008BDB2
:1033E00008B5084600F020FD012008BD10B50846CC
:1033F0001446114600F062FD204610BD38B508465F
:103400000D4603F0FDFB04462146284600F056FD1C
:10341000204638BD7047FFFF044B00221A714FF45D
:103420007A711A73024A99601A6070471C94FF1FE0
:103430003878000010B5204B2048214960221A70CE
:10344000E1225A701F4B204A1C78204B082C01D1D6
:10345000012402E00A2C03D119240460132005E0A2
:103460000C2C0CBF15243D2404601220086014604D
:103470001860174B17491B78174A03B101230B60DB
:103480001360164B164A1978164B012901D8802172
:103490000BE0042901D8842107E0082901D88521FF
:1034A00003E0102994BF86218721116019600E4B1B
:1034B00001221A7010BD00BF0040074008B0034051
:1034C0000CB003402889FF1F08B00B400CB00B4024
:1034D0002D94FF1F20B0034020B00B402989FF1F0F
:1034E00024B0034024B00B402C94FF1F084B1A68F3
:1034F00042F480521A60074B1A78074B0AB18022B7
:1035000000E0C0221A70054B80F30C001880704751
:103510002C8004402D94FF1F21C00C4000C00C40A3
:10352000234B1A6842F400621A60224A0023137087
:10353000214A1370214A1370214A1370214A1370D3
:10354000214B1B78092B05D01A2B07D140F21332DF
:103550001E4B02E01E4B40F213321A601D4B1B78CB
:103560000A2B05D01F2B07D14FF451721A4B02E0E2
:103570001A4B4FF451721A60194BC0F344321A704F
:10358000C0F347125A7000F01F0004220221987203
:103590009A70D9745A7588221A743C22DA70114BC9
:1035A00040221A70A3F22B334FF400421A60704786
:1035B000348004409E94FF1F3594FF1FA494FF1F86
:1035C0009F94FF1F3494FF1F2A89FF1F04D00440DB
:1035D0000CB004402B89FF1F00D0044010B0044001
:1035E00000B006402FE400E0134A937800F0030196
:1035F00003F0EC030B43410748BF43F01003937003
:1036000000F00F03042B0C4903D18B7943F04003E6
:103610008B715379C20603F0EF03074A48BF43F0AA
:10362000100353719379810603F0EF0348BF43F011
:1036300010039371704700BF00B0064008B51E4BE1
:103640001B681B0500D408BD1C4B1B7803F0FF0250
:1036500013B1FFF7BBFDF7E7194B4FF400411960B9
:10366000184BDA70184B1B78092B05D01A2B07D191
:1036700040F20312154B02E0154B40F203121A60A0
:10368000144B1B7803F07F030A2B05D01F2B07D1A7
:1036900040F20312104B02E0104B40F203121A608A
:1036A0000F4A002313700F4A13700F4B1B680BB1A6
:1036B00001221A7008BD00BF348004403494FF1FFB
:1036C00084E100E000B006402A89FF1F04D00440D6
:1036D0000CB004402B89FF1F00D0044010B0044000
:1036E0009E94FF1F3594FF1F3094FF1F38B504468A
:1036F000094B1B7803F0FF05002BF9D1204601216F
:10370000FEF706FB20462946FEF7E2FA034B53F884
:103710003420034B1A6038BD3494FF1FC07600007C
:10372000A094FF1F10B509B140F08000144A13782F
:103730009842144622D0134A126812051DD503F090
:103740007F030A2B04D01F2B05D100220E4B01E072
:103750000E4B00221A60002900F07F020CBF4423A8
:1037600060230A2A05D01F2A07D143F44073064A72
:1037700002E0064A43F440731360207010BD00BF9E
:103780002B89FF1F3480044000D0044010B0044057
:103790000F4A137898421AD00E490968090515D5C1
:1037A000092B04D01A2B05D100210B4B01E00B4B48
:1037B00000211960092805D01A2807D140F21331D9
:1037C000054B02E0054B40F2133119601070704751
:1037D0002A89FF1F3480044004D004400CB0044008
:1037E0000D4A38B5146814F400624FF0000410D08C
:1037F00021280A4D0AD80A4A012152F830302B609C
:10380000FEF786FA2B681C70012038BD2C6020461C
:1038100038BD104638BD00BF348004403094FF1FCF
:10382000C07600000B4B1B6813F4006310D0172800
:10383000094B09D1094A40F2023111605A7B42F02A
:1038400001025A73012070475A7B02F0FE025A733C
:10385000002070473480044000B0064008B00440A7
:10386000F8B51D4B1B681A05064633D51B4B1B6864
:103870000BB101221A701A4B1C780134282C1F46F8
:1038800028BF0024174D2B78A34218D1FEF75CF90E
:1038900040280FDC144A13791B06F3D52B78134903
:1038A0000133282B28BF0023C95CDBB2C9B2D17118
:1038B0002B70E7E7FF28E5DDFFF788FCE2E70B4B1D
:1038C000F6B21E550A4B01221A70074BE4B2BC2215
:1038D0003C70DA70F8BD00BF34800440A094FF1F34
:1038E000A494FF1F9F94FF1F00B006403694FF1F53
:1038F0003494FF1F274B1B681A052DE9F047074634
:103900008A4644D5244B1B680BB101221A703D46F0
:1039100007EB0A039D4237D2DFF890801F4E98F8DC
:10392000004096F800900134282C28BF00245FFA4C
:1039300089F9A1451DD11A4BBC22DA70FEF704F9B2
:1039400040280FDC164A13791B060FD5337815492A
:103950000133282B28BF0023C95CDBB2C9B2D17167
:10396000337003E0FF2801DDFFF730FC33784B456F
:10397000E4D00C4B15F8012B1A550B4B0122E4B285
:103980001A7088F80040C3E7054BBC22DA70BDE826
:10399000F08700BF34800440A094FF1F9F94FF1F56
:1039A00000B006403694FF1F3494FF1FA494FF1FFD
:1039B00008B5034B1B7813B1FFF708FCF9E708BD06
:1039C0003494FF1F064A074B1B781078DBB2C0B255
:1039D00083422CBF273000F1FF30C01A704700BF70
:1039E0009F94FF1FA494FF1F054B1878054B1B786D
:1039F000C0B2DBB2984238BF4030C01A704700BF37
:103A00009E94FF1F3594FF1F10B5104B10491A7874
:103A10000B78D2B2DBB29A4214D00133402B28BFCC
:103A200000230C48DCB2C05C0C700B490968C0B2C2
:103A300051B19A4238BF4032D31A1A2B04DC00230A
:103A40000B7010BD4FF0FF3010BD00BF9E94FF1FE4
:103A50003594FF1F5E94FF1F3094FF1F084B1A78A8
:103A6000084B1B78DBB29A4207D00133402B28BFAA
:103A70000023054AD05CC0B270474FF0FF3070475A
:103A80009E94FF1F3594FF1F5E94FF1F0C4B1B6815
:103A90001B0514D50B4BDA7802F0CB02DA7040220A
:103AA0005A74DA7842F03402DA70074B1A78074B0E
:103AB000D2B21A70064B1B680BB100221A70704705
:103AC0003480044000B006403594FF1F9E94FF1FD1
:103AD0003094FF1F30B5374B1A7912F0300F31D0C8
:103AE00072B69A7D02F0FF0022B9DA7940225A7448
:103AF00062B627E062B6304A304913780978DBB203
:103B0000C9B214462B4AD5795A1C402A28BF002234
:103B10008A42EDB202D02A4B9D541346421E12F047
:103B2000FF00EFD1DAB22270264A126852B18B42FE
:103B300036BFC1F14001C1EB03035B18272BC4BFA3
:103B4000012313701B4BD978C9B20C0620D51B7901
:103B500018061DD51C4B1D4A1D781378EDB2DBB23B
:103B60001046AB420CD0134A0133282B1479184C61
:103B700028BF0023E45CE4B2D471127D072AF0D997
:103B8000DBB203700B4B1A79120644BF7C22DA7049
:103B90004B060ED5074B1A7912F0400F194608D084
:103BA0000C4B00221A700C4B1B6803B11A703C239B
:103BB000CB7030BD00B006409E94FF1F3594FF1FB0
:103BC0005E94FF1F3094FF1FA494FF1F9F94FF1F5C
:103BD0003694FF1F3494FF1FA094FF1F174B1A68E1
:103BE00042F480521A60164A00231370154A13706B
:103BF000154A1370154A1370154A1370154A40F28E
:103C0000133111604FF451715160134AC0F34431C4
:103C10001170C0F3471100F01F0051709072937043
:103C200013742C23D3700D4B40226FF44B711A7018
:103C30000B444FF400321A60704700BF34800440D8
:103C40001695FF1FAD94FF1F1C95FF1F1795FF1FB3
:103C5000AC94FF1F08C0044000C0064031E400E0FF
:103C6000134A937800F0030103F0EC030B43410780
:103C700048BF43F01003937000F00F03042B0C496E
:103C800003D18B7943F040038B715379C20603F063
:103C9000EF03074A48BF43F010035371937981063D
:103CA00003F0EF0348BF43F010039371704700BF68
:103CB00000C0064008B5114B1B68DB0400D408BDEA
:103CC0000F4B1A7802F0FF0312B1FFF77FFAF7E704
:103CD0000C4A4FF4003111600B4A0C49D37040F28A
:103CE00003120A604A600A4A13700A4A13700A4BA8
:103CF0001B680BB101221A7008BD00BF348004405C
:103D0000AC94FF1F84E100E000C0064008C00440FE
:103D10001695FF1FAD94FF1FA894FF1F38B50446EA
:103D2000094B1B7803F0FF05002BF9D12046012138
:103D3000FDF7EEFF20462946FDF7CAFF034B53F877
:103D40003420034B1A6038BDAC94FF1FC0760000CE
:103D50001895FF1F10B509B140F080000E4A137886
:103D6000984217D00D4C2468E40412D503F07F0369
:103D7000082B02D10A4B00241C60002900F07F03AD
:103D80000CBF44216021082B03D1054B41F4407145
:103D90001960107010BD00BF2C89FF1F34800440D3
:103DA0000CC004407047FFFF0D4A38B5146814F486
:103DB00080524FF0000410D021280A4D0AD80A4A38
:103DC000012152F830302B60FDF7A2FF2B681C70E8
:103DD000012038BD2C60204638BD104638BD00BFDC
:103DE00034800440A894FF1FC07600000B4B1B6872
:103DF00013F4805310D00E28094B09D1094A40F220
:103E0000023111605A7B42F001025A73012070475F
:103E10005A7B02F0FE025A7300207047348004403F
:103E200000C0064004C00440F8B51D4B1B68DA040E
:103E3000064633D51B4B1B680BB101221A701A4B77
:103E40001C780134282C1F4628BF0024174D2B78DE
:103E5000A34218D1FDF778FE40280FDC144A1379ED
:103E60001B06F3D52B7813490133282B28BF0023D9
:103E7000C95CDBB2C9B2D1712B70E7E7FF28E5DD81
:103E8000FFF7A4F9E2E70B4BF6B21E550A4B0122ED
:103E90001A70074BE4B2AC223C70DA70F8BD00BF78
:103EA000348004401895FF1F1C95FF1F1795FF1FB6
:103EB00000C00640AE94FF1FAC94FF1F38B5044607
:103EC0004518AC4204D014F8010BFFF7ADFFF8E73A
:103ED00038BDFFFF08B5034B1B7813B1FFF776F928
:103EE000F9E708BDAC94FF1F064A074B1B78107812
:103EF000DBB2C0B283422CBF273000F1FF30C01AC2
:103F0000704700BF1795FF1F1C95FF1F054B1878C2
:103F1000054B1B78C0B2DBB2984238BF4030C01AA4
:103F2000704700BF1695FF1FAD94FF1F10B5104BD3
:103F300010491A780B78D2B2DBB29A4214D001330E
:103F4000402B28BF00230C48DCB2C05C0C700B492E
:103F50000968C0B251B19A4238BF4032D31A1A2B05
:103F600004DC00230B7010BD4FF0FF3010BD00BF0C
:103F70001695FF1FAD94FF1FD694FF1FA894FF1F37
:103F8000084B1A78084B1B78DBB29A4207D00133F2
:103F9000402B28BF0023054AD05CC0B270474FF0C9
:103FA000FF3070471695FF1FAD94FF1FD694FF1F7B
:103FB000054B1A78054BD2B21A70054B1B680BB132
:103FC00000221A70704700BFAD94FF1F1695FF1FA7
:103FD000A894FF1F10B5294B1A79920620D5284ABC
:103FE000D879137827490133402B097828BF00235B
:103FF0008B42C0B203D02449C854D9B21170234AAD
:10400000116869B1224A1278D2B2934236BFC2F126
:104010004002C2EB03039B18272BC4BF01230B7084
:10402000164AD178C9B20C0616D51379180613D5DD
:10403000184B17481C780378DBB29C4202D16C23E2
:10404000D37009E00133282B28BF0023124CE45C15
:10405000DBB2E4B2D47103704B060ED5074B1A796C
:1040600012F0400F194608D00C4B00221A700C4B6E
:104070001B6803B11A702C23CB7010BD00C0064022
:104080001695FF1FAD94FF1FD694FF1FA894FF1F26
:104090001795FF1F1C95FF1FAE94FF1FAC94FF1FC9
:1040A0001895FF1F1FB572B6154B70221A70154A6E
:1040B000412111700F2102F8011C80221A701A7818
:1040C0001206FCD5104B186862B6104B984298BF88
:1040D0000A2301AC98BF584321460A2200F03AF85F
:1040E0000023E15C0A4A29B102EB430001330A2BA9
:1040F0004180F6D101335B00137004B010BD00BFE6
:104100000000024007000240080002407F9698002D
:10411000B689FF1FFEF76EBFFEF72ABFFEF74EBF40
:10412000FFF702B8FEF774BF0846FEF7F1BF084676
:104130001146FEF785BF7047044B00221A714FF4F9
:104140007A711A73024A99601A6070472095FF1FAE
:10415000F078000010B50023B0FBF2F402FB14006D
:10416000092894BF30303730C0B2C85420460CB153
:104170000133F1E7CA18547022469A4206DA885C85
:10418000CC5C8C54C8540132013BF6E7084610BDA4
:1041900081F0004102E000BF83F0004330B54FEAF8
:1041A00041044FEA430594EA050F08BF90EA020F65
:1041B0001FBF54EA000C55EA020C7FEA645C7FEAF8
:1041C000655C00F0E2804FEA5454D4EB5555B8BF1B
:1041D0006D420CDD2C4480EA020281EA030382EA8C
:1041E000000083EA010180EA020281EA0303362D1E
:1041F00088BF30BD11F0004F4FEA01314FF4801CF1
:104200004CEA113102D0404261EB410113F0004F02
:104210004FEA03334CEA133302D0524263EB4303B9
:1042200094EA050F00F0A780A4F10104D5F1200E57
:104230000DDB02FA0EFC22FA05F2801841F10001B2
:1042400003FA0EF2801843FA05F359410EE0A5F186
:1042500020050EF1200E012A03FA0EFC28BF4CF0B7
:10426000020C43FA05F3C01851EBE37101F000456D
:1042700007D54FF0000EDCF1000C7EEB00006EEB7A
:104280000101B1F5801F1BD3B1F5001F0CD3490804
:104290005FEA30004FEA3C0C04F101044FEA44525B
:1042A00012F5800F80F09A80BCF1004F08BF5FEAE2
:1042B000500C50F1000041EB045141EA050130BDC2
:1042C0005FEA4C0C404141EB010111F4801FA4F165
:1042D0000104E9D191F0000F04BF01460020B1FABA
:1042E00081F308BF2033A3F10B03B3F120020CDAF2
:1042F0000C3208DD02F1140CC2F10C0201FA0CF0D0
:1043000021FA02F10CE002F11402D8BFC2F1200C34
:1043100001FA02F120FA0CFCDCBF41EA0C019040EA
:10432000E41AA2BF01EB0451294330BD6FEA040433
:104330001F3C1CDA0C340EDC04F11404C4F120021E
:1043400020FA04F001FA02F340EA030021FA04F330
:1043500045EA030130BDC4F10C04C4F1200220FA87
:1043600002F001FA04F340EA0300294630BD21FAC5
:1043700004F0294630BD94F0000F83F4801306BF8B
:1043800081F480110134013D4EE77FEA645C18BF7F
:104390007FEA655C29D094EA050F08BF90EA020F16
:1043A00005D054EA000C04BF1946104630BD91EA0E
:1043B000030F1EBF0021002030BD5FEA545C05D111
:1043C0004000494128BF41F0004130BD14F5800450
:1043D0003CBF01F5801130BD01F0004545F0FE41C4
:1043E00041F470014FF0000030BD7FEA645C1ABFF9
:1043F000194610467FEA655C1CBF0B46024650EA30
:10440000013406BF52EA033591EA030F41F400215B
:1044100030BD00BF90F0000F04BF0021704730B5E1
:104420004FF4806404F132044FF000054FF00001B6
:1044300050E700BF90F0000F04BF0021704730B577
:104440004FF4806404F1320410F0004548BF40424C
:104450004FF000013EE700BF42004FEAE2014FEAA1
:1044600031014FEA02701FBF12F07F4393F07F4F7C
:1044700081F06051704792F0000F14BF93F07F4FAE
:10448000704730B54FF4607401F0004521F00041F1
:1044900020E700BF50EA010208BF704730B54FF077
:1044A00000050AE050EA010208BF704730B511F07C
:1044B000004502D5404261EB41014FF4806404F1B4
:1044C00032045FEA915C3FF4DCAE4FF003025FEA36
:1044D000DC0C18BF03325FEADC0C18BF033202EBBE
:1044E000DC02C2F1200300FA03FC20FA02F001FA18
:1044F00003FE40EA0E0021FA02F11444C1E600BFB7
:104500004FEA410212F5001215D211D56FF47873FB
:10451000B3EB625212D94FEAC12343F0004343EA9E
:10452000505311F0004F23FA02F018BF4042704779
:104530004FF00000704750EA013005D111F0004003
:1045400008BF6FF0004070474FF00000704700BF99
:104550004FEA4102B2F1E04324BFB3F5001CDCF1A5
:10456000FE5C0DD901F0004C4FEAC0024CEA5070DD
:10457000B2F1004F40EB830008BF20F0010070470C
:1045800011F0804F21D113F13872BCBF01F000400F
:10459000704741F480114FEA5252C2F11802C2F141
:1045A000200C10FA0CF320FA02F018BF40F00100C2
:1045B0004FEAC1234FEAD32303FA0CFC40EA0C0074
:1045C00023FA02F34FEA4303CCE77FEA625307D1B1
:1045D00050EA01331EBF4FF0FE4040F440007047E8
:1045E00001F0004040F0FE4040F40000704700BF82
:1045F00080F0004002E000BF81F0004142001FBF98
:104600005FEA410392EA030F7FEA226C7FEA236CA0
:104610006AD04FEA1262D2EB1363C1BFD218414095
:1046200048404140B8BF5B42192B88BF704710F02B
:10463000004F40F4000020F07F4018BF404211F0CE
:10464000004F41F4000121F07F4118BF494292EA36
:10465000030F3FD0A2F1010241FA03FC10EB0C0062
:10466000C3F1200301FA03F100F0004302D54942EF
:1046700060EB4000B0F5000F13D3B0F1807F06D39C
:1046800040084FEA310102F10102FE2A51D2B1F194
:10469000004F40EBC25008BF20F0010040EA030089
:1046A0007047490040EB000010F4000FA2F1010236
:1046B000EDD1B0FA80FCACF1080CB2EB0C0200FAC0
:1046C0000CF0AABF00EBC25052421843BCBFD0400E
:1046D0001843704792F0000F81F4000106BF80F488
:1046E00000000132013BB5E74FEA41037FEA226C4B
:1046F00018BF7FEA236C21D092EA030F04D092F016
:10470000000F08BF0846704790EA010F1CBF002049
:10471000704712F07F4F04D1400028BF40F00040A6
:10472000704712F100723CBF00F50000704700F0C6
:10473000004343F0FE4040F4000070477FEA2262ED
:1047400016BF08467FEA23630146420206BF5FEABE
:10475000412390EA010F40F4800070474FF00003BE
:1047600004E000BF10F0004348BF40425FEA000C85
:1047700008BF704743F0964301464FF000001CE02D
:1047800050EA010208BF70474FF000030AE000BF83
:1047900050EA010208BF704711F0004302D54042C1
:1047A00061EB41015FEA010C02BF84460146002033
:1047B00043F0B64308BFA3F18053A3F50003BCFA4E
:1047C0008CF2083AA3EBC25310DB01FA02FC6344FB
:1047D00000FA02FCC2F12002BCF1004F20FA02F202
:1047E00043EB020008BF20F00100704702F12002F5
:1047F00001FA02FCC2F1200250EA4C0021FA02F256
:1048000043EB020008BF20EADC7070474FF0FF0C5A
:104810001CEAD0521EBF1CEAD15392EA0C0F93EA55
:104820000C0F6FD01A4480EA010C400218BF5FEAF7
:1048300041211ED04FF0006343EA501043EA51116A
:10484000A0FB01310CF00040B1F5000F3EBF490064
:1048500041EAD3715B0040EA010062F17F02FD2A68
:104860001DD8B3F1004F40EBC25008BF20F001004B
:10487000704790F0000F0CF0004C08BF49024CEA62
:10488000502040EA51207F3AC2BFD2F1FF0340EAF4
:10489000C250704740F400004FF00003013A5DDC65
:1048A00012F1190FDCBF00F000407047C2F10002A6
:1048B000410021FA02F1C2F1200200FA02FC5FEA93
:1048C000310040F1000053EA4C0308BF20EADC70DD
:1048D000704792F0000F00F0004C02BF400010F44F
:1048E000000F013AF9D040EA0C0093F0000F01F0FC
:1048F000004C02BF490011F4000F013BF9D041EA1E
:104900000C018FE70CEAD15392EA0C0F18BF93EA1F
:104910000C0F0AD030F0004C18BF31F0004CD8D149
:1049200080EA010000F00040704790F0000F17BFD0
:1049300090F0004F084691F0000F91F0004F14D016
:1049400092EA0C0F01D142020FD193EA0C0F03D16E
:104950004B0218BF084608D180EA010000F0004071
:1049600040F0FE4040F40000704740F0FE4040F44C
:10497000400070474FF0FF0C1CEAD0521EBF1CEAEB
:10498000D15392EA0C0F93EA0C0F69D0A2EB030209
:1049900080EA010C49024FEA402037D04FF08053A3
:1049A00043EA111143EA10130CF000408B4238BF68
:1049B0005B0042F17D024FF4000C8B4224BF5B1A76
:1049C00040EA0C00B3EB510F24BFA3EB510340EAC4
:1049D0005C00B3EB910F24BFA3EB910340EA9C0072
:1049E000B3EBD10F24BFA3EBD10340EADC001B01E2
:1049F00018BF5FEA1C1CE0D1FD2A3FF650AF8B4286
:104A000040EBC25008BF20F0010070470CF0004C92
:104A10004CEA50207F32C2BFD2F1FF0340EAC250BD
:104A2000704740F400004FF00003013A37E792F07E
:104A3000000F00F0004C02BF400010F4000F013ADC
:104A4000F9D040EA0C0093F0000F01F0004C02BFD7
:104A5000490011F4000F013BF9D041EA0C0195E740
:104A60000CEAD15392EA0C0F08D142027FF47DAFD9
:104A700093EA0C0F7FF470AF084676E793EA0C0FC9
:104A800004D14B023FF44CAF08466EE730F0004CC7
:104A900018BF31F0004CCAD130F000427FF45CAF57
:104AA00031F000437FF43CAF5FE700BF4FF0FF3CC5
:104AB00006E000BF4FF0010C02E000BF4FF0010C18
:104AC0004DF804CD4FEA40024FEA41037FEA226CE1
:104AD00018BF7FEA236C11D001B052EA530C18BF03
:104AE00090EA010F58BFB2EB030088BFC81738BF68
:104AF0006FEAE17018BF40F0010070477FEA226C56
:104B000002D15FEA402C05D17FEA236CE4D15FEA51
:104B1000412CE1D05DF8040B704700BF8446084685
:104B20006146FFE70FB5FFF7C9FF002848BF10F146
:104B3000000F0FBD4DF808EDFFF7F4FF0CBF01208B
:104B400000205DF808FB00BF4DF808EDFFF7EAFF15
:104B500034BF012000205DF808FB00BF4DF808EDD0
:104B6000FFF7E0FF94BF012000205DF808FB00BFC5
:104B70004DF808EDFFF7D2FF94BF012000205DF84B
:104B800008FB00BF4DF808EDFFF7C8FF34BF012058
:104B900000205DF808FB00BF094B1B7813B9094BD7
:104BA0001B782BB1084A1378202B03D901230371FA
:104BB00000207047581C1070044A0120D1547047DF
:104BC0009695FF1F5995FF1F9795FF1F3895FF1F5B
:104BD0007047FFFF024B1878024B1B78C01A7047D2
:104BE0009595FF1F9495FF1F064A0749137809788A
:104BF000994204D9591C1170044AD05C70474FF097
:104C0000FF3070479495FF1F9595FF1F5A95FF1F22
:104C1000054B064A1B7812789A4286BF044AD05C3C
:104C20004FF0FF30704700BF9495FF1F9595FF1F11
:104C30005A95FF1F70B50E4B1B78144613B90D4BD8
:104C40001B7893B10C4A1578C5F121039C42164696
:104C500002D9012202711C460848224628442544F4
:104C6000FCF7A2FE3570204670BD184670BD00BF2F
:104C70009695FF1F5995FF1F9795FF1F3895FF1FAA
:104C800010B5114BDB7803F0200303F0FF045BB990
:104C90001220FCF7EFFF0D4B1B68A3B10C4A1470F8
:104CA0000C4A1078984710BD0B4A13780133DBB2D9
:104CB000012B137002D8094B1B7823B91220BDE8D1
:104CC0001040FCF7D7BF10BD006006403495FF1FB1
:104CD0009495FF1F9595FF1F8095FF1F5995FF1F06
:104CE000002202714FF47A710273024A81600260FD
:104CF000704700BF18790000094B1B685B060DD593
:104D0000084B9942084B01D8282204E0074A9142F7
:104D100094BF19220A225A7003229A71704700BF69
:104D2000348004407F1A0600006006403F420F00B6
:104D3000174A08B500231370164A116841F0400164
:104D40001160154A9370154B1B78122B03D14FF449
:104D50001972134B04E0112B03D1124B4FF419724B
:104D60001A60114B1B78132B03D14FF419720F4BA0
:104D700004E0102B03D10E4B4FF419721A600D4949
:104D8000FFF7BAFF044B20225A7180229A7008BDA7
:104D90005995FF1F3480044000600640CC89FF1FF6
:104DA0000CA0044004A00440CD89FF1F08A00440CB
:104DB00000A00440A086010010B53649CB78DBB2D4
:104DC00013F0100F03F0400201D12AB92CE010209B
:104DD000C870002AF9D110BD03F0040303F0FF01ED
:104DE0002D4AC3B1002313702C4A13702C4B1B683F
:104DF000144603B1984723782A4A1BB927491370F0
:104E000001200870234BD021997012781A71264B1B
:104E100001221A7039E001231370244B19701D4BC5
:104E2000C0229A701B7930E01A4CA27802F010026E
:104E300002F0FF01AAB113F001030ED11A4917487D
:104E40000A780078904203D9531C0B70154B9B5C79
:104E50002371104BD0229A7017E0C023A3702379DE
:104E600013E0134B0322197012201249FCF7B8FE0D
:104E70000E4A217913781F2BC9B206D8064800784C
:104E800018B1581C10700C4AD154024B0222DA702F
:104E900010BD00BF006006403095FF1F9795FF1FB3
:104EA0007C95FF1F3895FF1F9895FF1F9595FF1F55
:104EB0008095FF1F814C00005A95FF1F0148FFF7A6
:104EC0000FBF00BF8495FF1F30B5054A0C68056809
:104ED000B4FBF2F31D4402FB134305600B6030BDCD
:104EE00000CA9A3B10B58360029BC360039B0160BC
:104EF0004260036110BD2DE9F047824688460846AE
:104F00001146FFF779FBFFF7A7FA04460D46224644
:104F1000DAE906012B46FFF741F9DAE90A23CAE983
:104F2000060120462946FFF737F906460F46CAE92B
:104F3000086740460021FFF7FDFD60B14FF0000813
:104F40004FF000092046294642464B4600F00AFC35
:104F500008B1CAE90689DAF80800FFF77DFA2246A7
:104F60002B4600F097F98046DAF80C008946FFF7E7
:104F700073FADAE9062300F08DF902460B46404643
:104F80004946FFF70BF98046DAF810008946FFF72B
:104F900063FA32463B4600F07DF902460B46404636
:104FA0004946FFF7FBF8CAE90A450646DAF8000069
:104FB000DAF804800F46FFF74FFA04460D463046F4
:104FC000394622462B4600F0D7FB58B94046FFF73A
:104FD00043FA04460D463046394622462B4600F039
:104FE000E9FB18B120462946BDE8F087304639462E
:104FF000BDE8F0878160C26003617047FFFFFFFF7B
:1050000070B5044610461E460D46FFF725FA10A35C
:10501000D3E90023C4E90A0100F03CF9FFF798FA4C
:105020002562E06026630498FFF704FA02460B4607
:1050300000204FF0804100F015FC0022064BFFF7E6
:10504000ABF8C4E90E01204670BD00BFAFF300808D
:1050500000000060FB2109400000F03FAFF300803A
:105060002DE9F8430C460546284910461E46FFF731
:10507000CDFB2649206080463046FFF7C7FB234919
:10508000606007460898FFF7C1FB216BA060FFF73F
:10509000BDFBE6682061814631464046FFF76AFC69
:1050A0003146804660613846FFF764FC314607466A
:1050B000A0614846FFF75EFC39460646E06140467F
:1050C000FFF79AFA31460446FFF796FA00F07CFBA8
:1050D000394628604046FFF791FA31460746FFF708
:1050E0008BFA00F071FB3146A8603846FFF786FA6C
:1050F00000F06AFB314668602046FFF77FFA00F057
:1051000063FBE8602846BDE8F88300BF00007042FA
:105110002DE9F04706461746984689461EA3D3E96F
:105120000023D1E90A0100F0B5F84FF0020A044665
:1051300007EB080090FBFAF00D46FFF77BF9002221
:10514000174B00F0D1F922462B4600F0A3F8FFF7E9
:10515000FFF93060C7EB080090FBFAF0FFF76AF93F
:1051600000220F4B00F0C0F922462B4600F092F8C7
:105170000446D9F830000D46FFF76EF902460B469B
:105180002046294600F0B0F9FFF7E2F9B06030465A
:10519000BDE8F087AFF3008000000060FB2109400C
:1051A00000004E40AFF30080F8B51D4600230371A8
:1051B000069BC361044616460F46C8B20121FCF7A0
:1051C000A7FDF0B20121FCF7A3FDE8B20121FCF735
:1051D0009FFD27616661A5612046F8BDFFFFFFFFC7
:1051E0002DE9F3411A4B064680681B680193081AA3
:1051F0008846FFF71FF90446F069019F0D46FFF747
:1052000019F902460B462046294600F06DF904467E
:10521000F068381A0D46FFF7FDF80BA3D3E9002319
:1052200000F062F902460B462046294600F05CF980
:10523000FFF766F9F7603060C6F8088002B0BDE895
:10524000F08100BFAFF3008000000000004CED4093
:105250008092FF1FAFF3008038B50D1E044606DDB7
:10526000007D0121FCF734FD207E002106E007D0FF
:10527000007D0021FCF72CFD207E0121FCF728FD9C
:10528000207C85EAE571A1EBE571BDE83840FCF7CB
:105290007DBDFFFF70B54FF0FF0C4CF4E06C1CEAD5
:1052A00011541DBF1CEA135594EA0C0F95EA0C0F1C
:1052B00000F0DEF82C4481EA030621EA4C5123EA8F
:1052C0004C5350EA013518BF52EA033541F48011BE
:1052D00043F4801338D0A0FB02CE4FF00005E1FB71
:1052E00002E506F00042E0FB03E54FF00006E1FBBB
:1052F00003569CF0000F18BF4EF0010EA4F1FF04FE
:10530000B6F5007F64F5407404D25FEA4E0E6D413D
:1053100046EB060642EAC62141EA55514FEAC5204E
:1053200040EA5E504FEACE2EB4F1FD0C88BFBCF5CA
:10533000E06F1ED8BEF1004F08BF5FEA500E50F17B
:10534000000041EB045170BD06F0004646EA010141
:1053500040EA020081EA0301B4EB5C04C2BFD4EB73
:105360000C0541EA045170BD41F480114FF0000E6C
:10537000013C00F3AB8014F1360FDEBF002001F0DA
:10538000004170BDC4F10004203C35DA0C341BDC54
:1053900004F11404C4F1200500FA05F320FA04F026
:1053A00001FA05F240EA020001F0004221F000415A
:1053B00010EBD37021FA04F642EB06015EEA430ECD
:1053C00008BF20EAD37070BDC4F10C04C4F12005FD
:1053D00000FA04F320FA05F001FA04F240EA0200B0
:1053E00001F0004110EBD37041F100015EEA430E81
:1053F00008BF20EAD37070BDC4F1200500FA05F2A1
:105400004EEA020E20FA04F301FA05F243EA02031F
:1054100021FA04F001F0004121FA04F220EA02002E
:1054200000EBD3705EEA430E08BF20EAD37070BD74
:1054300094F0000F0FD101F00046400041EB010154
:1054400011F4801F08BF013CF7D041EA060195F036
:10545000000F18BF704703F00046520043EB0303F0
:1054600013F4801F08BF013DF7D043EA06037047DD
:1054700094EA0C0F0CEA135518BF95EA0C0F0CD0E8
:1054800050EA410618BF52EA4306D1D181EA03012E
:1054900001F000414FF0000070BD50EA410606BF28
:1054A0001046194652EA430619D094EA0C0F02D16D
:1054B00050EA013613D195EA0C0F05D152EA0336B2
:1054C0001CBF104619460AD181EA030101F00041D0
:1054D00041F0FE4141F470014FF0000070BD41F019
:1054E000FE4141F4780170BD70B54FF0FF0C4CF4F3
:1054F000E06C1CEA11541DBF1CEA135594EA0C0F12
:1055000095EA0C0F00F0A7F8A4EB050481EA030E5E
:1055100052EA03354FEA013100F088804FEA033345
:105520004FF0805545EA131343EA12634FEA022213
:1055300045EA111545EA10654FEA00260EF00041D4
:105540009D4208BF964244F1FD0404F5407402D226
:105550005B084FEA3202B61A65EB03055B084FEAB7
:1055600032024FF480104FF4002CB6EB020E75EBB4
:10557000030E22BFB61A754640EA0C005B084FEADC
:105580003202B6EB020E75EB030E22BFB61A754659
:1055900040EA5C005B084FEA3202B6EB020E75EBA4
:1055A000030E22BFB61A754640EA9C005B084FEA1C
:1055B0003202B6EB020E75EB030E22BFB61A754629
:1055C00040EADC0055EA060E18D04FEA051545EA18
:1055D00016754FEA06164FEAC30343EA52734FEAC1
:1055E000C2025FEA1C1CC0D111F4801F0BD141EA3A
:1055F00000014FF000004FF0004CB6E711F4801F9F
:1056000004BF01430020B4F1FD0C88BFBCF5E06F7E
:105610003FF6AFAEB5EB030C04BFB6EB020C5FEA8E
:10562000500C50F1000041EB045170BD0EF0004EE3
:105630004EEA113114EB5C04C2BFD4EB0C0541EA15
:10564000045170BD41F480114FF0000E013C90E612
:1056500045EA060E8DE60CEA135594EA0C0F08BFD6
:1056600095EA0C0F3FF43BAF94EA0C0F0AD150EAD5
:1056700001347FF434AF95EA0C0F7FF425AF104668
:1056800019462CE795EA0C0F06D152EA03353FF490
:10569000FDAE1046194622E750EA410618BF52EA0D
:1056A00043067FF4C5AE50EA41047FF40DAF52EAE1
:1056B00043057FF4EBAE12E74FF0FF3C06E000BF7E
:1056C0004FF0010C02E000BF4FF0010C4DF804CD8B
:1056D0004FEA410C7FEA6C5C4FEA430C18BF7FEA4B
:1056E0006C5C1BD001B050EA410C0CBF52EA430C79
:1056F00091EA030F02BF90EA020F0020704710F1F9
:10570000000F91EA030F58BF994208BF90422CBF87
:10571000D8176FEAE37040F0010070474FEA410C80
:105720007FEA6C5C02D150EA013C07D14FEA430C9E
:105730007FEA6C5CD6D152EA033CD3D05DF8040B0F
:10574000704700BF8446104662468C461946634641
:1057500000E000BF01B5FFF7B7FF002848BF10F118
:10576000000F01BD4DF808EDFFF7F4FF0CBF01205D
:1057700000205DF808FB00BF4DF808EDFFF7EAFFD9
:1057800034BF012000205DF808FB00BF4DF808ED94
:10579000FFF7E0FF94BF012000205DF808FB00BF89
:1057A0004DF808EDFFF7CEFF94BF012000205DF813
:1057B00008FB00BF4DF808EDFFF7C4FF34BF012020
:1057C00000205DF808FB00BF4FEA4002B2F1FE4F37
:1057D0000FD34FF09E03B3EB12620DD94FEA0023B3
:1057E00043F0004310F0004F23FA02F018BF40428C
:1057F00070474FF00000704712F1610F01D1420273
:1058000005D110F0004008BF6FF0004070474FF026
:105810000000704731F0004310B408D00F4AA3F5E0
:10582000801494420AD804205DF8044B7047002885
:105830000CBF022003205DF8044B7047B3F5801FB6
:1058400001D20320F7E7064A934201D00020F2E795
:10585000D0F1010038BF0020EDE700BFFFFFDF7F80
:105860000000F07F2DE9F04FDFF8B8A28BB01D46A5
:1058700080468946144600F073F99AF900300133E6
:1058800006460F4604D020462946FFF7C3FF20B93D
:10589000304639460BB0BDE8F08F40464946FFF729
:1058A000B9FF834600282CD1204629460022002338
:1058B000FFF758FF0028EBD0944B9AF9001094485A
:1058C000CDF820B000220126CDE906234B1CCDE9FE
:1058D0000289CDE90445009601900DD002290BD034
:1058E000684600F043FF002800F09580089B1BB13C
:1058F00001F068F8089B0360DDE906010BB0BDE824
:10590000F08F0022002340464946FFF72BFFF8B1F5
:105910002046294600220023FFF724FF8346002863
:105920004DD07B4A9AF900300192CDE9044501211E
:10593000002200240025CDE90289CDE90645009129
:105940000892002BCCD0714B0022CDE90623D3E77F
:105950003046394600F004FF8346002860D000221C
:10596000002330463946FFF7FDFE002890D0404620
:10597000494600F0F5FE00288AD02046294600F06E
:10598000EFFE002884D09AF90030614A0192CDE9F7
:1059900004450421002200240025022BCDE90289C0
:1059A000CDE906450091089200F08280684600F03B
:1059B000DDFE00287CD0089B002B9DD098E7204678
:1059C000294600F0CDFE00283FF462AF204629466C
:1059D00000220023FFF7D0FE00283FF459AF4C4BC4
:1059E0009AF80010CDF820B001228DE80C00CDE926
:1059F0000289CDE904450022002934D10023CDE9F4
:105A00000623684600F0B2FE0028D4D100F0DAFF89
:105A100021230360CFE700F0D5FF2123036065E772
:105A20004046494600F09CFE002898D02046294672
:105A300000F096FE002892D030463946FFF7EAFE85
:105A4000B8B9334B9AF8006008900122CDE9028979
:105A5000CDE904458DE80C00002E2ED10024002550
:105A6000CDE90645CDE72B4B0229CDE90623CDD064
:105A7000C7E7274A9AF90030CDF820B003218DE816
:105A80000600CDE90289CDE9044540464946002299
:105A9000F3B9214F4FF060460023CDE90667FFF7C9
:105AA0006BFE002840D19AF90030022B7FF47EAFC4
:105AB00000F088FF222303607DE7002000210246DA
:105AC0000B46FFF711FD022ECDE906019ED098E7A7
:105AD000124F00260023CDE90667FFF74DFE002890
